{
  "contractName": "FlightSuretyData",
  "abi": [
    {
      "inputs": [],
      "payable": false,
      "stateMutability": "nonpayable",
      "type": "constructor"
    },
    {
      "payable": true,
      "stateMutability": "payable",
      "type": "fallback"
    },
    {
      "constant": true,
      "inputs": [
        {
          "internalType": "address",
          "name": "_address",
          "type": "address"
        }
      ],
      "name": "isAirline",
      "outputs": [
        {
          "internalType": "bool",
          "name": "",
          "type": "bool"
        }
      ],
      "payable": false,
      "stateMutability": "view",
      "type": "function"
    },
    {
      "constant": true,
      "inputs": [
        {
          "internalType": "address",
          "name": "_address",
          "type": "address"
        }
      ],
      "name": "isVotingAirline",
      "outputs": [
        {
          "internalType": "bool",
          "name": "",
          "type": "bool"
        }
      ],
      "payable": false,
      "stateMutability": "view",
      "type": "function"
    },
    {
      "constant": false,
      "inputs": [
        {
          "internalType": "address",
          "name": "appContract",
          "type": "address"
        }
      ],
      "name": "authorizeCaller",
      "outputs": [],
      "payable": false,
      "stateMutability": "nonpayable",
      "type": "function"
    },
    {
      "constant": false,
      "inputs": [
        {
          "internalType": "address",
          "name": "appContract",
          "type": "address"
        }
      ],
      "name": "deauthorizeCaller",
      "outputs": [],
      "payable": false,
      "stateMutability": "nonpayable",
      "type": "function"
    },
    {
      "constant": true,
      "inputs": [],
      "name": "isOperational",
      "outputs": [
        {
          "internalType": "bool",
          "name": "",
          "type": "bool"
        }
      ],
      "payable": false,
      "stateMutability": "view",
      "type": "function"
    },
    {
      "constant": false,
      "inputs": [
        {
          "internalType": "bool",
          "name": "mode",
          "type": "bool"
        },
        {
          "internalType": "address",
          "name": "appUserAddress",
          "type": "address"
        }
      ],
      "name": "setOperatingStatus",
      "outputs": [],
      "payable": false,
      "stateMutability": "nonpayable",
      "type": "function"
    },
    {
      "constant": false,
      "inputs": [
        {
          "internalType": "address",
          "name": "appUserAddress",
          "type": "address"
        },
        {
          "internalType": "address",
          "name": "airlineAddress",
          "type": "address"
        },
        {
          "internalType": "string",
          "name": "name",
          "type": "string"
        }
      ],
      "name": "registerAirline",
      "outputs": [],
      "payable": false,
      "stateMutability": "nonpayable",
      "type": "function"
    },
    {
      "constant": false,
      "inputs": [
        {
          "internalType": "address",
          "name": "airlineCastedVoteFor",
          "type": "address"
        },
        {
          "internalType": "address",
          "name": "appUserAddress",
          "type": "address"
        }
      ],
      "name": "voteAirlineIn",
      "outputs": [],
      "payable": false,
      "stateMutability": "nonpayable",
      "type": "function"
    },
    {
      "constant": false,
      "inputs": [],
      "name": "resetAirlineVote",
      "outputs": [],
      "payable": false,
      "stateMutability": "nonpayable",
      "type": "function"
    },
    {
      "constant": false,
      "inputs": [],
      "name": "buy",
      "outputs": [],
      "payable": true,
      "stateMutability": "payable",
      "type": "function"
    },
    {
      "constant": true,
      "inputs": [],
      "name": "creditInsurees",
      "outputs": [],
      "payable": false,
      "stateMutability": "pure",
      "type": "function"
    },
    {
      "constant": true,
      "inputs": [],
      "name": "pay",
      "outputs": [],
      "payable": false,
      "stateMutability": "pure",
      "type": "function"
    },
    {
      "constant": false,
      "inputs": [],
      "name": "fund",
      "outputs": [],
      "payable": true,
      "stateMutability": "payable",
      "type": "function"
    }
  ],
  "bytecode": "0x60806040526001600560006101000a81548160ff0219169083151502179055506000604051908082528060200260200182016040528015620000505781602001602082028038833980820191505090505b5060069080519060200190620000689291906200029c565b50600060075560006040519080825280602002602001820160405280156200009f5781602001602082028038833980820191505090505b5060089080519060200190620000b79291906200029c565b50348015620000c557600080fd5b5033600360006101000a81548173ffffffffffffffffffffffffffffffffffffffff021916908373ffffffffffffffffffffffffffffffffffffffff1602179055506040518060400160405280601481526020017f436f6e74726163744f776e65724169726c696e650000000000000000000000008152506000803373ffffffffffffffffffffffffffffffffffffffff1673ffffffffffffffffffffffffffffffffffffffff1681526020019081526020016000206000019080519060200190620001939291906200032b565b5060016000803373ffffffffffffffffffffffffffffffffffffffff1673ffffffffffffffffffffffffffffffffffffffff16815260200190815260200160002060010160006101000a81548160ff02191690831515021790555060016000803373ffffffffffffffffffffffffffffffffffffffff1673ffffffffffffffffffffffffffffffffffffffff16815260200190815260200160002060010160016101000a81548160ff02191690831515021790555060016000803373ffffffffffffffffffffffffffffffffffffffff1673ffffffffffffffffffffffffffffffffffffffff168152602001908152602001600020600201819055506001808190555062000420565b82805482825590600052602060002090810192821562000318579160200282015b82811115620003175782518260006101000a81548173ffffffffffffffffffffffffffffffffffffffff021916908373ffffffffffffffffffffffffffffffffffffffff16021790555091602001919060010190620002bd565b5b509050620003279190620003b2565b5090565b828054600181600116156101000203166002900490600052602060002090601f016020900481019282601f106200036e57805160ff19168380011785556200039f565b828001600101855582156200039f579182015b828111156200039e57825182559160200191906001019062000381565b5b509050620003ae9190620003f8565b5090565b620003f591905b80821115620003f157600081816101000a81549073ffffffffffffffffffffffffffffffffffffffff021916905550600101620003b9565b5090565b90565b6200041d91905b8082111562000419576000816000905550600101620003ff565b5090565b90565b61179980620004306000396000f3fe6080604052600436106100c25760003560e01c806348b219ea1161007f578063b60d428811610059578063b60d4288146103af578063c590dda5146103b9578063cd905dff14610416578063efefe15c14610445576100c2565b806348b219ea146102eb5780636873c21d14610354578063a6f2ae3a146103a5576100c2565b80630e248a11146100cc5780631b9265b8146101355780632c388d5d1461014c5780633010f50f1461019d5780633321a9c11461026357806336cee484146102d4575b6100ca61045c565b005b3480156100d857600080fd5b5061011b600480360360208110156100ef57600080fd5b81019080803573ffffffffffffffffffffffffffffffffffffffff16906020019092919050505061045e565b604051808215151515815260200191505060405180910390f35b34801561014157600080fd5b5061014a6104c1565b005b34801561015857600080fd5b5061019b6004803603602081101561016f57600080fd5b81019080803573ffffffffffffffffffffffffffffffffffffffff1690602001909291905050506104c3565b005b3480156101a957600080fd5b50610261600480360360608110156101c057600080fd5b81019080803573ffffffffffffffffffffffffffffffffffffffff169060200190929190803573ffffffffffffffffffffffffffffffffffffffff1690602001909291908035906020019064010000000081111561021d57600080fd5b82018360208201111561022f57600080fd5b8035906020019184600183028401116401000000008311171561025157600080fd5b90919293919293905050506105ce565b005b34801561026f57600080fd5b506102d26004803603604081101561028657600080fd5b81019080803573ffffffffffffffffffffffffffffffffffffffff169060200190929190803573ffffffffffffffffffffffffffffffffffffffff1690602001909291905050506108cd565b005b3480156102e057600080fd5b506102e9610cba565b005b3480156102f757600080fd5b5061033a6004803603602081101561030e57600080fd5b81019080803573ffffffffffffffffffffffffffffffffffffffff169060200190929190505050610cbc565b604051808215151515815260200191505060405180910390f35b34801561036057600080fd5b506103a36004803603602081101561037757600080fd5b81019080803573ffffffffffffffffffffffffffffffffffffffff169060200190929190505050610dca565b005b6103ad610ed3565b005b6103b761045c565b005b3480156103c557600080fd5b50610414600480360360408110156103dc57600080fd5b81019080803515159060200190929190803573ffffffffffffffffffffffffffffffffffffffff169060200190929190505050610ed5565b005b34801561042257600080fd5b5061042b61121f565b604051808215151515815260200191505060405180910390f35b34801561045157600080fd5b5061045a6112eb565b005b565b60008060008060008573ffffffffffffffffffffffffffffffffffffffff1673ffffffffffffffffffffffffffffffffffffffff16815260200190815260200160002060020154146104b357600190506104b8565b600090505b80915050919050565b565b600360009054906101000a900473ffffffffffffffffffffffffffffffffffffffff1673ffffffffffffffffffffffffffffffffffffffff163373ffffffffffffffffffffffffffffffffffffffff1614610586576040517f08c379a000000000000000000000000000000000000000000000000000000000815260040180806020018281038252601c8152602001807f43616c6c6572206973206e6f7420636f6e7472616374206f776e65720000000081525060200191505060405180910390fd5b6001600460008373ffffffffffffffffffffffffffffffffffffffff1673ffffffffffffffffffffffffffffffffffffffff1681526020019081526020016000208190555050565b6001600460003373ffffffffffffffffffffffffffffffffffffffff1673ffffffffffffffffffffffffffffffffffffffff1681526020019081526020016000205414610683576040517f08c379a00000000000000000000000000000000000000000000000000000000081526004018080602001828103825260208152602001807f43616c6c6572206973206e6f74206175746872697a656420636f6e747261637481525060200191505060405180910390fd5b600060075414806106975750600360015411155b6106ec576040517f08c379a00000000000000000000000000000000000000000000000000000000081526004018080602001828103825260588152602001806116946058913960600191505060405180910390fd5b610701600180546114b490919063ffffffff16565b6001819055506001546000808573ffffffffffffffffffffffffffffffffffffffff1673ffffffffffffffffffffffffffffffffffffffff1681526020019081526020016000206002018190555081816000808673ffffffffffffffffffffffffffffffffffffffff1673ffffffffffffffffffffffffffffffffffffffff168152602001908152602001600020600001919061079f9291906114f9565b5060016000808573ffffffffffffffffffffffffffffffffffffffff1673ffffffffffffffffffffffffffffffffffffffff16815260200190815260200160002060010160006101000a81548160ff0219169083151502179055506004600154116108635760016000808573ffffffffffffffffffffffffffffffffffffffff1673ffffffffffffffffffffffffffffffffffffffff16815260200190815260200160002060010160016101000a81548160ff0219169083151502179055506108c7565b60008060008573ffffffffffffffffffffffffffffffffffffffff1673ffffffffffffffffffffffffffffffffffffffff16815260200190815260200160002060010160016101000a81548160ff0219169083151502179055506001546007819055505b50505050565b6001600460003373ffffffffffffffffffffffffffffffffffffffff1673ffffffffffffffffffffffffffffffffffffffff1681526020019081526020016000205414610982576040517f08c379a00000000000000000000000000000000000000000000000000000000081526004018080602001828103825260208152602001807f43616c6c6572206973206e6f74206175746872697a656420636f6e747261637481525060200191505060405180910390fd5b61098b81610cbc565b6109e0576040517f08c379a000000000000000000000000000000000000000000000000000000000815260040180806020018281038252602b81526020018061173a602b913960400191505060405180910390fd5b6007546000808473ffffffffffffffffffffffffffffffffffffffff1673ffffffffffffffffffffffffffffffffffffffff1681526020019081526020016000206002015414610a7b576040517f08c379a00000000000000000000000000000000000000000000000000000000081526004018080602001828103825260218152602001806117196021913960400191505060405180910390fd5b600080905060008090505b600880549050811015610b14578273ffffffffffffffffffffffffffffffffffffffff1660088281548110610ab757fe5b9060005260206000200160009054906101000a900473ffffffffffffffffffffffffffffffffffffffff1673ffffffffffffffffffffffffffffffffffffffff161415610b075760019150610b14565b8080600101915050610a86565b508015610b6c576040517f08c379a000000000000000000000000000000000000000000000000000000000815260040180806020018281038252602881526020018061166c6028913960400191505060405180910390fd5b60088290806001815401808255809150509060018203906000526020600020016000909192909190916101000a81548173ffffffffffffffffffffffffffffffffffffffff021916908373ffffffffffffffffffffffffffffffffffffffff160217905550506000610bfc6002610bee600180546114ce90919063ffffffff16565b6114e590919063ffffffff16565b90508060068054905010610cb45760016000808673ffffffffffffffffffffffffffffffffffffffff1673ffffffffffffffffffffffffffffffffffffffff16815260200190815260200160002060010160016101000a81548160ff02191690831515021790555060006007819055506000604051908082528060200260200182016040528015610c9c5781602001602082028038833980820191505090505b5060089080519060200190610cb2929190611579565b505b50505050565b565b6000806000905060008060008573ffffffffffffffffffffffffffffffffffffffff1673ffffffffffffffffffffffffffffffffffffffff1681526020019081526020016000206002015414158015610d6057506000808473ffffffffffffffffffffffffffffffffffffffff1673ffffffffffffffffffffffffffffffffffffffff16815260200190815260200160002060010160009054906101000a900460ff165b8015610db757506000808473ffffffffffffffffffffffffffffffffffffffff1673ffffffffffffffffffffffffffffffffffffffff16815260200190815260200160002060010160019054906101000a900460ff165b15610dc157600190505b80915050919050565b600360009054906101000a900473ffffffffffffffffffffffffffffffffffffffff1673ffffffffffffffffffffffffffffffffffffffff163373ffffffffffffffffffffffffffffffffffffffff1614610e8d576040517f08c379a000000000000000000000000000000000000000000000000000000000815260040180806020018281038252601c8152602001807f43616c6c6572206973206e6f7420636f6e7472616374206f776e65720000000081525060200191505060405180910390fd5b600460008273ffffffffffffffffffffffffffffffffffffffff1673ffffffffffffffffffffffffffffffffffffffff1681526020019081526020016000206000905550565b565b6001600460003373ffffffffffffffffffffffffffffffffffffffff1673ffffffffffffffffffffffffffffffffffffffff1681526020019081526020016000205414610f8a576040517f08c379a00000000000000000000000000000000000000000000000000000000081526004018080602001828103825260208152602001807f43616c6c6572206973206e6f74206175746872697a656420636f6e747261637481525060200191505060405180910390fd5b610f9381610cbc565b610fe8576040517f08c379a000000000000000000000000000000000000000000000000000000000815260040180806020018281038252602b81526020018061173a602b913960400191505060405180910390fd5b600560009054906101000a900460ff1615158215151415611054576040517f08c379a000000000000000000000000000000000000000000000000000000000815260040180806020018281038252602d8152602001806116ec602d913960400191505060405180910390fd5b600080905060008090505b6006805490508110156110ed578273ffffffffffffffffffffffffffffffffffffffff166006828154811061109057fe5b9060005260206000200160009054906101000a900473ffffffffffffffffffffffffffffffffffffffff1673ffffffffffffffffffffffffffffffffffffffff1614156110e057600191506110ed565b808060010191505061105f565b508015611145576040517f08c379a000000000000000000000000000000000000000000000000000000000815260040180806020018281038252602881526020018061166c6028913960400191505060405180910390fd5b60068290806001815401808255809150509060018203906000526020600020016000909192909190916101000a81548173ffffffffffffffffffffffffffffffffffffffff021916908373ffffffffffffffffffffffffffffffffffffffff1602179055505060026006805490501061121a5782600560006101000a81548160ff02191690831515021790555060006040519080825280602002602001820160405280156112025781602001602082028038833980820191505090505b5060069080519060200190611218929190611579565b505b505050565b60006001600460003373ffffffffffffffffffffffffffffffffffffffff1673ffffffffffffffffffffffffffffffffffffffff16815260200190815260200160002054146112d6576040517f08c379a00000000000000000000000000000000000000000000000000000000081526004018080602001828103825260208152602001807f43616c6c6572206973206e6f74206175746872697a656420636f6e747261637481525060200191505060405180910390fd5b600560009054906101000a900460ff16905090565b6001600460003373ffffffffffffffffffffffffffffffffffffffff1673ffffffffffffffffffffffffffffffffffffffff16815260200190815260200160002054146113a0576040517f08c379a00000000000000000000000000000000000000000000000000000000081526004018080602001828103825260208152602001807f43616c6c6572206973206e6f74206175746872697a656420636f6e747261637481525060200191505060405180910390fd5b600360009054906101000a900473ffffffffffffffffffffffffffffffffffffffff1673ffffffffffffffffffffffffffffffffffffffff163373ffffffffffffffffffffffffffffffffffffffff1614611463576040517f08c379a000000000000000000000000000000000000000000000000000000000815260040180806020018281038252601c8152602001807f43616c6c6572206973206e6f7420636f6e7472616374206f776e65720000000081525060200191505060405180910390fd5b6000600781905550600060405190808252806020026020018201604052801561149b5781602001602082028038833980820191505090505b50600890805190602001906114b1929190611579565b50565b60008183019050828110156114c557fe5b80905092915050565b6000828211156114da57fe5b818303905092915050565b60008183816114f057fe5b04905092915050565b828054600181600116156101000203166002900490600052602060002090601f016020900481019282601f1061153a57803560ff1916838001178555611568565b82800160010185558215611568579182015b8281111561156757823582559160200191906001019061154c565b5b5090506115759190611603565b5090565b8280548282559060005260206000209081019282156115f2579160200282015b828111156115f15782518260006101000a81548173ffffffffffffffffffffffffffffffffffffffff021916908373ffffffffffffffffffffffffffffffffffffffff16021790555091602001919060010190611599565b5b5090506115ff9190611628565b5090565b61162591905b80821115611621576000816000905550600101611609565b5090565b90565b61166891905b8082111561166457600081816101000a81549073ffffffffffffffffffffffffffffffffffffffff02191690555060010161162e565b5090565b9056fe43616c6c65722068617320616c72656164792063616c6c656420746869732066756e6374696f6e2e54686572652069732063757272656e746c7920616e20756e66696e697368656420726567697374726174696f6e2070726f6365737320676f696e67206f6e2e20506c656173652066696e69736820746861742066697273744e6577206d6f6465206d75737420626520646966666572656e742066726f6d206578697374696e67206d6f6465566f74652063617374656420666f72207468652077726f6e67206169726c696e6543616c6c6572206973206e6f742066756e64656420616e642072656769737465726564206169726c696e65a265627a7a72315820ac592ad8a1c72f0c14b7634468a0880e8d373e3923597eb1e154f27faac1dc2864736f6c63430005100032",
  "source": "pragma solidity >=0.4.25;\n\nimport \"../node_modules/openzeppelin-solidity/contracts/math/SafeMath.sol\";\n\ncontract FlightSuretyData {\n    using SafeMath for uint256;\n\n    /********************************************************************************************/\n    /*                                       DATA VARIABLES                                     */\n    /********************************************************************************************/\n\n    struct airlineStructType {                                          //struc for airlines\n        string name;                \n        bool isFunded;                                                          // funded\n        bool isAccepted;                                                        // accepted to be airline\n        uint256 ID;                                                             // ID to identify airline\n    }\n\n\n    mapping(address => airlineStructType) private airlines;\n\n    uint256 airlineCount;                                                       // used to set ID\n\n    struct passengerStrucType{\n        address passengerAddress;\n        mapping (bytes32 => uint256) insuredFlights;\n        uint256 credit;\n    }\n    mapping(address => passengerStrucType) private passengers;\n\n    \n    \n    \n    address private contractOwner;                                      // Account used to deploy contract\n    \n    mapping (address => uint256) authorizedContracts;                   // App contracts that are allowed by owner to call this data contract\n\n    bool private operational = true;                                    // Blocks all state changes throughout the contract if false\n\n    uint constant M=2;                                                  //Defines number of votes needed set operational status\n    address[] multiCalls = new address[](0);                           //array to identify whether address already voted for setOperational() status\n\n    uint256 airlineToVoteFor = 0;                                       // Which airline is currently voted to be registered - referring to airlineStructType.ID\n    address[] multiCallsAirlineVote = new address[](0);                 //array to identify whether address already voted for voteAirlineIn() status\n\n\n\n    /********************************************************************************************/\n    /*                                       EVENT DEFINITIONS                                  */\n    /********************************************************************************************/\n\n\n    /**\n    * @dev Constructor\n    *      The deploying account becomes contractOwner\n    */\n    constructor\n                                (\n                                ) \n                                public \n    {\n        contractOwner = msg.sender;\n        //Contract owner is automtically registered as \n        airlines[msg.sender].name = \"ContractOwnerAirline\";\n        airlines[msg.sender].isFunded = true;\n        airlines[msg.sender].isAccepted = true;\n        airlines[msg.sender].ID=1;\n\n        //Set airline count for airlines[].ID setting\n        airlineCount = 1;\n         \n    }\n\n    /********************************************************************************************/\n    /*                                       FUNCTION MODIFIERS                                 */\n    /********************************************************************************************/\n\n    // Modifiers help avoid duplication of code. They are typically used to validate something\n    // before a function is allowed to be executed.\n\n    /**\n    * @dev Modifier that requires the \"operational\" boolean variable to be \"true\"\n    *      This is used on all state changing functions to pause the contract in \n    *      the event there is an issue that needs to be fixed\n    */\n    modifier requireIsOperational() \n    {\n        require(operational, \"Contract is currently not operational\");\n        _;  // All modifiers require an \"_\" which indicates where the function body will be added\n    }\n\n    /**\n    * @dev Modifier that requires the \"ContractOwner\" account to be the function caller\n    */\n    modifier requireContractOwner()\n    {\n        require(msg.sender == contractOwner, \"Caller is not contract owner\");\n        _;\n    }\n\n    modifier requireCallerAuthorized()\n    {\n        require(authorizedContracts[msg.sender] == 1, \"Caller is not authrized contract\");\n        _;\n    }\n    /**\n    * @dev Modifier that requires caller to be airline\n    *      \n    */\n\n    function isAirline(address _address) external view returns(bool)\n    {\n        bool _isAirline;\n        if (airlines[_address].ID != 0) {\n            _isAirline = true;\n        }  else {\n            _isAirline = false;\n        }\n        return(_isAirline);\n\n    }\n\n    /**\n    * @dev Modifier that requires caller to be airline that can be\n    *      Voting requires funding and being accepted by other airlines\n    */\n    function isVotingAirline(address _address) public view returns(bool)\n    {\n        bool _isVotingAirline; \n        _isVotingAirline = false;\n        if (        (airlines[_address].ID != 0) && \n                    (airlines[_address].isFunded) && \n                    (airlines[_address].isAccepted)) {\n                      _isVotingAirline = true;  \n                    }\n        return(_isVotingAirline);  \n    }\n\n    /********************************************************************************************/\n    /*                                 REFERENCE DATA APP CONTRACT  FUNCTIONS                   */\n    /********************************************************************************************/\n\n    /**\n    * @dev authorize contract\n    *\n    * @return A bool that is the current operating status\n    */      \n    function authorizeCaller(address appContract) \n                                                    external \n                                                    requireContractOwner {\n        authorizedContracts[appContract] = 1;\n    } \n\n    function deauthorizeCaller(address appContract) \n                                                    external \n                                                    requireContractOwner {\n        delete authorizedContracts[appContract];\n    } \n    /********************************************************************************************/\n    /*                                       UTILITY FUNCTIONS                                  */\n    /********************************************************************************************/\n\n    /**\n    * @dev Get operating status of contract\n    *\n    * @return A bool that is the current operating status\n    */      \n    function isOperational() \n                            public \n                            view \n                            requireCallerAuthorized\n                            returns(bool) \n\n    {\n        return operational;\n    }\n\n\n    /**\n    * @dev Sets contract operations on/off\n    *\n    * When operational mode is disabled, all write transactions except for this one will fail\n    */    \n    function setOperatingStatus\n                            (\n                                bool mode,\n                                address appUserAddress\n                            ) \n                            external\n                            requireCallerAuthorized                         \n    {\n\n        require(isVotingAirline(appUserAddress), \"Caller is not funded and registered airline\");\n        require(mode != operational, \"New mode must be different from existing mode\");\n        bool isDuplicate = false;\n        for(uint c=0; c<multiCalls.length; c++) {\n            if (multiCalls[c] == appUserAddress) {\n                isDuplicate = true;\n                break;\n            }\n        }\n        require(!isDuplicate, \"Caller has already called this function.\");\n\n        multiCalls.push(appUserAddress);\n        if (multiCalls.length >= M) {\n            operational = mode;      \n            multiCalls = new address[](0);      \n\n    }\n\n    }\n\n    /********************************************************************************************/\n    /*                                     SMART CONTRACT FUNCTIONS                             */\n    /********************************************************************************************/\n\n   /**\n    * @dev Add an airline to the registration queue\n    *      Can only be called from FlightSuretyApp contract\n    *\n    */   \n    function registerAirline\n                            (\n                                address appUserAddress,\n                                address airlineAddress,\n                                string calldata name\n                            )\n                            external\n                            requireCallerAuthorized\n\n    {   //First 3 airlines can be registered without vote, afterwards an airline can only be regietered if the voting for the previous airline is concluded\n        require((airlineToVoteFor==0) ||\n                (airlineCount<=3)        , \"There is currently an unfinished registration process going on. Please finish that first\");\n        \n        airlineCount = airlineCount.add(1);\n        airlines[airlineAddress].ID = airlineCount;\n        airlines[airlineAddress].name = name;\n        airlines[airlineAddress].isFunded = true;\n        \n        //The first four airlines are registered/accepted without a vote\n        if (airlineCount<=4) {\n            \n            airlines[airlineAddress].isAccepted = true;\n        } else {\n            airlines[airlineAddress].isAccepted = false;\n            \n            // Opening  vote for this airline\n            airlineToVoteFor = airlineCount;\n        }\n    }\n    /**\n    * @dev Sets contract operations on/off\n    *\n    * When operational mode is disabled, all write transactions except for this one will fail\n    */    \n    function voteAirlineIn\n                            (\n                                address airlineCastedVoteFor,\n                                address appUserAddress\n                            ) \n                            external\n                            requireCallerAuthorized                         \n    {\n\n        require(isVotingAirline(appUserAddress), \"Caller is not funded and registered airline\");\n        require(airlines[airlineCastedVoteFor].ID == airlineToVoteFor, \"Vote casted for the wrong airline\");\n        bool isDuplicate = false;\n        for(uint c=0; c<multiCallsAirlineVote.length; c++) {\n            if (multiCallsAirlineVote[c] == appUserAddress) {\n                isDuplicate = true;\n                break;\n            }\n        }\n        require(!isDuplicate, \"Caller has already called this function.\");\n\n        multiCallsAirlineVote.push(appUserAddress);\n        uint256 hurdle = airlineCount.sub(1).div(2);\n        if (multiCalls.length >= hurdle) {\n            // Airline is accepted\n            airlines[airlineCastedVoteFor].isAccepted = true;\n\n            //Airlinevote is reset\n            airlineToVoteFor = 0;      \n            multiCallsAirlineVote = new address[](0);      \n\n    }\n    }\n    /**\n    * @dev Sets contract operations on/off\n    *\n    * Contract owner can reset any ongoing vote with leaving the airline that is voted for unregistered\n    */    \n    function resetAirlineVote\n                            (\n                            ) \n                            external\n                            requireCallerAuthorized\n                            requireContractOwner\n\n\n    {\n            airlineToVoteFor = 0;\n            multiCallsAirlineVote = new address[](0);      \n    }\n\n   /**\n    * @dev Buy insurance for a flight\n    *\n    */   \n    function buy\n                            (                             \n                            )\n                            external\n                            payable\n    {\n\n    }\n\n    /**\n     *  @dev Credits payouts to insurees\n    */\n    function creditInsurees\n                                (\n                                )\n                                external\n                                pure\n    {\n    }\n    \n\n    /**\n     *  @dev Transfers eligible payout funds to insuree\n     *\n    */\n    function pay\n                            (\n                            )\n                            external\n                            pure\n    {\n    }\n\n   /**\n    * @dev Initial funding for the insurance. Unless there are too many delayed flights\n    *      resulting in insurance payouts, the contract should be self-sustaining\n    *\n    */   \n    function fund\n                            (   \n                            )\n                            public\n                            payable\n    {\n    }\n\n    function getFlightKey\n                        (\n                            address airline,\n                            string memory flight,\n                            uint256 timestamp\n                        )\n                        pure\n                        internal\n                        returns(bytes32) \n    {\n        return keccak256(abi.encodePacked(airline, flight, timestamp));\n    }\n\n    /**\n    * @dev Fallback function for funding smart contract.\n    *\n    */\n    function() \n                            external \n                            payable \n    {\n        fund();\n    }\n\n\n}\n\n",
  "sourcePath": "/Users/andrelange/CodingProjects/blockchaindev/FS/contracts/FlightSuretyData.sol",
  "compiler": {
    "name": "solc",
    "version": "0.5.16+commit.9c3226ce.Emscripten.clang"
  },
  "schemaVersion": "3.4.11",
  "updatedAt": "2023-02-06T19:37:51.147Z",
  "devdoc": {
    "methods": {
      "authorizeCaller(address)": {
        "details": "authorize contract",
        "return": "A bool that is the current operating status"
      },
      "buy()": {
        "details": "Buy insurance for a flight    "
      },
      "constructor": {
        "details": "Constructor     The deploying account becomes contractOwner"
      },
      "creditInsurees()": {
        "details": "Credits payouts to insurees"
      },
      "fund()": {
        "details": "Initial funding for the insurance. Unless there are too many delayed flights     resulting in insurance payouts, the contract should be self-sustaining    "
      },
      "isAirline(address)": {
        "details": "Modifier that requires caller to be airline     "
      },
      "isOperational()": {
        "details": "Get operating status of contract",
        "return": "A bool that is the current operating status"
      },
      "isVotingAirline(address)": {
        "details": "Modifier that requires caller to be airline that can be     Voting requires funding and being accepted by other airlines"
      },
      "pay()": {
        "details": "Transfers eligible payout funds to insuree    "
      },
      "registerAirline(address,address,string)": {
        "details": "Add an airline to the registration queue     Can only be called from FlightSuretyApp contract    "
      },
      "resetAirlineVote()": {
        "details": "Sets contract operations on/off    * Contract owner can reset any ongoing vote with leaving the airline that is voted for unregistered"
      },
      "setOperatingStatus(bool,address)": {
        "details": "Sets contract operations on/off    * When operational mode is disabled, all write transactions except for this one will fail"
      },
      "voteAirlineIn(address,address)": {
        "details": "Sets contract operations on/off    * When operational mode is disabled, all write transactions except for this one will fail"
      }
    }
  },
  "userdoc": {
    "methods": {}
  }
}