{
  "contractName": "FlightSuretyData",
  "abi": [
    {
      "inputs": [],
      "stateMutability": "nonpayable",
      "type": "constructor"
    },
    {
      "anonymous": false,
      "inputs": [
        {
          "indexed": false,
          "internalType": "address",
          "name": "appUserAddress",
          "type": "address"
        },
        {
          "indexed": false,
          "internalType": "address",
          "name": "airlineAddress",
          "type": "address"
        },
        {
          "indexed": false,
          "internalType": "string",
          "name": "name",
          "type": "string"
        },
        {
          "indexed": false,
          "internalType": "uint256",
          "name": "airlineCount",
          "type": "uint256"
        }
      ],
      "name": "AirlineRegistered",
      "type": "event"
    },
    {
      "anonymous": false,
      "inputs": [
        {
          "indexed": false,
          "internalType": "uint256",
          "name": "voteNumber",
          "type": "uint256"
        },
        {
          "indexed": false,
          "internalType": "address",
          "name": "airlineToVoteFor",
          "type": "address"
        }
      ],
      "name": "AirlineVoteCasted",
      "type": "event"
    },
    {
      "anonymous": false,
      "inputs": [
        {
          "indexed": false,
          "internalType": "address",
          "name": "_passenger",
          "type": "address"
        },
        {
          "indexed": false,
          "internalType": "uint256",
          "name": "creditPaidOut",
          "type": "uint256"
        }
      ],
      "name": "CreditPaidOut",
      "type": "event"
    },
    {
      "anonymous": false,
      "inputs": [
        {
          "indexed": false,
          "internalType": "string",
          "name": "flight",
          "type": "string"
        },
        {
          "indexed": false,
          "internalType": "uint8",
          "name": "statusCode",
          "type": "uint8"
        }
      ],
      "name": "FlightProcessed",
      "type": "event"
    },
    {
      "anonymous": false,
      "inputs": [
        {
          "indexed": false,
          "internalType": "address[]",
          "name": "insurees",
          "type": "address[]"
        }
      ],
      "name": "InsureesToFund",
      "type": "event"
    },
    {
      "anonymous": false,
      "inputs": [
        {
          "indexed": false,
          "internalType": "address",
          "name": "_insuree",
          "type": "address"
        },
        {
          "indexed": false,
          "internalType": "uint256",
          "name": "payOutAmount",
          "type": "uint256"
        }
      ],
      "name": "PayOutCredited",
      "type": "event"
    },
    {
      "anonymous": false,
      "inputs": [
        {
          "indexed": false,
          "internalType": "uint256",
          "name": "voteNumber",
          "type": "uint256"
        },
        {
          "indexed": false,
          "internalType": "uint256",
          "name": "voteHurdle",
          "type": "uint256"
        },
        {
          "indexed": false,
          "internalType": "address",
          "name": "airlineToVoteFor",
          "type": "address"
        }
      ],
      "name": "SuccessfulAirlineVoteCasted",
      "type": "event"
    },
    {
      "stateMutability": "payable",
      "type": "fallback",
      "payable": true
    },
    {
      "stateMutability": "payable",
      "type": "receive",
      "payable": true
    },
    {
      "inputs": [
        {
          "internalType": "address",
          "name": "_address",
          "type": "address"
        }
      ],
      "name": "isAirline",
      "outputs": [
        {
          "internalType": "bool",
          "name": "",
          "type": "bool"
        }
      ],
      "stateMutability": "view",
      "type": "function",
      "constant": true
    },
    {
      "inputs": [
        {
          "internalType": "address",
          "name": "_address",
          "type": "address"
        }
      ],
      "name": "isVotingAirline",
      "outputs": [
        {
          "internalType": "bool",
          "name": "",
          "type": "bool"
        }
      ],
      "stateMutability": "view",
      "type": "function",
      "constant": true
    },
    {
      "inputs": [
        {
          "internalType": "address",
          "name": "_address",
          "type": "address"
        }
      ],
      "name": "isFundedAirline",
      "outputs": [
        {
          "internalType": "bool",
          "name": "",
          "type": "bool"
        }
      ],
      "stateMutability": "view",
      "type": "function",
      "constant": true
    },
    {
      "inputs": [
        {
          "internalType": "address",
          "name": "_address",
          "type": "address"
        }
      ],
      "name": "isAcceptedAirline",
      "outputs": [
        {
          "internalType": "bool",
          "name": "",
          "type": "bool"
        }
      ],
      "stateMutability": "view",
      "type": "function",
      "constant": true
    },
    {
      "inputs": [
        {
          "internalType": "address",
          "name": "passengerAddress",
          "type": "address"
        },
        {
          "internalType": "string",
          "name": "flightName",
          "type": "string"
        }
      ],
      "name": "getPayOutAmount",
      "outputs": [
        {
          "internalType": "uint256",
          "name": "",
          "type": "uint256"
        }
      ],
      "stateMutability": "view",
      "type": "function",
      "constant": true
    },
    {
      "inputs": [
        {
          "internalType": "address",
          "name": "appContract",
          "type": "address"
        }
      ],
      "name": "authorizeCaller",
      "outputs": [],
      "stateMutability": "nonpayable",
      "type": "function"
    },
    {
      "inputs": [
        {
          "internalType": "address",
          "name": "appContract",
          "type": "address"
        }
      ],
      "name": "deauthorizeCaller",
      "outputs": [],
      "stateMutability": "nonpayable",
      "type": "function"
    },
    {
      "inputs": [],
      "name": "isOperational",
      "outputs": [
        {
          "internalType": "bool",
          "name": "",
          "type": "bool"
        }
      ],
      "stateMutability": "view",
      "type": "function",
      "constant": true
    },
    {
      "inputs": [
        {
          "internalType": "bool",
          "name": "mode",
          "type": "bool"
        },
        {
          "internalType": "address",
          "name": "appUserAddress",
          "type": "address"
        }
      ],
      "name": "setOperatingStatus",
      "outputs": [],
      "stateMutability": "nonpayable",
      "type": "function"
    },
    {
      "inputs": [
        {
          "internalType": "address",
          "name": "_passenger",
          "type": "address"
        }
      ],
      "name": "getBalance",
      "outputs": [
        {
          "internalType": "uint256",
          "name": "",
          "type": "uint256"
        }
      ],
      "stateMutability": "view",
      "type": "function",
      "constant": true
    },
    {
      "inputs": [
        {
          "internalType": "address",
          "name": "appUserAddress",
          "type": "address"
        },
        {
          "internalType": "address",
          "name": "airlineAddress",
          "type": "address"
        },
        {
          "internalType": "string",
          "name": "name",
          "type": "string"
        }
      ],
      "name": "registerAirline",
      "outputs": [],
      "stateMutability": "nonpayable",
      "type": "function"
    },
    {
      "inputs": [
        {
          "internalType": "address",
          "name": "airlineCastedVoteFor",
          "type": "address"
        },
        {
          "internalType": "address",
          "name": "appUserAddress",
          "type": "address"
        }
      ],
      "name": "voteAirlineIn",
      "outputs": [],
      "stateMutability": "nonpayable",
      "type": "function"
    },
    {
      "inputs": [],
      "name": "resetAirlineVote",
      "outputs": [],
      "stateMutability": "nonpayable",
      "type": "function"
    },
    {
      "inputs": [
        {
          "internalType": "address",
          "name": "passengerAddress",
          "type": "address"
        },
        {
          "internalType": "bytes32",
          "name": "flightID",
          "type": "bytes32"
        },
        {
          "internalType": "uint256",
          "name": "addPayOutAmount",
          "type": "uint256"
        }
      ],
      "name": "buyInsurance",
      "outputs": [],
      "stateMutability": "payable",
      "type": "function",
      "payable": true
    },
    {
      "inputs": [
        {
          "internalType": "bytes32",
          "name": "flightID",
          "type": "bytes32"
        }
      ],
      "name": "creditInsurees",
      "outputs": [],
      "stateMutability": "nonpayable",
      "type": "function"
    },
    {
      "inputs": [
        {
          "internalType": "address payable",
          "name": "_passenger",
          "type": "address"
        }
      ],
      "name": "withdraw",
      "outputs": [],
      "stateMutability": "nonpayable",
      "type": "function"
    },
    {
      "inputs": [
        {
          "internalType": "address",
          "name": "airline",
          "type": "address"
        }
      ],
      "name": "fundAirline",
      "outputs": [],
      "stateMutability": "payable",
      "type": "function",
      "payable": true
    }
  ],
  "bytecode": "0x60806040526001600760006101000a81548160ff021916908315150217905550600067ffffffffffffffff8111156200003d576200003c620003c0565b5b6040519080825280602002602001820160405280156200006c5781602001602082028036833780820191505090505b50600890805190602001906200008492919062000312565b506000600955600067ffffffffffffffff811115620000a857620000a7620003c0565b5b604051908082528060200260200182016040528015620000d75781602001602082028036833780820191505090505b50600a9080519060200190620000ef92919062000312565b50348015620000fd57600080fd5b5033600560006101000a81548173ffffffffffffffffffffffffffffffffffffffff021916908373ffffffffffffffffffffffffffffffffffffffff1602179055506040518060400160405280601681526020017f436f6e7472616374206f776e65722041697277617973000000000000000000008152506000803373ffffffffffffffffffffffffffffffffffffffff1673ffffffffffffffffffffffffffffffffffffffff1681526020019081526020016000206000019081620001c491906200063a565b5060016000803373ffffffffffffffffffffffffffffffffffffffff1673ffffffffffffffffffffffffffffffffffffffff16815260200190815260200160002060010160006101000a81548160ff02191690831515021790555060016000803373ffffffffffffffffffffffffffffffffffffffff1673ffffffffffffffffffffffffffffffffffffffff16815260200190815260200160002060010160016101000a81548160ff02191690831515021790555060016000803373ffffffffffffffffffffffffffffffffffffffff1673ffffffffffffffffffffffffffffffffffffffff16815260200190815260200160002060020181905550600180819055506001600660003373ffffffffffffffffffffffffffffffffffffffff1673ffffffffffffffffffffffffffffffffffffffff1681526020019081526020016000208190555062000721565b8280548282559060005260206000209081019282156200038e579160200282015b828111156200038d5782518260006101000a81548173ffffffffffffffffffffffffffffffffffffffff021916908373ffffffffffffffffffffffffffffffffffffffff1602179055509160200191906001019062000333565b5b5090506200039d9190620003a1565b5090565b5b80821115620003bc576000816000905550600101620003a2565b5090565b7f4e487b7100000000000000000000000000000000000000000000000000000000600052604160045260246000fd5b600081519050919050565b7f4e487b7100000000000000000000000000000000000000000000000000000000600052602260045260246000fd5b600060028204905060018216806200044257607f821691505b602082108103620004585762000457620003fa565b5b50919050565b60008190508160005260206000209050919050565b60006020601f8301049050919050565b600082821b905092915050565b600060088302620004c27fffffffffffffffffffffffffffffffffffffffffffffffffffffffffffffffff8262000483565b620004ce868362000483565b95508019841693508086168417925050509392505050565b6000819050919050565b6000819050919050565b60006200051b620005156200050f84620004e6565b620004f0565b620004e6565b9050919050565b6000819050919050565b6200053783620004fa565b6200054f620005468262000522565b84845462000490565b825550505050565b600090565b6200056662000557565b620005738184846200052c565b505050565b5b818110156200059b576200058f6000826200055c565b60018101905062000579565b5050565b601f821115620005ea57620005b4816200045e565b620005bf8462000473565b81016020851015620005cf578190505b620005e7620005de8562000473565b83018262000578565b50505b505050565b600082821c905092915050565b60006200060f60001984600802620005ef565b1980831691505092915050565b60006200062a8383620005fc565b9150826002028217905092915050565b6200064582620003ef565b67ffffffffffffffff811115620006615762000660620003c0565b5b6200066d825462000429565b6200067a8282856200059f565b600060209050601f831160018114620006b257600084156200069d578287015190505b620006a985826200061c565b86555062000719565b601f198416620006c2866200045e565b60005b82811015620006ec57848901518255600182019150602085019450602081019050620006c5565b868310156200070c578489015162000708601f891682620005fc565b8355505b6001600288020188555050505b505050505050565b613bfc80620007316000396000f3fe6080604052600436106101025760003560e01c80636873c21d11610095578063cc2f6eba11610064578063cc2f6eba1461032d578063cd905dff14610356578063efefe15c14610381578063f3ba4e1b14610398578063f8b2cb4f146103d557610109565b80636873c21d146102825780636fbb8798146102ab57806380c575f0146102c7578063c590dda51461030457610109565b80633321a9c1116100d15780633321a9c1146101d757806348b219ea146102005780634f829e371461023d57806351cff8d91461025957610109565b806304016c281461010b5780630e248a11146101485780632c388d5d146101855780633010f50f146101ae57610109565b3661010957005b005b34801561011757600080fd5b50610132600480360381019061012d9190612855565b610412565b60405161013f91906128ca565b60405180910390f35b34801561015457600080fd5b5061016f600480360381019061016a91906128e5565b610483565b60405161017c919061292d565b60405180910390f35b34801561019157600080fd5b506101ac60048036038101906101a791906128e5565b6104e6565b005b3480156101ba57600080fd5b506101d560048036038101906101d091906129a8565b6105be565b005b3480156101e357600080fd5b506101fe60048036038101906101f99190612a1c565b6108f6565b005b34801561020c57600080fd5b50610227600480360381019061022291906128e5565b610d4d565b604051610234919061292d565b60405180910390f35b61025760048036038101906102529190612abe565b610e5b565b005b34801561026557600080fd5b50610280600480360381019061027b9190612b4f565b6110a9565b005b34801561028e57600080fd5b506102a960048036038101906102a491906128e5565b6113c1565b005b6102c560048036038101906102c091906128e5565b611497565b005b3480156102d357600080fd5b506102ee60048036038101906102e991906128e5565b611722565b6040516102fb919061292d565b60405180910390f35b34801561031057600080fd5b5061032b60048036038101906103269190612ba8565b6117fd565b005b34801561033957600080fd5b50610354600480360381019061034f9190612be8565b611b2d565b005b34801561036257600080fd5b5061036b611edc565b604051610378919061292d565b60405180910390f35b34801561038d57600080fd5b50610396611fb6565b005b3480156103a457600080fd5b506103bf60048036038101906103ba91906128e5565b612173565b6040516103cc919061292d565b60405180910390f35b3480156103e157600080fd5b506103fc60048036038101906103f791906128e5565b61224e565b60405161040991906128ca565b60405180910390f35b60008061041e8361229a565b90506000600360008673ffffffffffffffffffffffffffffffffffffffff1673ffffffffffffffffffffffffffffffffffffffff1681526020019081526020016000206000016000838152602001908152602001600020549050809250505092915050565b60008060008060008573ffffffffffffffffffffffffffffffffffffffff1673ffffffffffffffffffffffffffffffffffffffff16815260200190815260200160002060020154146104d857600190506104dd565b600090505b80915050919050565b600560009054906101000a900473ffffffffffffffffffffffffffffffffffffffff1673ffffffffffffffffffffffffffffffffffffffff163373ffffffffffffffffffffffffffffffffffffffff1614610576576040517f08c379a000000000000000000000000000000000000000000000000000000000815260040161056d90612c72565b60405180910390fd5b6001600660008373ffffffffffffffffffffffffffffffffffffffff1673ffffffffffffffffffffffffffffffffffffffff1681526020019081526020016000208190555050565b6001600660003373ffffffffffffffffffffffffffffffffffffffff1673ffffffffffffffffffffffffffffffffffffffff16815260200190815260200160002054146106203373ffffffffffffffffffffffffffffffffffffffff166122ca565b6040516020016106309190612d75565b60405160208183030381529060405290610680576040517f08c379a00000000000000000000000000000000000000000000000000000000081526004016106779190612dd0565b60405180910390fd5b50600060095414806106955750600360015411155b6106d4576040517f08c379a00000000000000000000000000000000000000000000000000000000081526004016106cb90612e8a565b60405180910390fd5b6106e9600180546122e890919063ffffffff16565b6001819055506001546000808573ffffffffffffffffffffffffffffffffffffffff1673ffffffffffffffffffffffffffffffffffffffff1681526020019081526020016000206002018190555081816000808673ffffffffffffffffffffffffffffffffffffffff1673ffffffffffffffffffffffffffffffffffffffff16815260200190815260200160002060000191826107879291906130c1565b5060008060008573ffffffffffffffffffffffffffffffffffffffff1673ffffffffffffffffffffffffffffffffffffffff16815260200190815260200160002060010160006101000a81548160ff02191690831515021790555060046001541161084b5760016000808573ffffffffffffffffffffffffffffffffffffffff1673ffffffffffffffffffffffffffffffffffffffff16815260200190815260200160002060010160016101000a81548160ff0219169083151502179055506108af565b60008060008573ffffffffffffffffffffffffffffffffffffffff1673ffffffffffffffffffffffffffffffffffffffff16815260200190815260200160002060010160016101000a81548160ff0219169083151502179055506001546009819055505b7f7c81f79eab4627deb57aacf469e9eebbf5fe2c5f3c0043604d706bfa31b5e682848484846001546040516108e89594939291906131cd565b60405180910390a150505050565b6001600660003373ffffffffffffffffffffffffffffffffffffffff1673ffffffffffffffffffffffffffffffffffffffff16815260200190815260200160002054146109583373ffffffffffffffffffffffffffffffffffffffff166122ca565b6040516020016109689190612d75565b604051602081830303815290604052906109b8576040517f08c379a00000000000000000000000000000000000000000000000000000000081526004016109af9190612dd0565b60405180910390fd5b506109c281610d4d565b610a01576040517f08c379a00000000000000000000000000000000000000000000000000000000081526004016109f89061328d565b60405180910390fd5b6009546000808473ffffffffffffffffffffffffffffffffffffffff1673ffffffffffffffffffffffffffffffffffffffff1681526020019081526020016000206002015414610a86576040517f08c379a0000000000000000000000000000000000000000000000000000000008152600401610a7d9061331f565b60405180910390fd5b6000805b600a80549050811015610b24578273ffffffffffffffffffffffffffffffffffffffff16600a8281548110610ac257610ac161333f565b5b9060005260206000200160009054906101000a900473ffffffffffffffffffffffffffffffffffffffff1673ffffffffffffffffffffffffffffffffffffffff1603610b115760019150610b24565b8080610b1c9061339d565b915050610a8a565b508015610b66576040517f08c379a0000000000000000000000000000000000000000000000000000000008152600401610b5d90613457565b60405180910390fd5b600a829080600181540180825580915050600190039060005260206000200160009091909190916101000a81548173ffffffffffffffffffffffffffffffffffffffff021916908373ffffffffffffffffffffffffffffffffffffffff1602179055506000610bf36002610be5600180546122fe90919063ffffffff16565b61231490919063ffffffff16565b905080600a8054905010610d085760016000808673ffffffffffffffffffffffffffffffffffffffff1673ffffffffffffffffffffffffffffffffffffffff16815260200190815260200160002060010160016101000a81548160ff0219169083151502179055507faa4890b939dba4137ffd9f92ea70f2188df55db0adacd19e1f6f432738ebfedb600a805490508286604051610c9393929190613477565b60405180910390a16000600981905550600067ffffffffffffffff811115610cbe57610cbd61272a565b5b604051908082528060200260200182016040528015610cec5781602001602082028036833780820191505090505b50600a9080519060200190610d029291906125f6565b50610d47565b7f51f47c86b6e0d6597c0bf7f828aeb805bf37e26b99d4a43d1061706ddce66358600a8054905085604051610d3e9291906134ae565b60405180910390a15b50505050565b6000806000905060008060008573ffffffffffffffffffffffffffffffffffffffff1673ffffffffffffffffffffffffffffffffffffffff1681526020019081526020016000206002015414158015610df157506000808473ffffffffffffffffffffffffffffffffffffffff1673ffffffffffffffffffffffffffffffffffffffff16815260200190815260200160002060010160009054906101000a900460ff165b8015610e4857506000808473ffffffffffffffffffffffffffffffffffffffff1673ffffffffffffffffffffffffffffffffffffffff16815260200190815260200160002060010160019054906101000a900460ff165b15610e5257600190505b80915050919050565b6001600660003373ffffffffffffffffffffffffffffffffffffffff1673ffffffffffffffffffffffffffffffffffffffff1681526020019081526020016000205414610ebd3373ffffffffffffffffffffffffffffffffffffffff166122ca565b604051602001610ecd9190612d75565b60405160208183030381529060405290610f1d576040517f08c379a0000000000000000000000000000000000000000000000000000000008152600401610f149190612dd0565b60405180910390fd5b50600760009054906101000a900460ff16610f6d576040517f08c379a0000000000000000000000000000000000000000000000000000000008152600401610f6490613549565b60405180910390fd5b6000600360008573ffffffffffffffffffffffffffffffffffffffff1673ffffffffffffffffffffffffffffffffffffffff1681526020019081526020016000206000016000848152602001908152602001600020549050610fd882826122e890919063ffffffff16565b600360008673ffffffffffffffffffffffffffffffffffffffff1673ffffffffffffffffffffffffffffffffffffffff16815260200190815260200160002060000160008581526020019081526020016000208190555060026000848152602001908152602001600020849080600181540180825580915050600190039060005260206000200160009091909190916101000a81548173ffffffffffffffffffffffffffffffffffffffff021916908373ffffffffffffffffffffffffffffffffffffffff16021790555050505050565b600760009054906101000a900460ff166110f8576040517f08c379a00000000000000000000000000000000000000000000000000000000081526004016110ef90613549565b60405180910390fd5b6001600660003373ffffffffffffffffffffffffffffffffffffffff1673ffffffffffffffffffffffffffffffffffffffff168152602001908152602001600020541461115a3373ffffffffffffffffffffffffffffffffffffffff166122ca565b60405160200161116a9190612d75565b604051602081830303815290604052906111ba576040517f08c379a00000000000000000000000000000000000000000000000000000000081526004016111b19190612dd0565b60405180910390fd5b503273ffffffffffffffffffffffffffffffffffffffff168173ffffffffffffffffffffffffffffffffffffffff1614611229576040517f08c379a0000000000000000000000000000000000000000000000000000000008152600401611220906135db565b60405180910390fd5b6000600360008373ffffffffffffffffffffffffffffffffffffffff1673ffffffffffffffffffffffffffffffffffffffff16815260200190815260200160002060010154116112ae576040517f08c379a00000000000000000000000000000000000000000000000000000000081526004016112a59061366d565b60405180910390fd5b6000600360008373ffffffffffffffffffffffffffffffffffffffff1673ffffffffffffffffffffffffffffffffffffffff1681526020019081526020016000206001015490506000600360008473ffffffffffffffffffffffffffffffffffffffff1673ffffffffffffffffffffffffffffffffffffffff168152602001908152602001600020600101819055508173ffffffffffffffffffffffffffffffffffffffff166108fc829081150290604051600060405180830381858888f19350505050158015611383573d6000803e3d6000fd5b507f1b9cd3bbbcfc1d27b9489faa85210e6851947796baaf2dfb6d049a9eedcdb3b782826040516113b59291906136e2565b60405180910390a15050565b600560009054906101000a900473ffffffffffffffffffffffffffffffffffffffff1673ffffffffffffffffffffffffffffffffffffffff163373ffffffffffffffffffffffffffffffffffffffff1614611451576040517f08c379a000000000000000000000000000000000000000000000000000000000815260040161144890612c72565b60405180910390fd5b600660008273ffffffffffffffffffffffffffffffffffffffff1673ffffffffffffffffffffffffffffffffffffffff1681526020019081526020016000206000905550565b6001600660003373ffffffffffffffffffffffffffffffffffffffff1673ffffffffffffffffffffffffffffffffffffffff16815260200190815260200160002054146114f93373ffffffffffffffffffffffffffffffffffffffff166122ca565b6040516020016115099190612d75565b60405160208183030381529060405290611559576040517f08c379a00000000000000000000000000000000000000000000000000000000081526004016115509190612dd0565b60405180910390fd5b50600760009054906101000a900460ff166115a9576040517f08c379a00000000000000000000000000000000000000000000000000000000081526004016115a090613549565b60405180910390fd5b60008060008373ffffffffffffffffffffffffffffffffffffffff1673ffffffffffffffffffffffffffffffffffffffff168152602001908152602001600020600201540361162d576040517f08c379a00000000000000000000000000000000000000000000000000000000081526004016116249061377d565b60405180910390fd5b60016000808373ffffffffffffffffffffffffffffffffffffffff1673ffffffffffffffffffffffffffffffffffffffff16815260200190815260200160002060010160006101000a81548160ff02191690831515021790556116c5576040517f08c379a00000000000000000000000000000000000000000000000000000000081526004016116bc906137e9565b60405180910390fd5b60016000808373ffffffffffffffffffffffffffffffffffffffff1673ffffffffffffffffffffffffffffffffffffffff16815260200190815260200160002060010160006101000a81548160ff02191690831515021790555050565b6000806000808473ffffffffffffffffffffffffffffffffffffffff1673ffffffffffffffffffffffffffffffffffffffff16815260200190815260200160002060020154036117a7576040517f08c379a000000000000000000000000000000000000000000000000000000000815260040161179e90613855565b60405180910390fd5b6000808373ffffffffffffffffffffffffffffffffffffffff1673ffffffffffffffffffffffffffffffffffffffff16815260200190815260200160002060010160019054906101000a900460ff169050919050565b6001600660003373ffffffffffffffffffffffffffffffffffffffff1673ffffffffffffffffffffffffffffffffffffffff168152602001908152602001600020541461185f3373ffffffffffffffffffffffffffffffffffffffff166122ca565b60405160200161186f9190612d75565b604051602081830303815290604052906118bf576040517f08c379a00000000000000000000000000000000000000000000000000000000081526004016118b69190612dd0565b60405180910390fd5b506118c981610d4d565b611908576040517f08c379a00000000000000000000000000000000000000000000000000000000081526004016118ff9061328d565b60405180910390fd5b600760009054906101000a900460ff1615158215150361195d576040517f08c379a0000000000000000000000000000000000000000000000000000000008152600401611954906138e7565b60405180910390fd5b6000805b6008805490508110156119fb578273ffffffffffffffffffffffffffffffffffffffff16600882815481106119995761199861333f565b5b9060005260206000200160009054906101000a900473ffffffffffffffffffffffffffffffffffffffff1673ffffffffffffffffffffffffffffffffffffffff16036119e857600191506119fb565b80806119f39061339d565b915050611961565b508015611a3d576040517f08c379a0000000000000000000000000000000000000000000000000000000008152600401611a3490613457565b60405180910390fd5b6008829080600181540180825580915050600190039060005260206000200160009091909190916101000a81548173ffffffffffffffffffffffffffffffffffffffff021916908373ffffffffffffffffffffffffffffffffffffffff160217905550600260088054905010611b285782600760006101000a81548160ff021916908315150217905550600067ffffffffffffffff811115611ae257611ae161272a565b5b604051908082528060200260200182016040528015611b105781602001602082028036833780820191505090505b5060089080519060200190611b269291906125f6565b505b505050565b6001600660003373ffffffffffffffffffffffffffffffffffffffff1673ffffffffffffffffffffffffffffffffffffffff1681526020019081526020016000205414611b8f3373ffffffffffffffffffffffffffffffffffffffff166122ca565b604051602001611b9f9190612d75565b60405160208183030381529060405290611bef576040517f08c379a0000000000000000000000000000000000000000000000000000000008152600401611be69190612dd0565b60405180910390fd5b50600760009054906101000a900460ff16611c3f576040517f08c379a0000000000000000000000000000000000000000000000000000000008152600401611c3690613549565b60405180910390fd5b600060026000838152602001908152602001600020805480602002602001604051908101604052809291908181526020018280548015611cd457602002820191906000526020600020905b8160009054906101000a900473ffffffffffffffffffffffffffffffffffffffff1673ffffffffffffffffffffffffffffffffffffffff1681526020019060010190808311611c8a575b505050505090507ffe9b576c07e4e37458707f428b6798836f6c9c37b0c2f39d5be8c9b1b7f1205a81604051611d0a91906139c5565b60405180910390a160005b8151811015611ed7576000828281518110611d3357611d3261333f565b5b602002602001015190506000600360008373ffffffffffffffffffffffffffffffffffffffff1673ffffffffffffffffffffffffffffffffffffffff16815260200190815260200160002060000160008681526020019081526020016000205490506000600360008473ffffffffffffffffffffffffffffffffffffffff1673ffffffffffffffffffffffffffffffffffffffff168152602001908152602001600020600001600087815260200190815260200160002081905550611e4381600360008573ffffffffffffffffffffffffffffffffffffffff1673ffffffffffffffffffffffffffffffffffffffff168152602001908152602001600020600101546122e890919063ffffffff16565b600360008473ffffffffffffffffffffffffffffffffffffffff1673ffffffffffffffffffffffffffffffffffffffff168152602001908152602001600020600101819055507f64caef992448a6069e07b26cd29ec4b6242e756924391d666b5b329b2ab305098282604051611eba9291906139e7565b60405180910390a150508080611ecf9061339d565b915050611d15565b505050565b60006001600660003373ffffffffffffffffffffffffffffffffffffffff1673ffffffffffffffffffffffffffffffffffffffff1681526020019081526020016000205414611f403373ffffffffffffffffffffffffffffffffffffffff166122ca565b604051602001611f509190612d75565b60405160208183030381529060405290611fa0576040517f08c379a0000000000000000000000000000000000000000000000000000000008152600401611f979190612dd0565b60405180910390fd5b50600760009054906101000a900460ff16905090565b6001600660003373ffffffffffffffffffffffffffffffffffffffff1673ffffffffffffffffffffffffffffffffffffffff16815260200190815260200160002054146120183373ffffffffffffffffffffffffffffffffffffffff166122ca565b6040516020016120289190612d75565b60405160208183030381529060405290612078576040517f08c379a000000000000000000000000000000000000000000000000000000000815260040161206f9190612dd0565b60405180910390fd5b50600560009054906101000a900473ffffffffffffffffffffffffffffffffffffffff1673ffffffffffffffffffffffffffffffffffffffff163373ffffffffffffffffffffffffffffffffffffffff1614612109576040517f08c379a000000000000000000000000000000000000000000000000000000000815260040161210090612c72565b60405180910390fd5b6000600981905550600067ffffffffffffffff81111561212c5761212b61272a565b5b60405190808252806020026020018201604052801561215a5781602001602082028036833780820191505090505b50600a90805190602001906121709291906125f6565b50565b6000806000808473ffffffffffffffffffffffffffffffffffffffff1673ffffffffffffffffffffffffffffffffffffffff16815260200190815260200160002060020154036121f8576040517f08c379a00000000000000000000000000000000000000000000000000000000081526004016121ef90613855565b60405180910390fd5b6000808373ffffffffffffffffffffffffffffffffffffffff1673ffffffffffffffffffffffffffffffffffffffff16815260200190815260200160002060010160009054906101000a900460ff169050919050565b6000600360008373ffffffffffffffffffffffffffffffffffffffff1673ffffffffffffffffffffffffffffffffffffffff168152602001908152602001600020600101549050919050565b6000816040516020016122ad9190613a10565b604051602081830303815290604052805190602001209050919050565b60606122e18260016122db8561232a565b016123ba565b9050919050565b600081836122f69190613a27565b905092915050565b6000818361230c9190613a5b565b905092915050565b600081836123229190613abe565b905092915050565b600080600090506000608084901c111561234c57608083901c92506010810190505b6000604084901c111561236757604083901c92506008810190505b6000602084901c111561238257602083901c92506004810190505b6000601084901c111561239d57601083901c92506002810190505b6000600884901c11156123b1576001810190505b80915050919050565b6060600060028360026123cd9190613aef565b6123d79190613a27565b67ffffffffffffffff8111156123f0576123ef61272a565b5b6040519080825280601f01601f1916602001820160405280156124225781602001600182028036833780820191505090505b5090507f30000000000000000000000000000000000000000000000000000000000000008160008151811061245a5761245961333f565b5b60200101907effffffffffffffffffffffffffffffffffffffffffffffffffffffffffffff1916908160001a9053507f7800000000000000000000000000000000000000000000000000000000000000816001815181106124be576124bd61333f565b5b60200101907effffffffffffffffffffffffffffffffffffffffffffffffffffffffffffff1916908160001a905350600060018460026124fe9190613aef565b6125089190613a27565b90505b60018111156125a8577f3031323334353637383961626364656600000000000000000000000000000000600f86166010811061254a5761254961333f565b5b1a60f81b8282815181106125615761256061333f565b5b60200101907effffffffffffffffffffffffffffffffffffffffffffffffffffffffffffff1916908160001a905350600485901c9450806125a190613b31565b905061250b565b50600084146125ec576040517f08c379a00000000000000000000000000000000000000000000000000000000081526004016125e390613ba6565b60405180910390fd5b8091505092915050565b82805482825590600052602060002090810192821561266f579160200282015b8281111561266e5782518260006101000a81548173ffffffffffffffffffffffffffffffffffffffff021916908373ffffffffffffffffffffffffffffffffffffffff16021790555091602001919060010190612616565b5b50905061267c9190612680565b5090565b5b80821115612699576000816000905550600101612681565b5090565b6000604051905090565b600080fd5b600080fd5b600073ffffffffffffffffffffffffffffffffffffffff82169050919050565b60006126dc826126b1565b9050919050565b6126ec816126d1565b81146126f757600080fd5b50565b600081359050612709816126e3565b92915050565b600080fd5b600080fd5b6000601f19601f8301169050919050565b7f4e487b7100000000000000000000000000000000000000000000000000000000600052604160045260246000fd5b61276282612719565b810181811067ffffffffffffffff821117156127815761278061272a565b5b80604052505050565b600061279461269d565b90506127a08282612759565b919050565b600067ffffffffffffffff8211156127c0576127bf61272a565b5b6127c982612719565b9050602081019050919050565b82818337600083830152505050565b60006127f86127f3846127a5565b61278a565b90508281526020810184848401111561281457612813612714565b5b61281f8482856127d6565b509392505050565b600082601f83011261283c5761283b61270f565b5b813561284c8482602086016127e5565b91505092915050565b6000806040838503121561286c5761286b6126a7565b5b600061287a858286016126fa565b925050602083013567ffffffffffffffff81111561289b5761289a6126ac565b5b6128a785828601612827565b9150509250929050565b6000819050919050565b6128c4816128b1565b82525050565b60006020820190506128df60008301846128bb565b92915050565b6000602082840312156128fb576128fa6126a7565b5b6000612909848285016126fa565b91505092915050565b60008115159050919050565b61292781612912565b82525050565b6000602082019050612942600083018461291e565b92915050565b600080fd5b600080fd5b60008083601f8401126129685761296761270f565b5b8235905067ffffffffffffffff81111561298557612984612948565b5b6020830191508360018202830111156129a1576129a061294d565b5b9250929050565b600080600080606085870312156129c2576129c16126a7565b5b60006129d0878288016126fa565b94505060206129e1878288016126fa565b935050604085013567ffffffffffffffff811115612a0257612a016126ac565b5b612a0e87828801612952565b925092505092959194509250565b60008060408385031215612a3357612a326126a7565b5b6000612a41858286016126fa565b9250506020612a52858286016126fa565b9150509250929050565b6000819050919050565b612a6f81612a5c565b8114612a7a57600080fd5b50565b600081359050612a8c81612a66565b92915050565b612a9b816128b1565b8114612aa657600080fd5b50565b600081359050612ab881612a92565b92915050565b600080600060608486031215612ad757612ad66126a7565b5b6000612ae5868287016126fa565b9350506020612af686828701612a7d565b9250506040612b0786828701612aa9565b9150509250925092565b6000612b1c826126b1565b9050919050565b612b2c81612b11565b8114612b3757600080fd5b50565b600081359050612b4981612b23565b92915050565b600060208284031215612b6557612b646126a7565b5b6000612b7384828501612b3a565b91505092915050565b612b8581612912565b8114612b9057600080fd5b50565b600081359050612ba281612b7c565b92915050565b60008060408385031215612bbf57612bbe6126a7565b5b6000612bcd85828601612b93565b9250506020612bde858286016126fa565b9150509250929050565b600060208284031215612bfe57612bfd6126a7565b5b6000612c0c84828501612a7d565b91505092915050565b600082825260208201905092915050565b7f43616c6c6572206973206e6f7420636f6e7472616374206f776e657200000000600082015250565b6000612c5c601c83612c15565b9150612c6782612c26565b602082019050919050565b60006020820190508181036000830152612c8b81612c4f565b9050919050565b600081905092915050565b7f43616c6c6572206973206e6f7420617574686f72697a656420636f6e7472616360008201527f7400000000000000000000000000000000000000000000000000000000000000602082015250565b6000612cf9602183612c92565b9150612d0482612c9d565b602182019050919050565b600081519050919050565b60005b83811015612d38578082015181840152602081019050612d1d565b60008484015250505050565b6000612d4f82612d0f565b612d598185612c92565b9350612d69818560208601612d1a565b80840191505092915050565b6000612d8082612cec565b9150612d8c8284612d44565b915081905092915050565b6000612da282612d0f565b612dac8185612c15565b9350612dbc818560208601612d1a565b612dc581612719565b840191505092915050565b60006020820190508181036000830152612dea8184612d97565b905092915050565b7f54686572652069732063757272656e746c7920616e20756e66696e697368656460008201527f20726567697374726174696f6e2070726f6365737320676f696e67206f6e2e2060208201527f506c656173652066696e69736820746861742066697273740000000000000000604082015250565b6000612e74605883612c15565b9150612e7f82612df2565b606082019050919050565b60006020820190508181036000830152612ea381612e67565b9050919050565b600082905092915050565b7f4e487b7100000000000000000000000000000000000000000000000000000000600052602260045260246000fd5b60006002820490506001821680612efc57607f821691505b602082108103612f0f57612f0e612eb5565b5b50919050565b60008190508160005260206000209050919050565b60006020601f8301049050919050565b600082821b905092915050565b600060088302612f777fffffffffffffffffffffffffffffffffffffffffffffffffffffffffffffffff82612f3a565b612f818683612f3a565b95508019841693508086168417925050509392505050565b6000819050919050565b6000612fbe612fb9612fb4846128b1565b612f99565b6128b1565b9050919050565b6000819050919050565b612fd883612fa3565b612fec612fe482612fc5565b848454612f47565b825550505050565b600090565b613001612ff4565b61300c818484612fcf565b505050565b5b8181101561303057613025600082612ff9565b600181019050613012565b5050565b601f8211156130755761304681612f15565b61304f84612f2a565b8101602085101561305e578190505b61307261306a85612f2a565b830182613011565b50505b505050565b600082821c905092915050565b60006130986000198460080261307a565b1980831691505092915050565b60006130b18383613087565b9150826002028217905092915050565b6130cb8383612eaa565b67ffffffffffffffff8111156130e4576130e361272a565b5b6130ee8254612ee4565b6130f9828285613034565b6000601f8311600181146131285760008415613116578287013590505b61312085826130a5565b865550613188565b601f19841661313686612f15565b60005b8281101561315e57848901358255600182019150602085019450602081019050613139565b8683101561317b5784890135613177601f891682613087565b8355505b6001600288020188555050505b50505050505050565b61319a816126d1565b82525050565b60006131ac8385612c15565b93506131b98385846127d6565b6131c283612719565b840190509392505050565b60006080820190506131e26000830188613191565b6131ef6020830187613191565b81810360408301526132028185876131a0565b905061321160608301846128bb565b9695505050505050565b7f43616c6c6572206973206e6f742066756e64656420616e64207265676973746560008201527f726564206169726c696e65000000000000000000000000000000000000000000602082015250565b6000613277602b83612c15565b91506132828261321b565b604082019050919050565b600060208201905081810360008301526132a68161326a565b9050919050565b7f566f74652063617374656420666f72207468652077726f6e67206169726c696e60008201527f6500000000000000000000000000000000000000000000000000000000000000602082015250565b6000613309602183612c15565b9150613314826132ad565b604082019050919050565b60006020820190508181036000830152613338816132fc565b9050919050565b7f4e487b7100000000000000000000000000000000000000000000000000000000600052603260045260246000fd5b7f4e487b7100000000000000000000000000000000000000000000000000000000600052601160045260246000fd5b60006133a8826128b1565b91507fffffffffffffffffffffffffffffffffffffffffffffffffffffffffffffffff82036133da576133d961336e565b5b600182019050919050565b7f43616c6c65722068617320616c72656164792063616c6c65642074686973206660008201527f756e6374696f6e2e000000000000000000000000000000000000000000000000602082015250565b6000613441602883612c15565b915061344c826133e5565b604082019050919050565b6000602082019050818103600083015261347081613434565b9050919050565b600060608201905061348c60008301866128bb565b61349960208301856128bb565b6134a66040830184613191565b949350505050565b60006040820190506134c360008301856128bb565b6134d06020830184613191565b9392505050565b7f436f6e74726163742069732063757272656e746c79206e6f74206f706572617460008201527f696f6e616c000000000000000000000000000000000000000000000000000000602082015250565b6000613533602583612c15565b915061353e826134d7565b604082019050919050565b6000602082019050818103600083015261356281613526565b9050919050565b7f57697468647261772072657175657374206d757374206f726967696e6174652060008201527f66726f6d2070617373656e67657220697473656c662e00000000000000000000602082015250565b60006135c5603683612c15565b91506135d082613569565b604082019050919050565b600060208201905081810360008301526135f4816135b8565b9050919050565b7f4e6f20706179206f757420616d6f756e747320616c6c6f636174656420746f2060008201527f70617373656e6765722e00000000000000000000000000000000000000000000602082015250565b6000613657602a83612c15565b9150613662826135fb565b604082019050919050565b600060208201905081810360008301526136868161364a565b9050919050565b60006136a86136a361369e846126b1565b612f99565b6126b1565b9050919050565b60006136ba8261368d565b9050919050565b60006136cc826136af565b9050919050565b6136dc816136c1565b82525050565b60006040820190506136f760008301856136d3565b61370460208301846128bb565b9392505050565b7f4e6f206461746120666f722074686973206169726c696e65207965742e20506c60008201527f65617365207265676973746572206169726c696e652066697273742e00000000602082015250565b6000613767603c83612c15565b91506137728261370b565b604082019050919050565b600060208201905081810360008301526137968161375a565b9050919050565b7f6169726c696e6520697320616c72656164792066756c6c792066756e6465642e600082015250565b60006137d3602083612c15565b91506137de8261379d565b602082019050919050565b60006020820190508181036000830152613802816137c6565b9050919050565b7f4169726c696e65206e6f7420696e2064617461207365742e0000000000000000600082015250565b600061383f601883612c15565b915061384a82613809565b602082019050919050565b6000602082019050818103600083015261386e81613832565b9050919050565b7f4e6577206d6f6465206d75737420626520646966666572656e742066726f6d2060008201527f6578697374696e67206d6f646500000000000000000000000000000000000000602082015250565b60006138d1602d83612c15565b91506138dc82613875565b604082019050919050565b60006020820190508181036000830152613900816138c4565b9050919050565b600081519050919050565b600082825260208201905092915050565b6000819050602082019050919050565b61393c816126d1565b82525050565b600061394e8383613933565b60208301905092915050565b6000602082019050919050565b600061397282613907565b61397c8185613912565b935061398783613923565b8060005b838110156139b857815161399f8882613942565b97506139aa8361395a565b92505060018101905061398b565b5085935050505092915050565b600060208201905081810360008301526139df8184613967565b905092915050565b60006040820190506139fc6000830185613191565b613a0960208301846128bb565b9392505050565b6000613a1c8284612d44565b915081905092915050565b6000613a32826128b1565b9150613a3d836128b1565b9250828201905080821115613a5557613a5461336e565b5b92915050565b6000613a66826128b1565b9150613a71836128b1565b9250828203905081811115613a8957613a8861336e565b5b92915050565b7f4e487b7100000000000000000000000000000000000000000000000000000000600052601260045260246000fd5b6000613ac9826128b1565b9150613ad4836128b1565b925082613ae457613ae3613a8f565b5b828204905092915050565b6000613afa826128b1565b9150613b05836128b1565b9250828202613b13816128b1565b91508282048414831517613b2a57613b2961336e565b5b5092915050565b6000613b3c826128b1565b915060008203613b4f57613b4e61336e565b5b600182039050919050565b7f537472696e67733a20686578206c656e67746820696e73756666696369656e74600082015250565b6000613b90602083612c15565b9150613b9b82613b5a565b602082019050919050565b60006020820190508181036000830152613bbf81613b83565b905091905056fea26469706673582212208cb7a2be2c5ea24afe0a9f297124c2f6bdd85e443848d735a89b1c8d78c01fc364736f6c63430008130033",
  "immutableReferences": {},
  "source": "pragma solidity ^0.8.17; //>=0.4.25;\n\n//import \"../node_modules/openzeppelin-solidity/contracts/math/SafeMath.sol\";\nimport \"@openzeppelin/contracts/utils/math/SafeMath.sol\";\nimport \"@openzeppelin/contracts/utils/Strings.sol\";\n\ncontract FlightSuretyData {\n    using SafeMath for uint256;\n\n    /********************************************************************************************/\n    /*                                       DATA VARIABLES                                     */\n    /********************************************************************************************/\n\n    struct airlineStructType {                                          //struc for airlines\n        string name;                \n        bool isFunded;                                                          // funded\n        bool isAccepted;                                                        // accepted to be airline\n        uint256 ID;                                                             // ID to identify airline\n    }\n\n    mapping(address => airlineStructType) private airlines;\n\n    uint256 airlineCount;\n    \n    // struct insuranceStructType {            //Only index flight - insurees to loop through\n    //     // address passengerAddress;\n    //     //uint256 paidIn;\n    //     address insuree;\n    //     uint256 payOutAmount\n    //     bool alreadCredited;\n    // }\n\n    mapping(bytes32 => address[]) private insureesPerFlight;       //bytes32 maps/refers to id of flight, address[] array of passengers that have insurance for that flight  \n    //mapping(bytes32 => address) private insurances;       //bytes32 maps/refers to id of flight\n\n    // mapping(bytes32 => passengerStrucType) private insurances;     //byes32 maps/refers to id of flight\n\n    struct passengerStructType{\n        mapping (bytes32 => uint256) payOutAmount;          //byes32 maps/refers to id of flightID\n        uint256 credit;\n    }\n    mapping(address => passengerStructType) private passengers;                 \n\n    struct flightStructType {\n        uint8 statusCode;\n        uint256 timeStamp;     \n    }\n\n    mapping (bytes32 => flightStructType) private flights;     //byes32 maps/refers to id of flightID\n    \n    address private contractOwner;                                      // Account used to deploy contract\n    \n    mapping (address => uint256) authorizedContracts;                   // App contracts that are allowed by owner to call this data contract\n\n    bool private operational = true;                                    // Blocks all state changes throughout the contract if false\n\n    uint constant M=2;                                                  //Defines number of votes needed set operational status\n    address[] multiCalls = new address[](0);                           //array to identify whether address already voted for setOperational() status\n\n    uint256 airlineToVoteFor = 0;                                       // Which airline is currently voted to be registered - referring to airlineStructType.ID\n    address[] multiCallsAirlineVote = new address[](0);                 //array to identify whether address already voted for voteAirlineIn() status\n\n\n\n    /********************************************************************************************/\n    /*                                       EVENT DEFINITIONS                                  */\n    /********************************************************************************************/\n    event AirlineRegistered(address appUserAddress, address airlineAddress, string name, uint256 airlineCount);\n    event AirlineVoteCasted(uint256 voteNumber, address airlineToVoteFor);\n    event SuccessfulAirlineVoteCasted(uint256 voteNumber, uint256 voteHurdle, address airlineToVoteFor);\n    event CreditPaidOut(address _passenger, uint256 creditPaidOut);\n    event PayOutCredited(address _insuree, uint256 payOutAmount);\n    event FlightProcessed(string flight, uint8 statusCode);\n    event InsureesToFund(address[] insurees);\n     \n\n    /**\n    * @dev Constructor\n    *      The deploying account becomes contractOwner\n    */\n    constructor\n                                (\n                                ) \n                                public \n    {\n        contractOwner = msg.sender;\n        //Contract owner is automtically registered as \n        airlines[msg.sender].name = \"Contract owner Airways\";\n        airlines[msg.sender].isFunded = true;\n        airlines[msg.sender].isAccepted = true;\n        airlines[msg.sender].ID=1;\n\n        //Set airline count for airlines[].ID setting\n        airlineCount = 1;\n\n        authorizedContracts[msg.sender] = 1;\n    }\n\n    /********************************************************************************************/\n    /*                                       FUNCTION MODIFIERS                                 */\n    /********************************************************************************************/\n\n    // Modifiers help avoid duplication of code. They are typically used to validate something\n    // before a function is allowed to be executed.\n\n    /**\n    * @dev Modifier that requires the \"operational\" boolean variable to be \"true\"\n    *      This is used on all state changing functions to pause the contract in \n    *      the event there is an issue that needs to be fixed\n    */\n    modifier requireIsOperational() \n    {\n        require(operational, \"Contract is currently not operational\");\n        _;  // All modifiers require an \"_\" which indicates where the function body will be added\n    }\n\n    /**\n    * @dev Modifier that requires the \"ContractOwner\" account to be the function caller\n    */\n    modifier requireContractOwner()\n    {\n        require(msg.sender == contractOwner, \"Caller is not contract owner\");\n        _;\n    }\n\n    modifier requireCallerAuthorized()\n    {\n        require(authorizedContracts[msg.sender] == 1, string.concat(\"Caller is not authorized contract\",Strings.toHexString(uint160(msg.sender))));\n        _;\n    }\n    /**\n    * @dev Modifier that requires caller to be airline\n    *      \n    */\n\n    function isAirline(address _address) external view returns(bool)\n    {\n        bool _isAirline;\n        if (airlines[_address].ID != 0) {\n            _isAirline = true;\n        }  else {\n            _isAirline = false;\n        }\n        return(_isAirline);\n\n    }\n\n    /**\n    * @dev Modifier that requires caller to be airline that can be\n    *      Voting requires funding and being accepted by other airlines\n    */\n    function isVotingAirline(address _address) public view returns(bool)\n    {\n        bool _isVotingAirline; \n        _isVotingAirline = false;\n        if (        (airlines[_address].ID != 0) && \n                    (airlines[_address].isFunded) && \n                    (airlines[_address].isAccepted)) {\n                      _isVotingAirline = true;  \n                    }\n        return(_isVotingAirline);  \n    }\n\n        /**\n    * @dev Function to retrieve airlinedata \n    *      \n    */\n    function isFundedAirline(address _address) public view returns(bool)\n    {\n        require(airlines[_address].ID != 0, \"Airline not in data set.\");\n        return(airlines[_address].isFunded);  \n    }\n    function isAcceptedAirline(address _address) public view returns(bool)\n    {\n        require(airlines[_address].ID != 0, \"Airline not in data set.\");\n        return(airlines[_address].isAccepted);  \n    }\n\n\n    function getPayOutAmount(address passengerAddress, string memory flightName) public view returns(uint256)\n    {\n        bytes32 flightID = getFlightID(flightName);\n        uint256 _payOutAmount = passengers[passengerAddress].payOutAmount[flightID];\n        return(_payOutAmount);\n    }\n\n    /********************************************************************************************/\n    /*                                 REFERENCE DATA APP CONTRACT  FUNCTIONS                   */\n    /********************************************************************************************/\n     \n    function authorizeCaller(address appContract) \n                                                    public \n                                                    requireContractOwner \n    {\n        authorizedContracts[appContract] = 1;\n    } \n\n    function deauthorizeCaller(address appContract) \n                                                    public \n                                                    requireContractOwner {\n        delete authorizedContracts[appContract];\n    } \n    /********************************************************************************************/\n    /*                                       UTILITY FUNCTIONS                                  */\n    /********************************************************************************************/\n\n    /**\n    * @dev Get operating status of contract\n    *\n    * @return A bool that is the current operating status\n    */      \n    function isOperational() \n                            public \n                            view \n                            requireCallerAuthorized\n                            returns(bool) \n\n    {\n        return operational;\n    }\n\n\n    /**\n    * @dev Sets contract operations on/off\n    *\n    * When operational mode is disabled, all write transactions except for this one will fail\n    */    \n    function setOperatingStatus\n                            (\n                                bool mode,\n                                address appUserAddress\n                            ) \n                            external\n                            requireCallerAuthorized                         \n    {\n\n        require(isVotingAirline(appUserAddress), \"Caller is not funded and registered airline\");\n        require(mode != operational, \"New mode must be different from existing mode\");\n        bool isDuplicate = false;\n        for(uint c=0; c<multiCalls.length; c++) {\n            if (multiCalls[c] == appUserAddress) {\n                isDuplicate = true;\n                break;\n            }\n        }\n        require(!isDuplicate, \"Caller has already called this function.\");\n\n        multiCalls.push(appUserAddress);\n        if (multiCalls.length >= M) {\n            operational = mode;      \n            multiCalls = new address[](0);      \n\n    }\n\n    }\n    function getFlightID(string memory _flightName) pure internal returns(bytes32) {\n        return keccak256(abi.encodePacked(_flightName));\n    }\n\n    function getBalance(address _passenger) external view returns (uint256) {\n        return(passengers[_passenger].credit);\n    }\n    /********************************************************************************************/\n    /*                                     SMART CONTRACT FUNCTIONS                             */\n    /********************************************************************************************/\n\n   /**\n    * @dev Add an airline to the registration queue\n    *      Can only be called from FlightSuretyApp contract\n    *\n    */   \n    function registerAirline\n                            (\n                                address appUserAddress,\n                                address airlineAddress,\n                                string calldata name\n                            )\n                            public\n                            requireCallerAuthorized\n\n    {   //First 3 airlines can be registered without vote, afterwards an airline can only be regietered if the voting for the previous airline is concluded\n        require((airlineToVoteFor==0) ||\n                (airlineCount<=3)        , \"There is currently an unfinished registration process going on. Please finish that first\");\n        \n        airlineCount = airlineCount.add(1);\n        airlines[airlineAddress].ID = airlineCount;\n        airlines[airlineAddress].name = name;\n        airlines[airlineAddress].isFunded = false;\n        \n        //The first four airlines are registered/accepted without a vote\n        if (airlineCount<=4) {\n            \n            airlines[airlineAddress].isAccepted = true;\n        } else {\n            airlines[airlineAddress].isAccepted = false;\n\n            \n            // Opening  vote for this airline\n            airlineToVoteFor = airlineCount;\n        }\n        emit AirlineRegistered(appUserAddress, airlineAddress, name, airlineCount);\n    }\n    /**\n    * @dev Sets contract operations on/off\n    *\n    * When operational mode is disabled, all write transactions except for this one will fail\n    */    \n    function voteAirlineIn\n                            (\n                                address airlineCastedVoteFor,\n                                address appUserAddress\n                            ) \n                            external\n                            requireCallerAuthorized                         \n    {\n\n        require(isVotingAirline(appUserAddress), \"Caller is not funded and registered airline\");\n        require(airlines[airlineCastedVoteFor].ID == airlineToVoteFor, \"Vote casted for the wrong airline\");\n        bool isDuplicate = false;\n        for(uint c=0; c<multiCallsAirlineVote.length; c++) {\n            if (multiCallsAirlineVote[c] == appUserAddress) {\n                isDuplicate = true;\n                break;\n            }\n        }\n        require(!isDuplicate, \"Caller has already called this function.\");\n\n        multiCallsAirlineVote.push(appUserAddress);\n        uint256 hurdle = airlineCount.sub(1).div(2);\n        if (multiCallsAirlineVote.length >= hurdle) {\n            // Airline is accepted\n            airlines[airlineCastedVoteFor].isAccepted = true;\n\n\n            emit SuccessfulAirlineVoteCasted(multiCallsAirlineVote.length, hurdle, airlineCastedVoteFor);\n\n            //Airlinevote is reset\n            airlineToVoteFor = 0;      \n            multiCallsAirlineVote = new address[](0);      \n        } else {\n            emit AirlineVoteCasted(multiCallsAirlineVote.length, airlineCastedVoteFor);\n        }\n    }\n    /**\n    * @dev Sets contract operations on/off\n    *\n    * Contract owner can reset any ongoing vote with leaving the airline that is voted for unregistered\n    */    \n    function resetAirlineVote\n                            (\n                            ) \n                            external\n                            requireCallerAuthorized\n                            requireContractOwner\n\n\n    {\n            airlineToVoteFor = 0;\n            multiCallsAirlineVote = new address[](0);      \n    }\n\n   /**\n    * @dev Buy insurance for a flight\n    *\n    */   \n    function buyInsurance\n                            (         \n                                address passengerAddress,\n                                bytes32 flightID,\n                                uint256 addPayOutAmount\n\n                            )\n                            external\n                            payable\n                            requireCallerAuthorized\n                            requireIsOperational\n    {\n        //passengers[passengerAddress].insurances[flightID].paidIn = msg.value;\n        uint256 beginPayOutAmount = passengers[passengerAddress].payOutAmount[flightID];\n        passengers[passengerAddress].payOutAmount[flightID] = beginPayOutAmount.add(addPayOutAmount);\n        // if (insureesPerFlight[flightID].length=0) {\n        //     insureesPerFlight.push(flightID);\n        // }\n        insureesPerFlight[flightID].push(passengerAddress);  \n    }\n\n    /**\n     *  @dev Credits payouts to insurees\n    */\n    function creditInsurees\n                                (\n                                    bytes32 flightID\n                                )\n                                external\n                                requireCallerAuthorized\n                                requireIsOperational\n    {   // Debit before credit\n        address[] memory insurees = insureesPerFlight[flightID];\n        // delete insureesPerFlight[flightID];\n        \n        emit InsureesToFund(insurees);\n        \n        //Loop through index of insurees per flight\n        for (uint256 i = 0; i < insurees.length; i++) {\n            address insuree = insurees[i];\n            //Debit before Credit\n            uint256 _payOutAmount = passengers[insuree].payOutAmount[flightID];\n            passengers[insuree].payOutAmount[flightID] = 0;\n\n            \n            //Credit PayOutAmount to Balance/credit\n            passengers[insuree].credit = passengers[insuree].credit.add(_payOutAmount); \n            emit PayOutCredited(insuree,_payOutAmount);      \n        }\n\n        \n    }\n    \n\n    /**\n     *  @dev Transfers eligible payout funds to insuree\n     *\n    */\n    function withdraw       (\n                                address payable _passenger\n                            )\n                            public\n                            requireIsOperational\n                            requireCallerAuthorized\n    {\n        require(_passenger == tx.origin, \"Withdraw request must originate from passenger itself.\");\n        require(passengers[_passenger].credit > 0, \"No pay out amounts allocated to passenger.\");\n        //Debit before credit\n        uint256 credit = passengers[_passenger].credit;\n        passengers[_passenger].credit = 0;\n        \n        _passenger.transfer(credit);\n\n        emit CreditPaidOut(_passenger, credit);\n\n    }\n\n   /**\n    * @dev Initial funding for the insurance. Unless there are too many delayed flights\n    *      resulting in insurance payouts, the contract should be self-sustaining\n    *\n    */   \n    function fundAirline\n                            (\n                                address airline\n                            )\n                            public\n                            payable\n                            requireCallerAuthorized\n                            requireIsOperational\n    {\n        // Airline must be registered first\n        require(airlines[airline].ID != 0, \"No data for this airline yet. Please register airline first.\");\n        // Avoid double funding\n        require(airlines[airline].isFunded=true,\"airline is already fully funded.\");\n        \n        airlines[airline].isFunded = true;\n        \n\n    }\n\n    function getFlightKey\n                        (\n                            address airline,\n                            string memory flight,\n                            uint256 timestamp\n                        )\n                        pure\n                        internal\n                        returns(bytes32) \n    {\n        return keccak256(abi.encodePacked(airline, flight, timestamp));\n    }\n\n    /**\n    * @dev Fallback function for funding smart contract.\n    *\n    */\n    fallback() external payable {\n\n    }\n\n    receive() external payable {\n\n    }\n\n\n}\n\n",
  "sourcePath": "/Users/andrelange/CodingProjects/blockchaindev/FS/contracts/FlightSuretyData.sol",
  "compiler": {
    "name": "solc",
    "version": "0.8.19+commit.7dd6d404.Emscripten.clang"
  },
  "schemaVersion": "3.4.12",
  "updatedAt": "2023-02-24T19:36:58.321Z",
  "networkType": "ethereum",
  "devdoc": {
    "kind": "dev",
    "methods": {
      "buyInsurance(address,bytes32,uint256)": {
        "details": "Buy insurance for a flight"
      },
      "constructor": {
        "details": "Constructor      The deploying account becomes contractOwner"
      },
      "creditInsurees(bytes32)": {
        "details": "Credits payouts to insurees"
      },
      "fundAirline(address)": {
        "details": "Initial funding for the insurance. Unless there are too many delayed flights      resulting in insurance payouts, the contract should be self-sustaining"
      },
      "isAirline(address)": {
        "details": "Modifier that requires caller to be airline      "
      },
      "isFundedAirline(address)": {
        "details": "Function to retrieve airlinedata       "
      },
      "isOperational()": {
        "details": "Get operating status of contract",
        "returns": {
          "_0": "A bool that is the current operating status"
        }
      },
      "isVotingAirline(address)": {
        "details": "Modifier that requires caller to be airline that can be      Voting requires funding and being accepted by other airlines"
      },
      "registerAirline(address,address,string)": {
        "details": "Add an airline to the registration queue      Can only be called from FlightSuretyApp contract"
      },
      "resetAirlineVote()": {
        "details": "Sets contract operations on/off Contract owner can reset any ongoing vote with leaving the airline that is voted for unregistered"
      },
      "setOperatingStatus(bool,address)": {
        "details": "Sets contract operations on/off When operational mode is disabled, all write transactions except for this one will fail"
      },
      "voteAirlineIn(address,address)": {
        "details": "Sets contract operations on/off When operational mode is disabled, all write transactions except for this one will fail"
      },
      "withdraw(address)": {
        "details": "Transfers eligible payout funds to insuree"
      }
    },
    "version": 1
  },
  "userdoc": {
    "kind": "user",
    "methods": {},
    "version": 1
  }
}