{
  "contractName": "FlightSuretyApp",
  "abi": [
    {
      "inputs": [
        {
          "internalType": "address",
          "name": "dataContract",
          "type": "address"
        }
      ],
      "stateMutability": "nonpayable",
      "type": "constructor"
    },
    {
      "anonymous": false,
      "inputs": [
        {
          "indexed": false,
          "internalType": "string",
          "name": "_flight",
          "type": "string"
        },
        {
          "indexed": false,
          "internalType": "uint8",
          "name": "statusCode",
          "type": "uint8"
        }
      ],
      "name": "FlightProcessed",
      "type": "event"
    },
    {
      "anonymous": false,
      "inputs": [
        {
          "indexed": false,
          "internalType": "address",
          "name": "airline",
          "type": "address"
        },
        {
          "indexed": false,
          "internalType": "string",
          "name": "flight",
          "type": "string"
        },
        {
          "indexed": false,
          "internalType": "uint256",
          "name": "timestamp",
          "type": "uint256"
        },
        {
          "indexed": false,
          "internalType": "uint8",
          "name": "status",
          "type": "uint8"
        }
      ],
      "name": "FlightStatusInfo",
      "type": "event"
    },
    {
      "anonymous": false,
      "inputs": [
        {
          "indexed": false,
          "internalType": "address",
          "name": "airline",
          "type": "address"
        },
        {
          "indexed": false,
          "internalType": "string",
          "name": "flight",
          "type": "string"
        },
        {
          "indexed": false,
          "internalType": "uint256",
          "name": "timestamp",
          "type": "uint256"
        },
        {
          "indexed": false,
          "internalType": "uint8",
          "name": "status",
          "type": "uint8"
        }
      ],
      "name": "OracleReport",
      "type": "event"
    },
    {
      "anonymous": false,
      "inputs": [
        {
          "indexed": false,
          "internalType": "uint8",
          "name": "index",
          "type": "uint8"
        },
        {
          "indexed": false,
          "internalType": "address",
          "name": "airline",
          "type": "address"
        },
        {
          "indexed": false,
          "internalType": "string",
          "name": "flight",
          "type": "string"
        },
        {
          "indexed": false,
          "internalType": "uint256",
          "name": "timestamp",
          "type": "uint256"
        }
      ],
      "name": "OracleRequest",
      "type": "event"
    },
    {
      "inputs": [],
      "name": "REGISTRATION_FEE",
      "outputs": [
        {
          "internalType": "uint256",
          "name": "",
          "type": "uint256"
        }
      ],
      "stateMutability": "view",
      "type": "function",
      "constant": true
    },
    {
      "inputs": [],
      "name": "isOperational",
      "outputs": [
        {
          "internalType": "bool",
          "name": "",
          "type": "bool"
        }
      ],
      "stateMutability": "pure",
      "type": "function",
      "constant": true
    },
    {
      "inputs": [
        {
          "internalType": "string",
          "name": "flightName",
          "type": "string"
        }
      ],
      "name": "registerFlight",
      "outputs": [],
      "stateMutability": "nonpayable",
      "type": "function"
    },
    {
      "inputs": [
        {
          "internalType": "string",
          "name": "flightName",
          "type": "string"
        }
      ],
      "name": "getFlightInfo",
      "outputs": [
        {
          "internalType": "bool",
          "name": "",
          "type": "bool"
        },
        {
          "internalType": "uint8",
          "name": "",
          "type": "uint8"
        },
        {
          "internalType": "uint256",
          "name": "",
          "type": "uint256"
        },
        {
          "internalType": "address",
          "name": "",
          "type": "address"
        }
      ],
      "stateMutability": "view",
      "type": "function",
      "constant": true
    },
    {
      "inputs": [
        {
          "internalType": "address",
          "name": "airline",
          "type": "address"
        },
        {
          "internalType": "string",
          "name": "flight",
          "type": "string"
        },
        {
          "internalType": "uint256",
          "name": "timestamp",
          "type": "uint256"
        }
      ],
      "name": "fetchFlightStatus",
      "outputs": [],
      "stateMutability": "nonpayable",
      "type": "function"
    },
    {
      "inputs": [
        {
          "internalType": "address",
          "name": "airlineAddress",
          "type": "address"
        },
        {
          "internalType": "string",
          "name": "name",
          "type": "string"
        }
      ],
      "name": "registerAirlineApp",
      "outputs": [],
      "stateMutability": "nonpayable",
      "type": "function"
    },
    {
      "inputs": [
        {
          "internalType": "bool",
          "name": "mode",
          "type": "bool"
        }
      ],
      "name": "setOperatingStatusApp",
      "outputs": [],
      "stateMutability": "nonpayable",
      "type": "function"
    },
    {
      "inputs": [],
      "name": "isOperationalApp",
      "outputs": [
        {
          "internalType": "bool",
          "name": "",
          "type": "bool"
        }
      ],
      "stateMutability": "view",
      "type": "function",
      "constant": true
    },
    {
      "inputs": [
        {
          "internalType": "address",
          "name": "airlineCastedVoteFor",
          "type": "address"
        }
      ],
      "name": "voteAirlineInApp",
      "outputs": [],
      "stateMutability": "nonpayable",
      "type": "function"
    },
    {
      "inputs": [
        {
          "internalType": "address",
          "name": "airline",
          "type": "address"
        }
      ],
      "name": "fundAirlineApp",
      "outputs": [],
      "stateMutability": "payable",
      "type": "function",
      "payable": true
    },
    {
      "inputs": [
        {
          "internalType": "string",
          "name": "flightName",
          "type": "string"
        }
      ],
      "name": "buyInsuranceApp",
      "outputs": [],
      "stateMutability": "payable",
      "type": "function",
      "payable": true
    },
    {
      "inputs": [],
      "name": "withdrawApp",
      "outputs": [],
      "stateMutability": "nonpayable",
      "type": "function"
    },
    {
      "inputs": [],
      "name": "registerOracle",
      "outputs": [],
      "stateMutability": "payable",
      "type": "function",
      "payable": true
    },
    {
      "inputs": [],
      "name": "getMyIndexes",
      "outputs": [
        {
          "internalType": "uint8[3]",
          "name": "",
          "type": "uint8[3]"
        }
      ],
      "stateMutability": "view",
      "type": "function",
      "constant": true
    },
    {
      "inputs": [
        {
          "internalType": "uint8",
          "name": "index",
          "type": "uint8"
        },
        {
          "internalType": "address",
          "name": "airline",
          "type": "address"
        },
        {
          "internalType": "string",
          "name": "flight",
          "type": "string"
        },
        {
          "internalType": "uint256",
          "name": "timestamp",
          "type": "uint256"
        },
        {
          "internalType": "uint8",
          "name": "statusCode",
          "type": "uint8"
        }
      ],
      "name": "submitOracleResponse",
      "outputs": [],
      "stateMutability": "nonpayable",
      "type": "function"
    }
  ],
  "bytecode": "0x6080604052600a60025560966003556200003b60646200002c600a6003546200011560201b90919060201c565b6200012d60201b90919060201c565b6004556000600660006101000a81548160ff021916908360ff1602179055503480156200006757600080fd5b50604051620031af380380620031af83398181016040528101906200008d9190620001af565b336000806101000a81548173ffffffffffffffffffffffffffffffffffffffff021916908373ffffffffffffffffffffffffffffffffffffffff16021790555080600160006101000a81548173ffffffffffffffffffffffffffffffffffffffff021916908373ffffffffffffffffffffffffffffffffffffffff16021790555050620002cc565b600081836200012591906200021a565b905092915050565b600081836200013d919062000294565b905092915050565b600080fd5b600073ffffffffffffffffffffffffffffffffffffffff82169050919050565b600062000177826200014a565b9050919050565b62000189816200016a565b81146200019557600080fd5b50565b600081519050620001a9816200017e565b92915050565b600060208284031215620001c857620001c762000145565b5b6000620001d88482850162000198565b91505092915050565b6000819050919050565b7f4e487b7100000000000000000000000000000000000000000000000000000000600052601160045260246000fd5b60006200022782620001e1565b91506200023483620001e1565b92508282026200024481620001e1565b915082820484148315176200025e576200025d620001eb565b5b5092915050565b7f4e487b7100000000000000000000000000000000000000000000000000000000600052601260045260246000fd5b6000620002a182620001e1565b9150620002ae83620001e1565b925082620002c157620002c062000265565b5b828204905092915050565b612ed380620002dc6000396000f3fe6080604052600436106100e85760003560e01c80638c6da4771161008a578063cd905dff11610059578063cd905dff146102a1578063dd62c8a6146102cc578063e61ae44d146102e8578063f83f11c0146102ff576100e8565b80638c6da477146101e65780638f17520b1461020f578063b22bccc014610238578063c10f270014610278576100e8565b80634d98da49116100c65780634d98da491461014b578063595ffcae146101675780635f1cc0e61461019057806364b4f751146101bb576100e8565b80631347ebd6146100ed578063339d2590146101185780633f8dd54514610122575b600080fd5b3480156100f957600080fd5b50610102610328565b60405161010f9190611ace565b60405180910390f35b6101206103c0565b005b34801561012e57600080fd5b5061014960048036038101906101449190611b58565b6104ad565b005b61016560048036038101906101609190611c03565b61075d565b005b34801561017357600080fd5b5061018e60048036038101906101899190611c5c565b61089c565b005b34801561019c57600080fd5b506101a561092e565b6040516101b29190611d41565b60405180910390f35b3480156101c757600080fd5b506101d0610a6e565b6040516101dd9190611d75565b60405180910390f35b3480156101f257600080fd5b5061020d60048036038101906102089190611d90565b610a7a565b005b34801561021b57600080fd5b5061023660048036038101906102319190611c03565b610b12565b005b34801561024457600080fd5b5061025f600480360381019061025a9190611b58565b610ba4565b60405161026f9493929190611e0e565b60405180910390f35b34801561028457600080fd5b5061029f600480360381019061029a9190611eab565b610d06565b005b3480156102ad57600080fd5b506102b66110e0565b6040516102c39190611ace565b60405180910390f35b6102e660048036038101906102e19190611b58565b6110e9565b005b3480156102f457600080fd5b506102fd61135d565b005b34801561030b57600080fd5b5061032660048036038101906103219190611f45565b61142d565b005b6000600160009054906101000a900473ffffffffffffffffffffffffffffffffffffffff1673ffffffffffffffffffffffffffffffffffffffff1663cd905dff6040518163ffffffff1660e01b8152600401602060405180830381865afa158015610397573d6000803e3d6000fd5b505050506040513d601f19601f820116820180604052508101906103bb9190611fce565b905090565b670de0b6b3a764000034101561040b576040517f08c379a000000000000000000000000000000000000000000000000000000000815260040161040290612058565b60405180910390fd5b60006104163361152c565b9050604051806040016040528060011515815260200182815250600760003373ffffffffffffffffffffffffffffffffffffffff1673ffffffffffffffffffffffffffffffffffffffff16815260200190815260200160002060008201518160000160006101000a81548160ff0219169083151502179055506020820151816001019060036104a69291906119da565b5090505050565b60016104ee576040517f08c379a00000000000000000000000000000000000000000000000000000000081526004016104e5906120ea565b60405180910390fd5b600160009054906101000a900473ffffffffffffffffffffffffffffffffffffffff1673ffffffffffffffffffffffffffffffffffffffff166348b219ea336040518263ffffffff1660e01b8152600401610549919061210a565b602060405180830381865afa158015610566573d6000803e3d6000fd5b505050506040513d601f19601f8201168201806040525081019061058a9190611fce565b6105c9576040517f08c379a00000000000000000000000000000000000000000000000000000000081526004016105c090612197565b60405180910390fd5b600061061883838080601f016020809104026020016040519081016040528093929190818152602001838380828437600081840152601f19601f82011690508083019250505050505050611712565b90506005600082815260200190815260200160002060010160009054906101000a900460ff161561067e576040517f08c379a000000000000000000000000000000000000000000000000000000000815260040161067590612203565b60405180910390fd5b60016005600083815260200190815260200160002060010160006101000a81548160ff02191690831515021790555082826005600084815260200190815260200160002060000191826106d2929190612469565b5060006005600083815260200190815260200160002060010160016101000a81548160ff021916908360ff160217905550336005600083815260200190815260200160002060030160006101000a81548173ffffffffffffffffffffffffffffffffffffffff021916908373ffffffffffffffffffffffffffffffffffffffff160217905550505050565b6002543410156107a2576040517f08c379a000000000000000000000000000000000000000000000000000000000815260040161079990612585565b60405180910390fd5b60006107b96002543461174290919063ffffffff16565b905060003390508073ffffffffffffffffffffffffffffffffffffffff166108fc839081150290604051600060405180830381858888f19350505050158015610806573d6000803e3d6000fd5b50600160009054906101000a900473ffffffffffffffffffffffffffffffffffffffff1673ffffffffffffffffffffffffffffffffffffffff16636fbb8798600254856040518363ffffffff1660e01b8152600401610865919061210a565b6000604051808303818588803b15801561087e57600080fd5b505af1158015610892573d6000803e3d6000fd5b5050505050505050565b600160009054906101000a900473ffffffffffffffffffffffffffffffffffffffff1673ffffffffffffffffffffffffffffffffffffffff1663c590dda582336040518363ffffffff1660e01b81526004016108f99291906125a5565b600060405180830381600087803b15801561091357600080fd5b505af1158015610927573d6000803e3d6000fd5b5050505050565b610936611a74565b600760003373ffffffffffffffffffffffffffffffffffffffff1673ffffffffffffffffffffffffffffffffffffffff16815260200190815260200160002060000160009054906101000a900460ff166109c5576040517f08c379a00000000000000000000000000000000000000000000000000000000081526004016109bc9061261a565b60405180910390fd5b600760003373ffffffffffffffffffffffffffffffffffffffff1673ffffffffffffffffffffffffffffffffffffffff168152602001908152602001600020600101600380602002604051908101604052809291908260038015610a64576020028201916000905b82829054906101000a900460ff1660ff1681526020019060010190602082600001049283019260010382029150808411610a2d5790505b5050505050905090565b670de0b6b3a764000081565b600160009054906101000a900473ffffffffffffffffffffffffffffffffffffffff1673ffffffffffffffffffffffffffffffffffffffff16633010f50f338585856040518563ffffffff1660e01b8152600401610adb9493929190612687565b600060405180830381600087803b158015610af557600080fd5b505af1158015610b09573d6000803e3d6000fd5b50505050505050565b600160009054906101000a900473ffffffffffffffffffffffffffffffffffffffff1673ffffffffffffffffffffffffffffffffffffffff16633321a9c182336040518363ffffffff1660e01b8152600401610b6f9291906126c7565b600060405180830381600087803b158015610b8957600080fd5b505af1158015610b9d573d6000803e3d6000fd5b5050505050565b6000806000806000610bf987878080601f016020809104026020016040519081016040528093929190818152602001838380828437600081840152601f19601f82011690508083019250505050505050611712565b90506005600082815260200190815260200160002060010160009054906101000a900460ff16610c5e576040517f08c379a0000000000000000000000000000000000000000000000000000000008152600401610c559061273c565b60405180910390fd5b6005600082815260200190815260200160002060010160009054906101000a900460ff166005600083815260200190815260200160002060010160019054906101000a900460ff1660056000848152602001908152602001600020600201546005600085815260200190815260200160002060030160009054906101000a900473ffffffffffffffffffffffffffffffffffffffff1694509450945094505092959194509250565b8560ff16600760003373ffffffffffffffffffffffffffffffffffffffff1673ffffffffffffffffffffffffffffffffffffffff168152602001908152602001600020600101600060038110610d5f57610d5e61275c565b5b602091828204019190069054906101000a900460ff1660ff161480610df357508560ff16600760003373ffffffffffffffffffffffffffffffffffffffff1673ffffffffffffffffffffffffffffffffffffffff168152602001908152602001600020600101600160038110610dd857610dd761275c565b5b602091828204019190069054906101000a900460ff1660ff16145b80610e6d57508560ff16600760003373ffffffffffffffffffffffffffffffffffffffff1673ffffffffffffffffffffffffffffffffffffffff168152602001908152602001600020600101600260038110610e5257610e5161275c565b5b602091828204019190069054906101000a900460ff1660ff16145b610eac576040517f08c379a0000000000000000000000000000000000000000000000000000000008152600401610ea3906127fd565b60405180910390fd5b60008686868686604051602001610ec79594939291906128ec565b6040516020818303038152906040528051906020012090506008600082815260200190815260200160002060000160149054906101000a900460ff16610f42576040517f08c379a0000000000000000000000000000000000000000000000000000000008152600401610f39906129aa565b60405180910390fd5b6008600082815260200190815260200160002060010160008360ff1660ff168152602001908152602001600020339080600181540180825580915050600190039060005260206000200160009091909190916101000a81548173ffffffffffffffffffffffffffffffffffffffff021916908373ffffffffffffffffffffffffffffffffffffffff1602179055507f43c853095c2752648493c88b4baac4d580d2594ffb00c6f1d4242d844514f78386868686866040516110079594939291906129ca565b60405180910390a160036008600083815260200190815260200160002060010160008460ff1660ff16815260200190815260200160002080549050106110d7577fe23f5229de535c091e3b7bec2665f5d698192d3b31393066e8987b7a05076b6c868686868660405161107e9594939291906129ca565b60405180910390a16110d68686868080601f016020809104026020016040519081016040528093929190818152602001838380828437600081840152601f19601f820116905080830192505050505050508585611758565b5b50505050505050565b60006001905090565b600061113883838080601f016020809104026020016040519081016040528093929190818152602001838380828437600081840152601f19601f82011690508083019250505050505050611712565b90506005600082815260200190815260200160002060010160009054906101000a900460ff1661119d576040517f08c379a00000000000000000000000000000000000000000000000000000000081526004016111949061273c565b60405180910390fd5b6000600160009054906101000a900473ffffffffffffffffffffffffffffffffffffffff1673ffffffffffffffffffffffffffffffffffffffff166304016c283386866040518463ffffffff1660e01b81526004016111fe93929190612a18565b602060405180830381865afa15801561121b573d6000803e3d6000fd5b505050506040513d601f19601f8201168201806040525081019061123f9190612a5f565b9050600061126b606461125d600354346118cc90919063ffffffff16565b6118e290919063ffffffff16565b905060045461128382846118f890919063ffffffff16565b11156112c4576040517f08c379a00000000000000000000000000000000000000000000000000000000081526004016112bb90612afe565b60405180910390fd5b600160009054906101000a900473ffffffffffffffffffffffffffffffffffffffff1673ffffffffffffffffffffffffffffffffffffffff16634f829e37343386856040518563ffffffff1660e01b815260040161132493929190612b37565b6000604051808303818588803b15801561133d57600080fd5b505af1158015611351573d6000803e3d6000fd5b50505050505050505050565b600161139e576040517f08c379a0000000000000000000000000000000000000000000000000000000008152600401611395906120ea565b60405180910390fd5b600160009054906101000a900473ffffffffffffffffffffffffffffffffffffffff1673ffffffffffffffffffffffffffffffffffffffff166351cff8d9336040518263ffffffff1660e01b81526004016113f9919061210a565b600060405180830381600087803b15801561141357600080fd5b505af1158015611427573d6000803e3d6000fd5b50505050565b60006114383361190e565b9050600081868686866040516020016114559594939291906128ec565b6040516020818303038152906040528051906020012090506000600860008381526020019081526020016000209050338160000160006101000a81548173ffffffffffffffffffffffffffffffffffffffff021916908373ffffffffffffffffffffffffffffffffffffffff16021790555060018160000160146101000a81548160ff0219169083151502179055507f3ed01f2c3fc24c6b329d931e35b03e390d23497d22b3f90e15b600343e93df11838888888860405161151b959493929190612b6e565b60405180910390a150505050505050565b611534611a74565b61153c611a74565b6115458361190e565b816000600381106115595761155861275c565b5b602002019060ff16908160ff16815250508060006003811061157e5761157d61275c565b5b6020020151816001600381106115975761159661275c565b5b602002019060ff16908160ff16815250505b806000600381106115bd576115bc61275c565b5b602002015160ff16816001600381106115d9576115d861275c565b5b602002015160ff1603611619576115ef8361190e565b816001600381106116035761160261275c565b5b602002019060ff16908160ff16815250506115a9565b8060016003811061162d5761162c61275c565b5b6020020151816002600381106116465761164561275c565b5b602002019060ff16908160ff16815250505b8060006003811061166c5761166b61275c565b5b602002015160ff16816002600381106116885761168761275c565b5b602002015160ff1614806116d15750806001600381106116ab576116aa61275c565b5b602002015160ff16816002600381106116c7576116c661275c565b5b602002015160ff16145b15611709576116df8361190e565b816002600381106116f3576116f261275c565b5b602002019060ff16908160ff1681525050611658565b80915050919050565b6000816040516020016117259190612c22565b604051602081830303815290604052805190602001209050919050565b600081836117509190612c68565b905092915050565b6001611799576040517f08c379a0000000000000000000000000000000000000000000000000000000008152600401611790906120ea565b60405180910390fd5b60006117a484611712565b9050816005600083815260200190815260200160002060010160016101000a81548160ff021916908360ff160217905550826005600083815260200190815260200160002060020181905550601460ff168260ff160361188c57600160009054906101000a900473ffffffffffffffffffffffffffffffffffffffff1673ffffffffffffffffffffffffffffffffffffffff1663cc2f6eba826040518263ffffffff1660e01b81526004016118599190612c9c565b600060405180830381600087803b15801561187357600080fd5b505af1158015611887573d6000803e3d6000fd5b505050505b7ff568d0c0438d22fc7fa62f23a92b9a4dec491c9e02a4e1a84ec1e05191b892b684836040516118bd929190612cf0565b60405180910390a15050505050565b600081836118da9190612d20565b905092915050565b600081836118f09190612d91565b905092915050565b600081836119069190612dc2565b905092915050565b600080600a905060008160ff166006600081819054906101000a900460ff168092919061193a90612df6565b91906101000a81548160ff021916908360ff16021790555060ff16436119609190612c68565b4085604051602001611973929190612e40565b6040516020818303038152906040528051906020012060001c6119969190612e6c565b905060fa600660009054906101000a900460ff1660ff1611156119d0576000600660006101000a81548160ff021916908360ff1602179055505b8092505050919050565b826003601f01602090048101928215611a635791602002820160005b83821115611a3457835183826101000a81548160ff021916908360ff16021790555092602001926001016020816000010492830192600103026119f6565b8015611a615782816101000a81549060ff0219169055600101602081600001049283019260010302611a34565b505b509050611a709190611a96565b5090565b6040518060600160405280600390602082028036833780820191505090505090565b5b80821115611aaf576000816000905550600101611a97565b5090565b60008115159050919050565b611ac881611ab3565b82525050565b6000602082019050611ae36000830184611abf565b92915050565b600080fd5b600080fd5b600080fd5b600080fd5b600080fd5b60008083601f840112611b1857611b17611af3565b5b8235905067ffffffffffffffff811115611b3557611b34611af8565b5b602083019150836001820283011115611b5157611b50611afd565b5b9250929050565b60008060208385031215611b6f57611b6e611ae9565b5b600083013567ffffffffffffffff811115611b8d57611b8c611aee565b5b611b9985828601611b02565b92509250509250929050565b600073ffffffffffffffffffffffffffffffffffffffff82169050919050565b6000611bd082611ba5565b9050919050565b611be081611bc5565b8114611beb57600080fd5b50565b600081359050611bfd81611bd7565b92915050565b600060208284031215611c1957611c18611ae9565b5b6000611c2784828501611bee565b91505092915050565b611c3981611ab3565b8114611c4457600080fd5b50565b600081359050611c5681611c30565b92915050565b600060208284031215611c7257611c71611ae9565b5b6000611c8084828501611c47565b91505092915050565b600060039050919050565b600081905092915050565b6000819050919050565b600060ff82169050919050565b611cbf81611ca9565b82525050565b6000611cd18383611cb6565b60208301905092915050565b6000602082019050919050565b611cf381611c89565b611cfd8184611c94565b9250611d0882611c9f565b8060005b83811015611d39578151611d208782611cc5565b9650611d2b83611cdd565b925050600181019050611d0c565b505050505050565b6000606082019050611d566000830184611cea565b92915050565b6000819050919050565b611d6f81611d5c565b82525050565b6000602082019050611d8a6000830184611d66565b92915050565b600080600060408486031215611da957611da8611ae9565b5b6000611db786828701611bee565b935050602084013567ffffffffffffffff811115611dd857611dd7611aee565b5b611de486828701611b02565b92509250509250925092565b611df981611ca9565b82525050565b611e0881611bc5565b82525050565b6000608082019050611e236000830187611abf565b611e306020830186611df0565b611e3d6040830185611d66565b611e4a6060830184611dff565b95945050505050565b611e5c81611ca9565b8114611e6757600080fd5b50565b600081359050611e7981611e53565b92915050565b611e8881611d5c565b8114611e9357600080fd5b50565b600081359050611ea581611e7f565b92915050565b60008060008060008060a08789031215611ec857611ec7611ae9565b5b6000611ed689828a01611e6a565b9650506020611ee789828a01611bee565b955050604087013567ffffffffffffffff811115611f0857611f07611aee565b5b611f1489828a01611b02565b94509450506060611f2789828a01611e96565b9250506080611f3889828a01611e6a565b9150509295509295509295565b60008060008060608587031215611f5f57611f5e611ae9565b5b6000611f6d87828801611bee565b945050602085013567ffffffffffffffff811115611f8e57611f8d611aee565b5b611f9a87828801611b02565b93509350506040611fad87828801611e96565b91505092959194509250565b600081519050611fc881611c30565b92915050565b600060208284031215611fe457611fe3611ae9565b5b6000611ff284828501611fb9565b91505092915050565b600082825260208201905092915050565b7f526567697374726174696f6e2066656520697320726571756972656400000000600082015250565b6000612042601c83611ffb565b915061204d8261200c565b602082019050919050565b6000602082019050818103600083015261207181612035565b9050919050565b7f436f6e74726163742069732063757272656e746c79206e6f74206f706572617460008201527f696f6e616c000000000000000000000000000000000000000000000000000000602082015250565b60006120d4602583611ffb565b91506120df82612078565b604082019050919050565b60006020820190508181036000830152612103816120c7565b9050919050565b600060208201905061211f6000830184611dff565b92915050565b7f4169726c696e65206973206e6f74207965742066756c6c792066756e6465642060008201527f616e6420766f74656420696e2e00000000000000000000000000000000000000602082015250565b6000612181602d83611ffb565b915061218c82612125565b604082019050919050565b600060208201905081810360008301526121b081612174565b9050919050565b7f466c6967687420616c7265616479207265676973746572656400000000000000600082015250565b60006121ed601983611ffb565b91506121f8826121b7565b602082019050919050565b6000602082019050818103600083015261221c816121e0565b9050919050565b600082905092915050565b7f4e487b7100000000000000000000000000000000000000000000000000000000600052604160045260246000fd5b7f4e487b7100000000000000000000000000000000000000000000000000000000600052602260045260246000fd5b600060028204905060018216806122a457607f821691505b6020821081036122b7576122b661225d565b5b50919050565b60008190508160005260206000209050919050565b60006020601f8301049050919050565b600082821b905092915050565b60006008830261231f7fffffffffffffffffffffffffffffffffffffffffffffffffffffffffffffffff826122e2565b61232986836122e2565b95508019841693508086168417925050509392505050565b6000819050919050565b600061236661236161235c84611d5c565b612341565b611d5c565b9050919050565b6000819050919050565b6123808361234b565b61239461238c8261236d565b8484546122ef565b825550505050565b600090565b6123a961239c565b6123b4818484612377565b505050565b5b818110156123d8576123cd6000826123a1565b6001810190506123ba565b5050565b601f82111561241d576123ee816122bd565b6123f7846122d2565b81016020851015612406578190505b61241a612412856122d2565b8301826123b9565b50505b505050565b600082821c905092915050565b600061244060001984600802612422565b1980831691505092915050565b6000612459838361242f565b9150826002028217905092915050565b6124738383612223565b67ffffffffffffffff81111561248c5761248b61222e565b5b612496825461228c565b6124a18282856123dc565b6000601f8311600181146124d057600084156124be578287013590505b6124c8858261244d565b865550612530565b601f1984166124de866122bd565b60005b82811015612506578489013582556001820191506020850194506020810190506124e1565b86831015612523578489013561251f601f89168261242f565b8355505b6001600288020188555050505b50505050505050565b7f4e6f742073756666696369656e742066756e64732073656e7400000000000000600082015250565b600061256f601983611ffb565b915061257a82612539565b602082019050919050565b6000602082019050818103600083015261259e81612562565b9050919050565b60006040820190506125ba6000830185611abf565b6125c76020830184611dff565b9392505050565b7f4e6f74207265676973746572656420617320616e206f7261636c650000000000600082015250565b6000612604601b83611ffb565b915061260f826125ce565b602082019050919050565b60006020820190508181036000830152612633816125f7565b9050919050565b82818337600083830152505050565b6000601f19601f8301169050919050565b60006126668385611ffb565b935061267383858461263a565b61267c83612649565b840190509392505050565b600060608201905061269c6000830187611dff565b6126a96020830186611dff565b81810360408301526126bc81848661265a565b905095945050505050565b60006040820190506126dc6000830185611dff565b6126e96020830184611dff565b9392505050565b7f466c69676874206e6f7420796574207265676973746572656400000000000000600082015250565b6000612726601983611ffb565b9150612731826126f0565b602082019050919050565b6000602082019050818103600083015261275581612719565b9050919050565b7f4e487b7100000000000000000000000000000000000000000000000000000000600052603260045260246000fd5b7f496e64657820646f6573206e6f74206d61746368206f7261636c65207265717560008201527f6573740000000000000000000000000000000000000000000000000000000000602082015250565b60006127e7602383611ffb565b91506127f28261278b565b604082019050919050565b60006020820190508181036000830152612816816127da565b9050919050565b60008160f81b9050919050565b60006128358261281d565b9050919050565b61284d61284882611ca9565b61282a565b82525050565b60008160601b9050919050565b600061286b82612853565b9050919050565b600061287d82612860565b9050919050565b61289561289082611bc5565b612872565b82525050565b600081905092915050565b60006128b2838561289b565b93506128bf83858461263a565b82840190509392505050565b6000819050919050565b6128e66128e182611d5c565b6128cb565b82525050565b60006128f8828861283c565b6001820191506129088287612884565b6014820191506129198285876128a6565b915061292582846128d5565b6020820191508190509695505050505050565b7f466c69676874206f722074696d657374616d7020646f206e6f74206d6174636860008201527f206f7261636c6520726571756573740000000000000000000000000000000000602082015250565b6000612994602f83611ffb565b915061299f82612938565b604082019050919050565b600060208201905081810360008301526129c381612987565b9050919050565b60006080820190506129df6000830188611dff565b81810360208301526129f281868861265a565b9050612a016040830185611d66565b612a0e6060830184611df0565b9695505050505050565b6000604082019050612a2d6000830186611dff565b8181036020830152612a4081848661265a565b9050949350505050565b600081519050612a5981611e7f565b92915050565b600060208284031215612a7557612a74611ae9565b5b6000612a8384828501612a4a565b91505092915050565b7f4164646974696f6e616c20696e737572616e6365206c6561647320746f206f7660008201527f6572696e737572616e6365000000000000000000000000000000000000000000602082015250565b6000612ae8602b83611ffb565b9150612af382612a8c565b604082019050919050565b60006020820190508181036000830152612b1781612adb565b9050919050565b6000819050919050565b612b3181612b1e565b82525050565b6000606082019050612b4c6000830186611dff565b612b596020830185612b28565b612b666040830184611d66565b949350505050565b6000608082019050612b836000830188611df0565b612b906020830187611dff565b8181036040830152612ba381858761265a565b9050612bb26060830184611d66565b9695505050505050565b600081519050919050565b60005b83811015612be5578082015181840152602081019050612bca565b60008484015250505050565b6000612bfc82612bbc565b612c06818561289b565b9350612c16818560208601612bc7565b80840191505092915050565b6000612c2e8284612bf1565b915081905092915050565b7f4e487b7100000000000000000000000000000000000000000000000000000000600052601160045260246000fd5b6000612c7382611d5c565b9150612c7e83611d5c565b9250828203905081811115612c9657612c95612c39565b5b92915050565b6000602082019050612cb16000830184612b28565b92915050565b6000612cc282612bbc565b612ccc8185611ffb565b9350612cdc818560208601612bc7565b612ce581612649565b840191505092915050565b60006040820190508181036000830152612d0a8185612cb7565b9050612d196020830184611df0565b9392505050565b6000612d2b82611d5c565b9150612d3683611d5c565b9250828202612d4481611d5c565b91508282048414831517612d5b57612d5a612c39565b5b5092915050565b7f4e487b7100000000000000000000000000000000000000000000000000000000600052601260045260246000fd5b6000612d9c82611d5c565b9150612da783611d5c565b925082612db757612db6612d62565b5b828204905092915050565b6000612dcd82611d5c565b9150612dd883611d5c565b9250828201905080821115612df057612def612c39565b5b92915050565b6000612e0182611ca9565b915060ff8203612e1457612e13612c39565b5b600182019050919050565b6000819050919050565b612e3a612e3582612b1e565b612e1f565b82525050565b6000612e4c8285612e29565b602082019150612e5c8284612884565b6014820191508190509392505050565b6000612e7782611d5c565b9150612e8283611d5c565b925082612e9257612e91612d62565b5b82820690509291505056fea2646970667358221220aa697edc456635bcb5ccaf3f4b549b18709f6fad7de0ab90009e59ec58d0373b64736f6c63430008130033",
  "immutableReferences": {},
  "source": "pragma solidity ^0.8.17; //>=0.8.25;\n//pragma experimental ABIEncoderV2;\n\n// It's important to avoid vulnerabilities due to numeric overflow bugs\n// OpenZeppelin's SafeMath library, when used correctly, protects agains such bugs\n// More info: https://www.nccgroup.trust/us/about-us/newsroom-and-events/blog/2018/november/smart-contract-insecurity-bad-arithmetic/\n\n// import \"../node_modules/openzeppelin-solidity/contracts/utils/math/SafeMath.sol\";\nimport \"@openzeppelin/contracts/utils/math/SafeMath.sol\";\n\n/************************************************** */\n/* FlightSurety Smart Contract                      */\n/************************************************** */\ncontract FlightSuretyApp {\n    using SafeMath for uint256; // Allow SafeMath functions to be called for all uint256 types (similar to \"prototype\" in Javascript)\n\n    /********************************************************************************************/\n    /*                                       DATA VARIABLES                                     */\n    /********************************************************************************************/\n\n    // Flight status codees\n    uint8 private constant STATUS_CODE_UNKNOWN = 0;\n    uint8 private constant STATUS_CODE_ON_TIME = 10;\n    uint8 private constant STATUS_CODE_LATE_AIRLINE = 20;\n    uint8 private constant STATUS_CODE_LATE_WEATHER = 30;\n    uint8 private constant STATUS_CODE_LATE_TECHNICAL = 40;\n    uint8 private constant STATUS_CODE_LATE_OTHER = 50;\n\n    address private contractOwner;          // Account used to deploy contract\n\n    //Reference to the data contract\n    FlightSuretyData flightSuretyData;\n\n    //Funding requirement set in app contract and handed over into data contract\n    //Risk assessment: because airline needs to be voted in (set in data contract) risk of being manipulated on way to data contract with low relevance\n    uint256 airlineFundingRequirement = 10;\n\n    uint256 payOutMultiple = 150;  // amount to be paid out = paid in amount * payOutMultiple / 100\n    uint256 maxInsurancePayOut = payOutMultiple.mul(10).div(100); // Requirement that max 1 ether is insured per passenger per flight \n    \n    struct flightStructType {\n    //    bytes32 flightID;\n        string flightName;\n        bool isRegistered;\n        uint8 statusCode;\n        uint256 updatedTimestamp;        \n        address airline;\n    }\n    mapping(bytes32 => flightStructType) private flights;\n\n    event FlightProcessed(string _flight, uint8 statusCode);\n\n \n    /********************************************************************************************/\n    /*                                       FUNCTION MODIFIERS                                 */\n    /********************************************************************************************/\n\n    // Modifiers help avoid duplication of code. They are typically used to validate something\n    // before a function is allowed to be executed.\n\n    /**\n    * @dev Modifier that requires the \"operational\" boolean variable to be \"true\"\n    *      This is used on all state changing functions to pause the contract in \n    *      the event there is an issue that needs to be fixed\n    */\n    modifier requireIsOperational() \n    {\n         // Modify to call data contract's status\n        require(true, \"Contract is currently not operational\");  \n        _;  // All modifiers require an \"_\" which indicates where the function body will be added\n    }\n\n    /**\n    * @dev Modifier that requires the \"ContractOwner\" account to be the function caller\n    */\n    modifier requireContractOwner()\n    {\n        require(msg.sender == contractOwner, \"Caller is not contract owner\");\n        _;\n    }\n\n    \n\n    /********************************************************************************************/\n    /*                                       CONSTRUCTOR                                        */\n    /********************************************************************************************/\n\n    /**\n    * @dev Contract constructor\n    *\n    */\n    constructor\n                                (\n                                    address dataContract\n                                ) \n                                public \n    {\n        contractOwner = msg.sender;\n        flightSuretyData = FlightSuretyData(dataContract);\n    }\n\n    /********************************************************************************************/\n    /*                                       UTILITY FUNCTIONS                                  */\n    /********************************************************************************************/\n\n    function isOperational() \n                            public \n                            pure \n                            returns(bool) \n    {\n        return true;  // Modify to call data contract's status\n    }\n    function getFlightID(string memory _flightName) pure internal returns(bytes32) {\n        return keccak256(abi.encodePacked(_flightName));\n    }\n    /********************************************************************************************/\n    /*                                     SMART CONTRACT FUNCTIONS                             */\n    /********************************************************************************************/\n\n\n\n   /**\n    * @dev Register a future flight for insuring.\n    *\n    */  \n    function registerFlight\n                                (\n                                    string calldata flightName     \n                                )\n                                external\n                                requireIsOperational\n    {\n        require(flightSuretyData.isVotingAirline(msg.sender),\"Airline is not yet fully funded and voted in.\");\n        bytes32 _flightID = getFlightID(flightName);\n        require(!flights[_flightID].isRegistered,\"Flight already registered\");\n\n        // flights[_flightID].flightID = _flightID;\n         \n        flights[_flightID].isRegistered = true;\n        flights[_flightID].flightName = flightName;\n        flights[_flightID].statusCode = STATUS_CODE_UNKNOWN;\n        flights[_flightID].airline = msg.sender;\n    \n    }\n\n    function getFlightInfo\n                                (\n                                    string calldata flightName\n                                )\n                                external\n                                view\n                                returns (bool, uint8, uint256, address)\n    {\n        bytes32 _flightID = getFlightID(flightName);\n        require(flights[_flightID].isRegistered,\"Flight not yet registered\");\n        return(\n            flights[_flightID].isRegistered,\n            flights[_flightID].statusCode,\n            flights[_flightID].updatedTimestamp,\n            flights[_flightID].airline);\n            // flights[_flightID].flightID);\n\n            \n    \n    }\n\n\n    \n   /**\n    * @dev Called after oracle has updated flight status\n    *\n    */  \n    function processFlightStatus\n                                (\n                                    address airline,\n                                    string memory flight,\n                                    uint256 timestamp,\n                                    uint8 statusCode\n                                )\n                                internal\n                                requireIsOperational\n    {\n        bytes32 flightID = getFlightID(flight);\n        flights[flightID].statusCode = statusCode;\n        flights[flightID].updatedTimestamp = timestamp;\n         \n        if (statusCode == STATUS_CODE_LATE_AIRLINE) {\n\n            flightSuretyData.creditInsurees(flightID);\n        }\n        emit FlightProcessed(flight, statusCode);\n    }\n\n\n    // Generate a request for oracles to fetch flight information\n    function fetchFlightStatus\n                        (\n                            address airline,\n                            string calldata flight,\n                            uint256 timestamp                            \n                        )\n                        external\n    {\n        uint8 index = getRandomIndex(msg.sender);\n\n        // Generate a unique key for storing the request\n        bytes32 key = keccak256(abi.encodePacked(index, airline, flight, timestamp));\n        // oracleResponses[key] = ResponseInfo({\n        //                                         requester: msg.sender,\n        //                                         isOpen: true\n        //                                     });\n        ResponseInfo storage responseInfo = oracleResponses[key];\n        responseInfo.requester = msg.sender;\n        responseInfo.isOpen = true;\n        emit OracleRequest(index, airline, flight, timestamp);\n    } \n    function registerAirlineApp(\n                                address airlineAddress,\n                                string calldata name\n                            )\n                            public\n    {\n        flightSuretyData.registerAirline(msg.sender, airlineAddress, name);\n    }\n\n    function setOperatingStatusApp\n                        (\n                            bool mode\n                            \n                        ) \n                        external   \n    {\n        flightSuretyData.setOperatingStatus(mode, msg.sender);\n    }    \n    function isOperationalApp() \n                            public \n                            view \n                            returns(bool) \n                            \n    {\n        return(flightSuretyData.isOperational());\n    }\n\n    function voteAirlineInApp\n                            (\n                                address airlineCastedVoteFor\n                            ) \n                            external       \n    {\n        flightSuretyData.voteAirlineIn(airlineCastedVoteFor, msg.sender);   \n    }\n\n    function fundAirlineApp\n                            (\n                                address airline\n                            )\n                            public\n                            payable\n    {\n        // Airline must be registered first\n        require(msg.value >= airlineFundingRequirement, \"Not sufficient funds sent\");\n\n        uint256 overpaid = msg.value.sub(airlineFundingRequirement);\n        address payable _sender = payable(msg.sender);\n        _sender.transfer(overpaid);\n\n        flightSuretyData.fundAirline{value: airlineFundingRequirement}(airline);\n\n    }\n\n    function buyInsuranceApp\n                            (         \n                                string calldata flightName\n\n                            )\n                            external\n                            payable\n    {\n        bytes32 _flightID = getFlightID(flightName);\n        require(flights[_flightID].isRegistered,\"Flight not yet registered\");\n        uint256 alreadyPaidIn = flightSuretyData.getPayOutAmount(msg.sender, flightName);\n        uint256 addPayOut = msg.value.mul(payOutMultiple).div(100);\n        require(alreadyPaidIn.add(addPayOut) <= maxInsurancePayOut, \"Additional insurance leads to overinsurance\");\n        flightSuretyData.buyInsurance{value: msg.value}(msg.sender, _flightID, addPayOut);\n    }\nfunction withdrawApp       (\n                            )\n                            public\n                            requireIsOperational\n{\n    flightSuretyData.withdraw(msg.sender);\n}\n// region ORACLE MANAGEMENT\n\n    // Incremented to add pseudo-randomness at various points\n    uint8 private nonce = 0;    \n\n    // Fee to be paid when registering oracle\n    uint256 public constant REGISTRATION_FEE = 1 ether;\n\n    // Number of oracles that must respond for valid status\n    uint256 private constant MIN_RESPONSES = 3;\n\n\n    struct Oracle {\n        bool isRegistered;\n        uint8[3] indexes;        \n    }\n\n    // Track all registered oracles\n    mapping(address => Oracle) private oracles;\n\n    // Model for responses from oracles\n    struct ResponseInfo {\n        address requester;                              // Account that requested status\n        bool isOpen;                                    // If open, oracle responses are accepted\n        mapping(uint8 => address[]) responses;          // Mapping key is the status code reported\n                                                        // This lets us group responses and identify\n                                                        // the response that majority of the oracles\n    }\n\n    // Track all oracle responses\n    // Key = hash(index, flight, timestamp)\n    mapping(bytes32 => ResponseInfo) private oracleResponses;\n\n    // Event fired each time an oracle submits a response\n    event FlightStatusInfo(address airline, string flight, uint256 timestamp, uint8 status);\n\n    event OracleReport(address airline, string flight, uint256 timestamp, uint8 status);\n\n    // Event fired when flight status request is submitted\n    // Oracles track this and if they have a matching index\n    // they fetch data and submit a response\n    event OracleRequest(uint8 index, address airline, string flight, uint256 timestamp);\n\n\n    // Register an oracle with the contract\n    function registerOracle\n                            (\n                            )\n                            external\n                            payable\n    {\n        // Require registration fee\n        require(msg.value >= REGISTRATION_FEE, \"Registration fee is required\");\n\n        uint8[3] memory indexes = generateIndexes(msg.sender);\n\n        oracles[msg.sender] = Oracle({\n                                        isRegistered: true,\n                                        indexes: indexes\n                                    });\n    }\n\n    function getMyIndexes\n                            (\n                            )\n                            view\n                            external\n                            returns(uint8[3] memory)\n    {\n        require(oracles[msg.sender].isRegistered, \"Not registered as an oracle\");\n\n        return oracles[msg.sender].indexes;\n    }\n\n\n\n\n    // Called by oracle when a response is available to an outstanding request\n    // For the response to be accepted, there must be a pending request that is open\n    // and matches one of the three Indexes randomly assigned to the oracle at the\n    // time of registration (i.e. uninvited oracles are not welcome)\n    function submitOracleResponse\n                        (\n                            uint8 index,\n                            address airline,\n                            string calldata flight,\n                            uint256 timestamp,\n                            uint8 statusCode\n                        )\n                        external\n    {\n        require((oracles[msg.sender].indexes[0] == index) || (oracles[msg.sender].indexes[1] == index) || (oracles[msg.sender].indexes[2] == index), \"Index does not match oracle request\");\n\n\n        bytes32 key = keccak256(abi.encodePacked(index, airline, flight, timestamp)); \n        require(oracleResponses[key].isOpen, \"Flight or timestamp do not match oracle request\");\n\n        oracleResponses[key].responses[statusCode].push(msg.sender);\n\n        // Information isn't considered verified until at least MIN_RESPONSES\n        // oracles respond with the *** same *** information\n        emit OracleReport(airline, flight, timestamp, statusCode);\n        if (oracleResponses[key].responses[statusCode].length >= MIN_RESPONSES) {\n\n            emit FlightStatusInfo(airline, flight, timestamp, statusCode);\n\n            // Handle flight status as appropriate\n            processFlightStatus(airline, flight, timestamp, statusCode);\n        }\n    }\n\n\n    function getFlightKey\n                        (\n                            address airline,\n                            string memory flight,\n                            uint256 timestamp\n                        )\n                        pure\n                        internal\n                        returns(bytes32) \n    {\n        return keccak256(abi.encodePacked(airline, flight, timestamp));\n    }\n\n    // Returns array of three non-duplicating integers from 0-9\n    function generateIndexes\n                            (                       \n                                address account         \n                            )\n                            internal\n                            returns(uint8[3] memory)\n    {\n        uint8[3] memory indexes;\n        indexes[0] = getRandomIndex(account);\n        \n        indexes[1] = indexes[0];\n        while(indexes[1] == indexes[0]) {\n            indexes[1] = getRandomIndex(account);\n        }\n\n        indexes[2] = indexes[1];\n        while((indexes[2] == indexes[0]) || (indexes[2] == indexes[1])) {\n            indexes[2] = getRandomIndex(account);\n        }\n\n        return indexes;\n    }\n\n    // Returns array of three non-duplicating integers from 0-9\n    function getRandomIndex\n                            (\n                                address account\n                            )\n                            internal\n                            returns (uint8)\n    {\n        uint8 maxValue = 10;\n\n        // Pseudo random number...the incrementing nonce adds variation\n        uint8 random = uint8(uint256(keccak256(abi.encodePacked(blockhash(block.number - nonce++), account))) % maxValue);\n\n        if (nonce > 250) {\n            nonce = 0;  // Can only fetch blockhashes for last 256 blocks so we adapt\n        }\n\n        return random;\n    }\n\n// endregion\n\n}   \n\ncontract FlightSuretyData {\n    function withdraw       (\n                                address _passenger\n                            )\n                            public\n    {\n\n    }\n\n    function getBalance     (\n                                address _passenger\n                            ) \n                            external \n                            view \n                            returns (uint256) \n    {\n    }\n\n    function getPayOutAmount\n                            (\n                                address passengerAddress, \n                                string memory flightName\n                            ) \n                            public \n                            view \n                            returns(uint256)\n    {\n    }\n    function creditInsurees\n                                (\n                                    bytes32 flighID\n                                )\n                                external\n    {\n    }\n    function buyInsurance\n                            (         \n                                address passengerAddress,\n                                bytes32 flightID,\n                                uint256 addPayOutAmount\n\n                            )\n                            external\n                            payable\n    {\n    }\n    \n    function fundAirline\n                            (\n                                address airline\n                            )\n                            public\n                            payable\n    {\n    }\n \n    \n    function voteAirlineIn\n                            (\n                                address airlineCastedVoteFor,\n                                address appUserAddress\n                            ) \n                            external  \n    {\n\n    }\n    function isOperational() \n                            public \n                            view \n                            returns(bool) \n                            \n    {\n    }\n    \n    function setOperatingStatus\n                        (\n                            bool mode,\n                            address appUserAddress\n                        ) \n                        external   \n    {\n        \n    }   \n    \n    \n    function registerAirline\n                            (\n                                address appUserAddress,\n                                address airlineAddress,\n                                string calldata name\n                            )\n                            public\n    {\n    }\n\n    function isVotingAirline(address _address) public view returns(bool)\n    {\n    }\n\n    \n\n    /**\n     *  @dev Transfers eligible payout funds to insuree\n     *\n    */\n    function pay\n                            (\n                            )\n                            external\n                            pure\n    {\n    }\n\n}\n",
  "sourcePath": "/Users/andrelange/CodingProjects/blockchaindev/FS/contracts/FlightSuretyApp.sol",
  "compiler": {
    "name": "solc",
    "version": "0.8.19+commit.7dd6d404.Emscripten.clang"
  },
  "schemaVersion": "3.4.12",
  "updatedAt": "2023-02-24T19:36:58.294Z",
  "networkType": "ethereum",
  "devdoc": {
    "kind": "dev",
    "methods": {
      "constructor": {
        "details": "Contract constructor"
      },
      "registerFlight(string)": {
        "details": "Register a future flight for insuring."
      }
    },
    "version": 1
  },
  "userdoc": {
    "kind": "user",
    "methods": {},
    "version": 1
  }
}