{
  "contractName": "FlightSuretyData",
  "abi": [
    {
      "inputs": [],
      "stateMutability": "nonpayable",
      "type": "constructor"
    },
    {
      "anonymous": false,
      "inputs": [
        {
          "indexed": false,
          "internalType": "address",
          "name": "appUserAddress",
          "type": "address"
        },
        {
          "indexed": false,
          "internalType": "address",
          "name": "airlineAddress",
          "type": "address"
        },
        {
          "indexed": false,
          "internalType": "string",
          "name": "name",
          "type": "string"
        },
        {
          "indexed": false,
          "internalType": "uint256",
          "name": "airlineCount",
          "type": "uint256"
        }
      ],
      "name": "AirlineRegistered",
      "type": "event"
    },
    {
      "anonymous": false,
      "inputs": [
        {
          "indexed": false,
          "internalType": "uint256",
          "name": "voteNumber",
          "type": "uint256"
        },
        {
          "indexed": false,
          "internalType": "address",
          "name": "airlineToVoteFor",
          "type": "address"
        }
      ],
      "name": "AirlineVoteCasted",
      "type": "event"
    },
    {
      "anonymous": false,
      "inputs": [
        {
          "indexed": false,
          "internalType": "address",
          "name": "_passenger",
          "type": "address"
        },
        {
          "indexed": false,
          "internalType": "uint256",
          "name": "creditPaidOut",
          "type": "uint256"
        }
      ],
      "name": "CreditPaidOut",
      "type": "event"
    },
    {
      "anonymous": false,
      "inputs": [
        {
          "indexed": false,
          "internalType": "string",
          "name": "flight",
          "type": "string"
        },
        {
          "indexed": false,
          "internalType": "uint8",
          "name": "statusCode",
          "type": "uint8"
        }
      ],
      "name": "FlightProcessed",
      "type": "event"
    },
    {
      "anonymous": false,
      "inputs": [
        {
          "indexed": false,
          "internalType": "address[]",
          "name": "insurees",
          "type": "address[]"
        }
      ],
      "name": "InsureesToFund",
      "type": "event"
    },
    {
      "anonymous": false,
      "inputs": [
        {
          "indexed": false,
          "internalType": "address",
          "name": "_insuree",
          "type": "address"
        },
        {
          "indexed": false,
          "internalType": "uint256",
          "name": "payOutAmount",
          "type": "uint256"
        }
      ],
      "name": "PayOutCredited",
      "type": "event"
    },
    {
      "anonymous": false,
      "inputs": [
        {
          "indexed": false,
          "internalType": "uint256",
          "name": "voteNumber",
          "type": "uint256"
        },
        {
          "indexed": false,
          "internalType": "uint256",
          "name": "voteHurdle",
          "type": "uint256"
        },
        {
          "indexed": false,
          "internalType": "address",
          "name": "airlineToVoteFor",
          "type": "address"
        }
      ],
      "name": "SuccessfulAirlineVoteCasted",
      "type": "event"
    },
    {
      "stateMutability": "payable",
      "type": "fallback",
      "payable": true
    },
    {
      "stateMutability": "payable",
      "type": "receive",
      "payable": true
    },
    {
      "inputs": [
        {
          "internalType": "address",
          "name": "_address",
          "type": "address"
        }
      ],
      "name": "isAirline",
      "outputs": [
        {
          "internalType": "bool",
          "name": "",
          "type": "bool"
        }
      ],
      "stateMutability": "view",
      "type": "function",
      "constant": true
    },
    {
      "inputs": [
        {
          "internalType": "address",
          "name": "_address",
          "type": "address"
        }
      ],
      "name": "isVotingAirline",
      "outputs": [
        {
          "internalType": "bool",
          "name": "",
          "type": "bool"
        }
      ],
      "stateMutability": "view",
      "type": "function",
      "constant": true
    },
    {
      "inputs": [
        {
          "internalType": "address",
          "name": "_address",
          "type": "address"
        }
      ],
      "name": "isFundedAirline",
      "outputs": [
        {
          "internalType": "bool",
          "name": "",
          "type": "bool"
        }
      ],
      "stateMutability": "view",
      "type": "function",
      "constant": true
    },
    {
      "inputs": [
        {
          "internalType": "address",
          "name": "_address",
          "type": "address"
        }
      ],
      "name": "isAcceptedAirline",
      "outputs": [
        {
          "internalType": "bool",
          "name": "",
          "type": "bool"
        }
      ],
      "stateMutability": "view",
      "type": "function",
      "constant": true
    },
    {
      "inputs": [
        {
          "internalType": "address",
          "name": "passengerAddress",
          "type": "address"
        },
        {
          "internalType": "string",
          "name": "flightName",
          "type": "string"
        }
      ],
      "name": "getPayOutAmount",
      "outputs": [
        {
          "internalType": "uint256",
          "name": "",
          "type": "uint256"
        }
      ],
      "stateMutability": "view",
      "type": "function",
      "constant": true
    },
    {
      "inputs": [
        {
          "internalType": "address",
          "name": "appContract",
          "type": "address"
        }
      ],
      "name": "authorizeCaller",
      "outputs": [],
      "stateMutability": "nonpayable",
      "type": "function"
    },
    {
      "inputs": [
        {
          "internalType": "address",
          "name": "appContract",
          "type": "address"
        }
      ],
      "name": "deauthorizeCaller",
      "outputs": [],
      "stateMutability": "nonpayable",
      "type": "function"
    },
    {
      "inputs": [],
      "name": "isOperational",
      "outputs": [
        {
          "internalType": "bool",
          "name": "",
          "type": "bool"
        }
      ],
      "stateMutability": "view",
      "type": "function",
      "constant": true
    },
    {
      "inputs": [
        {
          "internalType": "bool",
          "name": "mode",
          "type": "bool"
        },
        {
          "internalType": "address",
          "name": "appUserAddress",
          "type": "address"
        }
      ],
      "name": "setOperatingStatus",
      "outputs": [],
      "stateMutability": "nonpayable",
      "type": "function"
    },
    {
      "inputs": [
        {
          "internalType": "address",
          "name": "_passenger",
          "type": "address"
        }
      ],
      "name": "getBalance",
      "outputs": [
        {
          "internalType": "uint256",
          "name": "",
          "type": "uint256"
        }
      ],
      "stateMutability": "view",
      "type": "function",
      "constant": true
    },
    {
      "inputs": [
        {
          "internalType": "address",
          "name": "appUserAddress",
          "type": "address"
        },
        {
          "internalType": "address",
          "name": "airlineAddress",
          "type": "address"
        },
        {
          "internalType": "string",
          "name": "name",
          "type": "string"
        }
      ],
      "name": "registerAirline",
      "outputs": [],
      "stateMutability": "nonpayable",
      "type": "function"
    },
    {
      "inputs": [
        {
          "internalType": "address",
          "name": "airlineCastedVoteFor",
          "type": "address"
        },
        {
          "internalType": "address",
          "name": "appUserAddress",
          "type": "address"
        }
      ],
      "name": "voteAirlineIn",
      "outputs": [],
      "stateMutability": "nonpayable",
      "type": "function"
    },
    {
      "inputs": [],
      "name": "resetAirlineVote",
      "outputs": [],
      "stateMutability": "nonpayable",
      "type": "function"
    },
    {
      "inputs": [
        {
          "internalType": "address",
          "name": "passengerAddress",
          "type": "address"
        },
        {
          "internalType": "bytes32",
          "name": "flightID",
          "type": "bytes32"
        },
        {
          "internalType": "uint256",
          "name": "addPayOutAmount",
          "type": "uint256"
        }
      ],
      "name": "buyInsurance",
      "outputs": [],
      "stateMutability": "payable",
      "type": "function",
      "payable": true
    },
    {
      "inputs": [
        {
          "internalType": "bytes32",
          "name": "flightID",
          "type": "bytes32"
        }
      ],
      "name": "creditInsurees",
      "outputs": [],
      "stateMutability": "nonpayable",
      "type": "function"
    },
    {
      "inputs": [
        {
          "internalType": "address",
          "name": "_passenger",
          "type": "address"
        }
      ],
      "name": "withdraw",
      "outputs": [],
      "stateMutability": "nonpayable",
      "type": "function"
    },
    {
      "inputs": [
        {
          "internalType": "address",
          "name": "airline",
          "type": "address"
        }
      ],
      "name": "fundAirline",
      "outputs": [],
      "stateMutability": "payable",
      "type": "function",
      "payable": true
    }
  ],
  "bytecode": "0x60806040526001600760006101000a81548160ff021916908315150217905550600067ffffffffffffffff8111156200003d576200003c620003d3565b5b6040519080825280602002602001820160405280156200006c5781602001602082028036833780820191505090505b50600890805190602001906200008492919062000325565b506000600955600067ffffffffffffffff811115620000a857620000a7620003d3565b5b604051908082528060200260200182016040528015620000d75781602001602082028036833780820191505090505b50600a9080519060200190620000ef92919062000325565b50348015620000fd57600080fd5b5033600560006101000a81548173ffffffffffffffffffffffffffffffffffffffff021916908373ffffffffffffffffffffffffffffffffffffffff1602179055506040518060400160405280601681526020017f436f6e7472616374206f776e65722041697277617973000000000000000000008152506000803373ffffffffffffffffffffffffffffffffffffffff1673ffffffffffffffffffffffffffffffffffffffff1681526020019081526020016000206000019081620001c491906200064d565b5060016000803373ffffffffffffffffffffffffffffffffffffffff1673ffffffffffffffffffffffffffffffffffffffff16815260200190815260200160002060010160006101000a81548160ff02191690831515021790555060016000803373ffffffffffffffffffffffffffffffffffffffff1673ffffffffffffffffffffffffffffffffffffffff16815260200190815260200160002060010160016101000a81548160ff02191690831515021790555060016000803373ffffffffffffffffffffffffffffffffffffffff1673ffffffffffffffffffffffffffffffffffffffff16815260200190815260200160002060020181905550600180819055506001600660003373ffffffffffffffffffffffffffffffffffffffff1673ffffffffffffffffffffffffffffffffffffffff16815260200190815260200160002060006101000a81548160ff02191690831515021790555062000734565b828054828255906000526020600020908101928215620003a1579160200282015b82811115620003a05782518260006101000a81548173ffffffffffffffffffffffffffffffffffffffff021916908373ffffffffffffffffffffffffffffffffffffffff1602179055509160200191906001019062000346565b5b509050620003b09190620003b4565b5090565b5b80821115620003cf576000816000905550600101620003b5565b5090565b7f4e487b7100000000000000000000000000000000000000000000000000000000600052604160045260246000fd5b600081519050919050565b7f4e487b7100000000000000000000000000000000000000000000000000000000600052602260045260246000fd5b600060028204905060018216806200045557607f821691505b6020821081036200046b576200046a6200040d565b5b50919050565b60008190508160005260206000209050919050565b60006020601f8301049050919050565b600082821b905092915050565b600060088302620004d57fffffffffffffffffffffffffffffffffffffffffffffffffffffffffffffffff8262000496565b620004e1868362000496565b95508019841693508086168417925050509392505050565b6000819050919050565b6000819050919050565b60006200052e620005286200052284620004f9565b62000503565b620004f9565b9050919050565b6000819050919050565b6200054a836200050d565b62000562620005598262000535565b848454620004a3565b825550505050565b600090565b620005796200056a565b620005868184846200053f565b505050565b5b81811015620005ae57620005a26000826200056f565b6001810190506200058c565b5050565b601f821115620005fd57620005c78162000471565b620005d28462000486565b81016020851015620005e2578190505b620005fa620005f18562000486565b8301826200058b565b50505b505050565b600082821c905092915050565b6000620006226000198460080262000602565b1980831691505092915050565b60006200063d83836200060f565b9150826002028217905092915050565b620006588262000402565b67ffffffffffffffff811115620006745762000673620003d3565b5b6200068082546200043c565b6200068d828285620005b2565b600060209050601f831160018114620006c55760008415620006b0578287015190505b620006bc85826200062f565b8655506200072c565b601f198416620006d58662000471565b60005b82811015620006ff57848901518255600182019150602085019450602081019050620006d8565b868310156200071f57848901516200071b601f8916826200060f565b8355505b6001600288020188555050505b505050505050565b613d3380620007446000396000f3fe6080604052600436106101025760003560e01c80636873c21d11610095578063cc2f6eba11610064578063cc2f6eba1461032d578063cd905dff14610356578063efefe15c14610381578063f3ba4e1b14610398578063f8b2cb4f146103d557610109565b80636873c21d146102825780636fbb8798146102ab57806380c575f0146102c7578063c590dda51461030457610109565b80633321a9c1116100d15780633321a9c1146101d757806348b219ea146102005780634f829e371461023d57806351cff8d91461025957610109565b806304016c281461010b5780630e248a11146101485780632c388d5d146101855780633010f50f146101ae57610109565b3661010957005b005b34801561011757600080fd5b50610132600480360381019061012d91906129e5565b610412565b60405161013f9190612a5a565b60405180910390f35b34801561015457600080fd5b5061016f600480360381019061016a9190612a75565b610483565b60405161017c9190612abd565b60405180910390f35b34801561019157600080fd5b506101ac60048036038101906101a79190612a75565b6104e6565b005b3480156101ba57600080fd5b506101d560048036038101906101d09190612b38565b610664565b005b3480156101e357600080fd5b506101fe60048036038101906101f99190612bac565b610a2a565b005b34801561020c57600080fd5b5061022760048036038101906102229190612a75565b610e8b565b6040516102349190612abd565b60405180910390f35b61025760048036038101906102529190612c4e565b610f99565b005b34801561026557600080fd5b50610280600480360381019061027b9190612a75565b6111f1565b005b34801561028e57600080fd5b506102a960048036038101906102a49190612a75565b611513565b005b6102c560048036038101906102c09190612a75565b6115f5565b005b3480156102d357600080fd5b506102ee60048036038101906102e99190612a75565b61188a565b6040516102fb9190612abd565b60405180910390f35b34801561031057600080fd5b5061032b60048036038101906103269190612ccd565b611965565b005b34801561033957600080fd5b50610354600480360381019061034f9190612d0d565b611c9f565b005b34801561036257600080fd5b5061036b612058565b6040516103789190612abd565b60405180910390f35b34801561038d57600080fd5b5061039661213c565b005b3480156103a457600080fd5b506103bf60048036038101906103ba9190612a75565b612303565b6040516103cc9190612abd565b60405180910390f35b3480156103e157600080fd5b506103fc60048036038101906103f79190612a75565b6123de565b6040516104099190612a5a565b60405180910390f35b60008061041e8361242a565b90506000600360008673ffffffffffffffffffffffffffffffffffffffff1673ffffffffffffffffffffffffffffffffffffffff1681526020019081526020016000206000016000838152602001908152602001600020549050809250505092915050565b60008060008060008573ffffffffffffffffffffffffffffffffffffffff1673ffffffffffffffffffffffffffffffffffffffff16815260200190815260200160002060020154146104d857600190506104dd565b600090505b80915050919050565b600560009054906101000a900473ffffffffffffffffffffffffffffffffffffffff1673ffffffffffffffffffffffffffffffffffffffff163373ffffffffffffffffffffffffffffffffffffffff1614610576576040517f08c379a000000000000000000000000000000000000000000000000000000000815260040161056d90612d97565b60405180910390fd5b60011515600660008373ffffffffffffffffffffffffffffffffffffffff1673ffffffffffffffffffffffffffffffffffffffff16815260200190815260200160002060009054906101000a900460ff16151503610609576040517f08c379a000000000000000000000000000000000000000000000000000000000815260040161060090612e03565b60405180910390fd5b6001600660008373ffffffffffffffffffffffffffffffffffffffff1673ffffffffffffffffffffffffffffffffffffffff16815260200190815260200160002060006101000a81548160ff02191690831515021790555050565b600660003373ffffffffffffffffffffffffffffffffffffffff1673ffffffffffffffffffffffffffffffffffffffff16815260200190815260200160002060009054906101000a900460ff166106d03373ffffffffffffffffffffffffffffffffffffffff1661245a565b6040516020016106e09190612eba565b60405160208183030381529060405290610730576040517f08c379a00000000000000000000000000000000000000000000000000000000081526004016107279190612f19565b60405180910390fd5b5060008060008573ffffffffffffffffffffffffffffffffffffffff1673ffffffffffffffffffffffffffffffffffffffff16815260200190815260200160002060020154146107b5576040517f08c379a00000000000000000000000000000000000000000000000000000000081526004016107ac90612f87565b60405180910390fd5b600060095414806107c95750600360015411155b610808576040517f08c379a00000000000000000000000000000000000000000000000000000000081526004016107ff9061303f565b60405180910390fd5b61081d6001805461247890919063ffffffff16565b6001819055506001546000808573ffffffffffffffffffffffffffffffffffffffff1673ffffffffffffffffffffffffffffffffffffffff1681526020019081526020016000206002018190555081816000808673ffffffffffffffffffffffffffffffffffffffff1673ffffffffffffffffffffffffffffffffffffffff16815260200190815260200160002060000191826108bb929190613276565b5060008060008573ffffffffffffffffffffffffffffffffffffffff1673ffffffffffffffffffffffffffffffffffffffff16815260200190815260200160002060010160006101000a81548160ff02191690831515021790555060046001541161097f5760016000808573ffffffffffffffffffffffffffffffffffffffff1673ffffffffffffffffffffffffffffffffffffffff16815260200190815260200160002060010160016101000a81548160ff0219169083151502179055506109e3565b60008060008573ffffffffffffffffffffffffffffffffffffffff1673ffffffffffffffffffffffffffffffffffffffff16815260200190815260200160002060010160016101000a81548160ff0219169083151502179055506001546009819055505b7f7c81f79eab4627deb57aacf469e9eebbf5fe2c5f3c0043604d706bfa31b5e68284848484600154604051610a1c959493929190613382565b60405180910390a150505050565b600660003373ffffffffffffffffffffffffffffffffffffffff1673ffffffffffffffffffffffffffffffffffffffff16815260200190815260200160002060009054906101000a900460ff16610a963373ffffffffffffffffffffffffffffffffffffffff1661245a565b604051602001610aa69190612eba565b60405160208183030381529060405290610af6576040517f08c379a0000000000000000000000000000000000000000000000000000000008152600401610aed9190612f19565b60405180910390fd5b50610b0081610e8b565b610b3f576040517f08c379a0000000000000000000000000000000000000000000000000000000008152600401610b3690613442565b60405180910390fd5b6009546000808473ffffffffffffffffffffffffffffffffffffffff1673ffffffffffffffffffffffffffffffffffffffff1681526020019081526020016000206002015414610bc4576040517f08c379a0000000000000000000000000000000000000000000000000000000008152600401610bbb906134d4565b60405180910390fd5b6000805b600a80549050811015610c62578273ffffffffffffffffffffffffffffffffffffffff16600a8281548110610c0057610bff6134f4565b5b9060005260206000200160009054906101000a900473ffffffffffffffffffffffffffffffffffffffff1673ffffffffffffffffffffffffffffffffffffffff1603610c4f5760019150610c62565b8080610c5a90613552565b915050610bc8565b508015610ca4576040517f08c379a0000000000000000000000000000000000000000000000000000000008152600401610c9b9061360c565b60405180910390fd5b600a829080600181540180825580915050600190039060005260206000200160009091909190916101000a81548173ffffffffffffffffffffffffffffffffffffffff021916908373ffffffffffffffffffffffffffffffffffffffff1602179055506000610d316002610d236001805461248e90919063ffffffff16565b6124a490919063ffffffff16565b905080600a8054905010610e465760016000808673ffffffffffffffffffffffffffffffffffffffff1673ffffffffffffffffffffffffffffffffffffffff16815260200190815260200160002060010160016101000a81548160ff0219169083151502179055507faa4890b939dba4137ffd9f92ea70f2188df55db0adacd19e1f6f432738ebfedb600a805490508286604051610dd19392919061362c565b60405180910390a16000600981905550600067ffffffffffffffff811115610dfc57610dfb6128ba565b5b604051908082528060200260200182016040528015610e2a5781602001602082028036833780820191505090505b50600a9080519060200190610e40929190612786565b50610e85565b7f51f47c86b6e0d6597c0bf7f828aeb805bf37e26b99d4a43d1061706ddce66358600a8054905085604051610e7c929190613663565b60405180910390a15b50505050565b6000806000905060008060008573ffffffffffffffffffffffffffffffffffffffff1673ffffffffffffffffffffffffffffffffffffffff1681526020019081526020016000206002015414158015610f2f57506000808473ffffffffffffffffffffffffffffffffffffffff1673ffffffffffffffffffffffffffffffffffffffff16815260200190815260200160002060010160009054906101000a900460ff165b8015610f8657506000808473ffffffffffffffffffffffffffffffffffffffff1673ffffffffffffffffffffffffffffffffffffffff16815260200190815260200160002060010160019054906101000a900460ff165b15610f9057600190505b80915050919050565b600660003373ffffffffffffffffffffffffffffffffffffffff1673ffffffffffffffffffffffffffffffffffffffff16815260200190815260200160002060009054906101000a900460ff166110053373ffffffffffffffffffffffffffffffffffffffff1661245a565b6040516020016110159190612eba565b60405160208183030381529060405290611065576040517f08c379a000000000000000000000000000000000000000000000000000000000815260040161105c9190612f19565b60405180910390fd5b50600760009054906101000a900460ff166110b5576040517f08c379a00000000000000000000000000000000000000000000000000000000081526004016110ac906136fe565b60405180910390fd5b6000600360008573ffffffffffffffffffffffffffffffffffffffff1673ffffffffffffffffffffffffffffffffffffffff1681526020019081526020016000206000016000848152602001908152602001600020549050611120828261247890919063ffffffff16565b600360008673ffffffffffffffffffffffffffffffffffffffff1673ffffffffffffffffffffffffffffffffffffffff16815260200190815260200160002060000160008581526020019081526020016000208190555060026000848152602001908152602001600020849080600181540180825580915050600190039060005260206000200160009091909190916101000a81548173ffffffffffffffffffffffffffffffffffffffff021916908373ffffffffffffffffffffffffffffffffffffffff16021790555050505050565b600760009054906101000a900460ff16611240576040517f08c379a0000000000000000000000000000000000000000000000000000000008152600401611237906136fe565b60405180910390fd5b600660003373ffffffffffffffffffffffffffffffffffffffff1673ffffffffffffffffffffffffffffffffffffffff16815260200190815260200160002060009054906101000a900460ff166112ac3373ffffffffffffffffffffffffffffffffffffffff1661245a565b6040516020016112bc9190612eba565b6040516020818303038152906040529061130c576040517f08c379a00000000000000000000000000000000000000000000000000000000081526004016113039190612f19565b60405180910390fd5b503273ffffffffffffffffffffffffffffffffffffffff168173ffffffffffffffffffffffffffffffffffffffff161461137b576040517f08c379a000000000000000000000000000000000000000000000000000000000815260040161137290613790565b60405180910390fd5b6000600360008373ffffffffffffffffffffffffffffffffffffffff1673ffffffffffffffffffffffffffffffffffffffff1681526020019081526020016000206001015411611400576040517f08c379a00000000000000000000000000000000000000000000000000000000081526004016113f790613822565b60405180910390fd5b6000600360008373ffffffffffffffffffffffffffffffffffffffff1673ffffffffffffffffffffffffffffffffffffffff1681526020019081526020016000206001015490506000600360008473ffffffffffffffffffffffffffffffffffffffff1673ffffffffffffffffffffffffffffffffffffffff168152602001908152602001600020600101819055508173ffffffffffffffffffffffffffffffffffffffff166108fc829081150290604051600060405180830381858888f193505050501580156114d5573d6000803e3d6000fd5b507f1b9cd3bbbcfc1d27b9489faa85210e6851947796baaf2dfb6d049a9eedcdb3b78282604051611507929190613842565b60405180910390a15050565b600560009054906101000a900473ffffffffffffffffffffffffffffffffffffffff1673ffffffffffffffffffffffffffffffffffffffff163373ffffffffffffffffffffffffffffffffffffffff16146115a3576040517f08c379a000000000000000000000000000000000000000000000000000000000815260040161159a90612d97565b60405180910390fd5b600660008273ffffffffffffffffffffffffffffffffffffffff1673ffffffffffffffffffffffffffffffffffffffff16815260200190815260200160002060006101000a81549060ff021916905550565b600660003373ffffffffffffffffffffffffffffffffffffffff1673ffffffffffffffffffffffffffffffffffffffff16815260200190815260200160002060009054906101000a900460ff166116613373ffffffffffffffffffffffffffffffffffffffff1661245a565b6040516020016116719190612eba565b604051602081830303815290604052906116c1576040517f08c379a00000000000000000000000000000000000000000000000000000000081526004016116b89190612f19565b60405180910390fd5b50600760009054906101000a900460ff16611711576040517f08c379a0000000000000000000000000000000000000000000000000000000008152600401611708906136fe565b60405180910390fd5b60008060008373ffffffffffffffffffffffffffffffffffffffff1673ffffffffffffffffffffffffffffffffffffffff1681526020019081526020016000206002015403611795576040517f08c379a000000000000000000000000000000000000000000000000000000000815260040161178c906138dd565b60405180910390fd5b60016000808373ffffffffffffffffffffffffffffffffffffffff1673ffffffffffffffffffffffffffffffffffffffff16815260200190815260200160002060010160006101000a81548160ff021916908315150217905561182d576040517f08c379a000000000000000000000000000000000000000000000000000000000815260040161182490613949565b60405180910390fd5b60016000808373ffffffffffffffffffffffffffffffffffffffff1673ffffffffffffffffffffffffffffffffffffffff16815260200190815260200160002060010160006101000a81548160ff02191690831515021790555050565b6000806000808473ffffffffffffffffffffffffffffffffffffffff1673ffffffffffffffffffffffffffffffffffffffff168152602001908152602001600020600201540361190f576040517f08c379a0000000000000000000000000000000000000000000000000000000008152600401611906906139b5565b60405180910390fd5b6000808373ffffffffffffffffffffffffffffffffffffffff1673ffffffffffffffffffffffffffffffffffffffff16815260200190815260200160002060010160019054906101000a900460ff169050919050565b600660003373ffffffffffffffffffffffffffffffffffffffff1673ffffffffffffffffffffffffffffffffffffffff16815260200190815260200160002060009054906101000a900460ff166119d13373ffffffffffffffffffffffffffffffffffffffff1661245a565b6040516020016119e19190612eba565b60405160208183030381529060405290611a31576040517f08c379a0000000000000000000000000000000000000000000000000000000008152600401611a289190612f19565b60405180910390fd5b50611a3b81610e8b565b611a7a576040517f08c379a0000000000000000000000000000000000000000000000000000000008152600401611a7190613442565b60405180910390fd5b600760009054906101000a900460ff16151582151503611acf576040517f08c379a0000000000000000000000000000000000000000000000000000000008152600401611ac690613a47565b60405180910390fd5b6000805b600880549050811015611b6d578273ffffffffffffffffffffffffffffffffffffffff1660088281548110611b0b57611b0a6134f4565b5b9060005260206000200160009054906101000a900473ffffffffffffffffffffffffffffffffffffffff1673ffffffffffffffffffffffffffffffffffffffff1603611b5a5760019150611b6d565b8080611b6590613552565b915050611ad3565b508015611baf576040517f08c379a0000000000000000000000000000000000000000000000000000000008152600401611ba69061360c565b60405180910390fd5b6008829080600181540180825580915050600190039060005260206000200160009091909190916101000a81548173ffffffffffffffffffffffffffffffffffffffff021916908373ffffffffffffffffffffffffffffffffffffffff160217905550600260088054905010611c9a5782600760006101000a81548160ff021916908315150217905550600067ffffffffffffffff811115611c5457611c536128ba565b5b604051908082528060200260200182016040528015611c825781602001602082028036833780820191505090505b5060089080519060200190611c98929190612786565b505b505050565b600660003373ffffffffffffffffffffffffffffffffffffffff1673ffffffffffffffffffffffffffffffffffffffff16815260200190815260200160002060009054906101000a900460ff16611d0b3373ffffffffffffffffffffffffffffffffffffffff1661245a565b604051602001611d1b9190612eba565b60405160208183030381529060405290611d6b576040517f08c379a0000000000000000000000000000000000000000000000000000000008152600401611d629190612f19565b60405180910390fd5b50600760009054906101000a900460ff16611dbb576040517f08c379a0000000000000000000000000000000000000000000000000000000008152600401611db2906136fe565b60405180910390fd5b600060026000838152602001908152602001600020805480602002602001604051908101604052809291908181526020018280548015611e5057602002820191906000526020600020905b8160009054906101000a900473ffffffffffffffffffffffffffffffffffffffff1673ffffffffffffffffffffffffffffffffffffffff1681526020019060010190808311611e06575b505050505090507ffe9b576c07e4e37458707f428b6798836f6c9c37b0c2f39d5be8c9b1b7f1205a81604051611e869190613b25565b60405180910390a160005b8151811015612053576000828281518110611eaf57611eae6134f4565b5b602002602001015190506000600360008373ffffffffffffffffffffffffffffffffffffffff1673ffffffffffffffffffffffffffffffffffffffff16815260200190815260200160002060000160008681526020019081526020016000205490506000600360008473ffffffffffffffffffffffffffffffffffffffff1673ffffffffffffffffffffffffffffffffffffffff168152602001908152602001600020600001600087815260200190815260200160002081905550611fbf81600360008573ffffffffffffffffffffffffffffffffffffffff1673ffffffffffffffffffffffffffffffffffffffff1681526020019081526020016000206001015461247890919063ffffffff16565b600360008473ffffffffffffffffffffffffffffffffffffffff1673ffffffffffffffffffffffffffffffffffffffff168152602001908152602001600020600101819055507f64caef992448a6069e07b26cd29ec4b6242e756924391d666b5b329b2ab305098282604051612036929190613842565b60405180910390a15050808061204b90613552565b915050611e91565b505050565b6000600660003373ffffffffffffffffffffffffffffffffffffffff1673ffffffffffffffffffffffffffffffffffffffff16815260200190815260200160002060009054906101000a900460ff166120c63373ffffffffffffffffffffffffffffffffffffffff1661245a565b6040516020016120d69190612eba565b60405160208183030381529060405290612126576040517f08c379a000000000000000000000000000000000000000000000000000000000815260040161211d9190612f19565b60405180910390fd5b50600760009054906101000a900460ff16905090565b600660003373ffffffffffffffffffffffffffffffffffffffff1673ffffffffffffffffffffffffffffffffffffffff16815260200190815260200160002060009054906101000a900460ff166121a83373ffffffffffffffffffffffffffffffffffffffff1661245a565b6040516020016121b89190612eba565b60405160208183030381529060405290612208576040517f08c379a00000000000000000000000000000000000000000000000000000000081526004016121ff9190612f19565b60405180910390fd5b50600560009054906101000a900473ffffffffffffffffffffffffffffffffffffffff1673ffffffffffffffffffffffffffffffffffffffff163373ffffffffffffffffffffffffffffffffffffffff1614612299576040517f08c379a000000000000000000000000000000000000000000000000000000000815260040161229090612d97565b60405180910390fd5b6000600981905550600067ffffffffffffffff8111156122bc576122bb6128ba565b5b6040519080825280602002602001820160405280156122ea5781602001602082028036833780820191505090505b50600a9080519060200190612300929190612786565b50565b6000806000808473ffffffffffffffffffffffffffffffffffffffff1673ffffffffffffffffffffffffffffffffffffffff1681526020019081526020016000206002015403612388576040517f08c379a000000000000000000000000000000000000000000000000000000000815260040161237f906139b5565b60405180910390fd5b6000808373ffffffffffffffffffffffffffffffffffffffff1673ffffffffffffffffffffffffffffffffffffffff16815260200190815260200160002060010160009054906101000a900460ff169050919050565b6000600360008373ffffffffffffffffffffffffffffffffffffffff1673ffffffffffffffffffffffffffffffffffffffff168152602001908152602001600020600101549050919050565b60008160405160200161243d9190613b47565b604051602081830303815290604052805190602001209050919050565b606061247182600161246b856124ba565b0161254a565b9050919050565b600081836124869190613b5e565b905092915050565b6000818361249c9190613b92565b905092915050565b600081836124b29190613bf5565b905092915050565b600080600090506000608084901c11156124dc57608083901c92506010810190505b6000604084901c11156124f757604083901c92506008810190505b6000602084901c111561251257602083901c92506004810190505b6000601084901c111561252d57601083901c92506002810190505b6000600884901c1115612541576001810190505b80915050919050565b60606000600283600261255d9190613c26565b6125679190613b5e565b67ffffffffffffffff8111156125805761257f6128ba565b5b6040519080825280601f01601f1916602001820160405280156125b25781602001600182028036833780820191505090505b5090507f3000000000000000000000000000000000000000000000000000000000000000816000815181106125ea576125e96134f4565b5b60200101907effffffffffffffffffffffffffffffffffffffffffffffffffffffffffffff1916908160001a9053507f78000000000000000000000000000000000000000000000000000000000000008160018151811061264e5761264d6134f4565b5b60200101907effffffffffffffffffffffffffffffffffffffffffffffffffffffffffffff1916908160001a9053506000600184600261268e9190613c26565b6126989190613b5e565b90505b6001811115612738577f3031323334353637383961626364656600000000000000000000000000000000600f8616601081106126da576126d96134f4565b5b1a60f81b8282815181106126f1576126f06134f4565b5b60200101907effffffffffffffffffffffffffffffffffffffffffffffffffffffffffffff1916908160001a905350600485901c94508061273190613c68565b905061269b565b506000841461277c576040517f08c379a000000000000000000000000000000000000000000000000000000000815260040161277390613cdd565b60405180910390fd5b8091505092915050565b8280548282559060005260206000209081019282156127ff579160200282015b828111156127fe5782518260006101000a81548173ffffffffffffffffffffffffffffffffffffffff021916908373ffffffffffffffffffffffffffffffffffffffff160217905550916020019190600101906127a6565b5b50905061280c9190612810565b5090565b5b80821115612829576000816000905550600101612811565b5090565b6000604051905090565b600080fd5b600080fd5b600073ffffffffffffffffffffffffffffffffffffffff82169050919050565b600061286c82612841565b9050919050565b61287c81612861565b811461288757600080fd5b50565b60008135905061289981612873565b92915050565b600080fd5b600080fd5b6000601f19601f8301169050919050565b7f4e487b7100000000000000000000000000000000000000000000000000000000600052604160045260246000fd5b6128f2826128a9565b810181811067ffffffffffffffff82111715612911576129106128ba565b5b80604052505050565b600061292461282d565b905061293082826128e9565b919050565b600067ffffffffffffffff8211156129505761294f6128ba565b5b612959826128a9565b9050602081019050919050565b82818337600083830152505050565b600061298861298384612935565b61291a565b9050828152602081018484840111156129a4576129a36128a4565b5b6129af848285612966565b509392505050565b600082601f8301126129cc576129cb61289f565b5b81356129dc848260208601612975565b91505092915050565b600080604083850312156129fc576129fb612837565b5b6000612a0a8582860161288a565b925050602083013567ffffffffffffffff811115612a2b57612a2a61283c565b5b612a37858286016129b7565b9150509250929050565b6000819050919050565b612a5481612a41565b82525050565b6000602082019050612a6f6000830184612a4b565b92915050565b600060208284031215612a8b57612a8a612837565b5b6000612a998482850161288a565b91505092915050565b60008115159050919050565b612ab781612aa2565b82525050565b6000602082019050612ad26000830184612aae565b92915050565b600080fd5b600080fd5b60008083601f840112612af857612af761289f565b5b8235905067ffffffffffffffff811115612b1557612b14612ad8565b5b602083019150836001820283011115612b3157612b30612add565b5b9250929050565b60008060008060608587031215612b5257612b51612837565b5b6000612b608782880161288a565b9450506020612b718782880161288a565b935050604085013567ffffffffffffffff811115612b9257612b9161283c565b5b612b9e87828801612ae2565b925092505092959194509250565b60008060408385031215612bc357612bc2612837565b5b6000612bd18582860161288a565b9250506020612be28582860161288a565b9150509250929050565b6000819050919050565b612bff81612bec565b8114612c0a57600080fd5b50565b600081359050612c1c81612bf6565b92915050565b612c2b81612a41565b8114612c3657600080fd5b50565b600081359050612c4881612c22565b92915050565b600080600060608486031215612c6757612c66612837565b5b6000612c758682870161288a565b9350506020612c8686828701612c0d565b9250506040612c9786828701612c39565b9150509250925092565b612caa81612aa2565b8114612cb557600080fd5b50565b600081359050612cc781612ca1565b92915050565b60008060408385031215612ce457612ce3612837565b5b6000612cf285828601612cb8565b9250506020612d038582860161288a565b9150509250929050565b600060208284031215612d2357612d22612837565b5b6000612d3184828501612c0d565b91505092915050565b600082825260208201905092915050565b7f43616c6c6572206973206e6f7420636f6e7472616374206f776e657200000000600082015250565b6000612d81601c83612d3a565b9150612d8c82612d4b565b602082019050919050565b60006020820190508181036000830152612db081612d74565b9050919050565b7f43616c6c657220697320616c726561647920617574686f72697a656400000000600082015250565b6000612ded601c83612d3a565b9150612df882612db7565b602082019050919050565b60006020820190508181036000830152612e1c81612de0565b9050919050565b600081519050919050565b600081905092915050565b60005b83811015612e57578082015181840152602081019050612e3c565b60008484015250505050565b6000612e6e82612e23565b612e788185612e2e565b9350612e88818560208601612e39565b80840191505092915050565b7f206973206e6f7420617574686f72697a656420636f6e74726163740000000000815250565b6000612ec68284612e63565b9150612ed182612e94565b601b8201915081905092915050565b6000612eeb82612e23565b612ef58185612d3a565b9350612f05818560208601612e39565b612f0e816128a9565b840191505092915050565b60006020820190508181036000830152612f338184612ee0565b905092915050565b7f4169726c696e6520697320616c726561647920726567697374657265642e0000600082015250565b6000612f71601e83612d3a565b9150612f7c82612f3b565b602082019050919050565b60006020820190508181036000830152612fa081612f64565b9050919050565b7f54686572652069732063757272656e746c7920616e20756e66696e697368656460008201527f20726567697374726174696f6e2070726f6365737320676f696e67206f6e2e2060208201527f506c656173652066696e69736820746861742066697273740000000000000000604082015250565b6000613029605883612d3a565b915061303482612fa7565b606082019050919050565b600060208201905081810360008301526130588161301c565b9050919050565b600082905092915050565b7f4e487b7100000000000000000000000000000000000000000000000000000000600052602260045260246000fd5b600060028204905060018216806130b157607f821691505b6020821081036130c4576130c361306a565b5b50919050565b60008190508160005260206000209050919050565b60006020601f8301049050919050565b600082821b905092915050565b60006008830261312c7fffffffffffffffffffffffffffffffffffffffffffffffffffffffffffffffff826130ef565b61313686836130ef565b95508019841693508086168417925050509392505050565b6000819050919050565b600061317361316e61316984612a41565b61314e565b612a41565b9050919050565b6000819050919050565b61318d83613158565b6131a16131998261317a565b8484546130fc565b825550505050565b600090565b6131b66131a9565b6131c1818484613184565b505050565b5b818110156131e5576131da6000826131ae565b6001810190506131c7565b5050565b601f82111561322a576131fb816130ca565b613204846130df565b81016020851015613213578190505b61322761321f856130df565b8301826131c6565b50505b505050565b600082821c905092915050565b600061324d6000198460080261322f565b1980831691505092915050565b6000613266838361323c565b9150826002028217905092915050565b613280838361305f565b67ffffffffffffffff811115613299576132986128ba565b5b6132a38254613099565b6132ae8282856131e9565b6000601f8311600181146132dd57600084156132cb578287013590505b6132d5858261325a565b86555061333d565b601f1984166132eb866130ca565b60005b82811015613313578489013582556001820191506020850194506020810190506132ee565b86831015613330578489013561332c601f89168261323c565b8355505b6001600288020188555050505b50505050505050565b61334f81612861565b82525050565b60006133618385612d3a565b935061336e838584612966565b613377836128a9565b840190509392505050565b60006080820190506133976000830188613346565b6133a46020830187613346565b81810360408301526133b7818587613355565b90506133c66060830184612a4b565b9695505050505050565b7f43616c6c6572206973206e6f742066756e64656420616e64207265676973746560008201527f726564206169726c696e65000000000000000000000000000000000000000000602082015250565b600061342c602b83612d3a565b9150613437826133d0565b604082019050919050565b6000602082019050818103600083015261345b8161341f565b9050919050565b7f566f74652063617374656420666f72207468652077726f6e67206169726c696e60008201527f6500000000000000000000000000000000000000000000000000000000000000602082015250565b60006134be602183612d3a565b91506134c982613462565b604082019050919050565b600060208201905081810360008301526134ed816134b1565b9050919050565b7f4e487b7100000000000000000000000000000000000000000000000000000000600052603260045260246000fd5b7f4e487b7100000000000000000000000000000000000000000000000000000000600052601160045260246000fd5b600061355d82612a41565b91507fffffffffffffffffffffffffffffffffffffffffffffffffffffffffffffffff820361358f5761358e613523565b5b600182019050919050565b7f43616c6c65722068617320616c72656164792063616c6c65642074686973206660008201527f756e6374696f6e2e000000000000000000000000000000000000000000000000602082015250565b60006135f6602883612d3a565b91506136018261359a565b604082019050919050565b60006020820190508181036000830152613625816135e9565b9050919050565b60006060820190506136416000830186612a4b565b61364e6020830185612a4b565b61365b6040830184613346565b949350505050565b60006040820190506136786000830185612a4b565b6136856020830184613346565b9392505050565b7f436f6e74726163742069732063757272656e746c79206e6f74206f706572617460008201527f696f6e616c000000000000000000000000000000000000000000000000000000602082015250565b60006136e8602583612d3a565b91506136f38261368c565b604082019050919050565b60006020820190508181036000830152613717816136db565b9050919050565b7f57697468647261772072657175657374206d757374206f726967696e6174652060008201527f66726f6d2070617373656e67657220697473656c662e00000000000000000000602082015250565b600061377a603683612d3a565b91506137858261371e565b604082019050919050565b600060208201905081810360008301526137a98161376d565b9050919050565b7f4e6f20706179206f757420616d6f756e747320616c6c6f636174656420746f2060008201527f70617373656e6765722e00000000000000000000000000000000000000000000602082015250565b600061380c602a83612d3a565b9150613817826137b0565b604082019050919050565b6000602082019050818103600083015261383b816137ff565b9050919050565b60006040820190506138576000830185613346565b6138646020830184612a4b565b9392505050565b7f4e6f206461746120666f722074686973206169726c696e65207965742e20506c60008201527f65617365207265676973746572206169726c696e652066697273742e00000000602082015250565b60006138c7603c83612d3a565b91506138d28261386b565b604082019050919050565b600060208201905081810360008301526138f6816138ba565b9050919050565b7f6169726c696e6520697320616c72656164792066756c6c792066756e6465642e600082015250565b6000613933602083612d3a565b915061393e826138fd565b602082019050919050565b6000602082019050818103600083015261396281613926565b9050919050565b7f4169726c696e65206e6f7420696e2064617461207365742e0000000000000000600082015250565b600061399f601883612d3a565b91506139aa82613969565b602082019050919050565b600060208201905081810360008301526139ce81613992565b9050919050565b7f4e6577206d6f6465206d75737420626520646966666572656e742066726f6d2060008201527f6578697374696e67206d6f646500000000000000000000000000000000000000602082015250565b6000613a31602d83612d3a565b9150613a3c826139d5565b604082019050919050565b60006020820190508181036000830152613a6081613a24565b9050919050565b600081519050919050565b600082825260208201905092915050565b6000819050602082019050919050565b613a9c81612861565b82525050565b6000613aae8383613a93565b60208301905092915050565b6000602082019050919050565b6000613ad282613a67565b613adc8185613a72565b9350613ae783613a83565b8060005b83811015613b18578151613aff8882613aa2565b9750613b0a83613aba565b925050600181019050613aeb565b5085935050505092915050565b60006020820190508181036000830152613b3f8184613ac7565b905092915050565b6000613b538284612e63565b915081905092915050565b6000613b6982612a41565b9150613b7483612a41565b9250828201905080821115613b8c57613b8b613523565b5b92915050565b6000613b9d82612a41565b9150613ba883612a41565b9250828203905081811115613bc057613bbf613523565b5b92915050565b7f4e487b7100000000000000000000000000000000000000000000000000000000600052601260045260246000fd5b6000613c0082612a41565b9150613c0b83612a41565b925082613c1b57613c1a613bc6565b5b828204905092915050565b6000613c3182612a41565b9150613c3c83612a41565b9250828202613c4a81612a41565b91508282048414831517613c6157613c60613523565b5b5092915050565b6000613c7382612a41565b915060008203613c8657613c85613523565b5b600182039050919050565b7f537472696e67733a20686578206c656e67746820696e73756666696369656e74600082015250565b6000613cc7602083612d3a565b9150613cd282613c91565b602082019050919050565b60006020820190508181036000830152613cf681613cba565b905091905056fea26469706673582212201c752cd17d998d4027cc31084e983f12d5e2abb597faf99f9fed8f13f1957a4164736f6c63430008130033",
  "immutableReferences": {},
  "source": "pragma solidity ^0.8.17; //>=0.4.25;\n\n//import \"../node_modules/openzeppelin-solidity/contracts/math/SafeMath.sol\";\nimport \"@openzeppelin/contracts/utils/math/SafeMath.sol\";\nimport \"@openzeppelin/contracts/utils/Strings.sol\";\n\ncontract FlightSuretyData {\n    using SafeMath for uint256;\n\n    /********************************************************************************************/\n    /*                                       DATA VARIABLES                                     */\n    /********************************************************************************************/\n\n    struct airlineStructType {                                          //struc for airlines\n        string name;                \n        bool isFunded;                                                          // funded\n        bool isAccepted;                                                        // accepted to be airline\n        uint256 ID;                                                             // ID to identify airline\n    }\n\n    mapping(address => airlineStructType) private airlines;\n\n    uint256 airlineCount;\n    \n    // struct insuranceStructType {            //Only index flight - insurees to loop through\n    //     // address passengerAddress;\n    //     //uint256 paidIn;\n    //     address insuree;\n    //     uint256 payOutAmount\n    //     bool alreadCredited;\n    // }\n\n    mapping(bytes32 => address[]) private insureesPerFlight;       //bytes32 maps/refers to id of flight, address[] array of passengers that have insurance for that flight  \n    //mapping(bytes32 => address) private insurances;       //bytes32 maps/refers to id of flight\n\n    // mapping(bytes32 => passengerStrucType) private insurances;     //byes32 maps/refers to id of flight\n\n    struct passengerStructType{\n        mapping (bytes32 => uint256) payOutAmount;          //byes32 maps/refers to id of flightID\n        uint256 credit;\n    }\n    mapping(address => passengerStructType) private passengers;                 \n\n    struct flightStructType {\n        uint8 statusCode;\n        uint256 timeStamp;     \n    }\n\n    mapping (bytes32 => flightStructType) private flights;     //byes32 maps/refers to id of flightID\n    \n    address private contractOwner;                                      // Account used to deploy contract\n    \n    mapping (address => bool) authorizedContracts;                   // App contracts that are allowed by owner to call this data contract\n\n    bool private operational = true;                                    // Blocks all state changes throughout the contract if false\n\n    uint constant M=2;                                                  //Defines number of votes needed set operational status\n    address[] multiCalls = new address[](0);                           //array to identify whether address already voted for setOperational() status\n\n    uint256 airlineToVoteFor = 0;                                       // Which airline is currently voted to be registered - referring to airlineStructType.ID\n    address[] multiCallsAirlineVote = new address[](0);                 //array to identify whether address already voted for voteAirlineIn() status\n\n\n\n    /********************************************************************************************/\n    /*                                       EVENT DEFINITIONS                                  */\n    /********************************************************************************************/\n    event AirlineRegistered(address appUserAddress, address airlineAddress, string name, uint256 airlineCount);\n    event AirlineVoteCasted(uint256 voteNumber, address airlineToVoteFor);\n    event SuccessfulAirlineVoteCasted(uint256 voteNumber, uint256 voteHurdle, address airlineToVoteFor);\n    event CreditPaidOut(address _passenger, uint256 creditPaidOut);\n    event PayOutCredited(address _insuree, uint256 payOutAmount);\n    event FlightProcessed(string flight, uint8 statusCode);\n    event InsureesToFund(address[] insurees);\n     \n\n    /**\n    * @dev Constructor\n    *      The deploying account becomes contractOwner\n    */\n    constructor() {\n        contractOwner = msg.sender;\n        //Contract owner is automtically registered as \n        airlines[msg.sender].name = \"Contract owner Airways\";\n        airlines[msg.sender].isFunded = true;\n        airlines[msg.sender].isAccepted = true;\n        airlines[msg.sender].ID=1;\n\n        //Set airline count for airlines[].ID setting\n        airlineCount = 1;\n\n        authorizedContracts[msg.sender] = true;\n    }\n\n    /********************************************************************************************/\n    /*                                       FUNCTION MODIFIERS                                 */\n    /********************************************************************************************/\n\n    // Modifiers help avoid duplication of code. They are typically used to validate something\n    // before a function is allowed to be executed.\n\n    /**\n    * @dev Modifier that requires the \"operational\" boolean variable to be \"true\"\n    *      This is used on all state changing functions to pause the contract in \n    *      the event there is an issue that needs to be fixed\n    */\n    modifier requireIsOperational() \n    {\n        require(operational, \"Contract is currently not operational\");\n        _;  // All modifiers require an \"_\" which indicates where the function body will be added\n    }\n\n    /**\n    * @dev Modifier that requires the \"ContractOwner\" account to be the function caller\n    */\n    modifier requireContractOwner()\n    {\n        require(msg.sender == contractOwner, \"Caller is not contract owner\");\n        _;\n    }\n\n    modifier requireCallerAuthorized()\n    {\n        require(authorizedContracts[msg.sender], string.concat(Strings.toHexString(uint160(msg.sender)), \" is not authorized contract\"));\n        _;\n    }\n    /**\n    * @dev Modifier that requires caller to be airline\n    *      \n    */\n\n    function isAirline(address _address) external view returns(bool)\n    {\n        bool _isAirline;\n        if (airlines[_address].ID != 0) {\n            _isAirline = true;\n        }  else {\n            _isAirline = false;\n        }\n        return(_isAirline);\n\n    }\n\n    /**\n    * @dev Modifier that requires caller to be airline that can be\n    *      Voting requires funding and being accepted by other airlines\n    */\n    function isVotingAirline(address _address) public view returns(bool)\n    {\n        bool _isVotingAirline; \n        _isVotingAirline = false;\n        if (        (airlines[_address].ID != 0) && \n                    (airlines[_address].isFunded) && \n                    (airlines[_address].isAccepted)) {\n                      _isVotingAirline = true;  \n                    }\n        return(_isVotingAirline);  \n    }\n\n        /**\n    * @dev Function to retrieve airlinedata \n    *      \n    */\n    function isFundedAirline(address _address) public view returns(bool)\n    {\n        require(airlines[_address].ID != 0, \"Airline not in data set.\");\n        return(airlines[_address].isFunded);  \n    }\n    function isAcceptedAirline(address _address) public view returns(bool)\n    {\n        require(airlines[_address].ID != 0, \"Airline not in data set.\");\n        return(airlines[_address].isAccepted);  \n    }\n\n\n    function getPayOutAmount(address passengerAddress, string memory flightName) public view returns(uint256)\n    {\n        bytes32 flightID = getFlightID(flightName);\n        uint256 _payOutAmount = passengers[passengerAddress].payOutAmount[flightID];\n        return(_payOutAmount);\n    }\n\n    /********************************************************************************************/\n    /*                                 REFERENCE DATA APP CONTRACT  FUNCTIONS                   */\n    /********************************************************************************************/\n     \n    function authorizeCaller(address appContract) \n                                                    public \n                                                    requireContractOwner \n    {\n        require(authorizedContracts[appContract] != true, \"Caller is already authorized\");\n        authorizedContracts[appContract] = true;\n    } \n\n    function deauthorizeCaller(address appContract) \n                                                    public \n                                                    requireContractOwner {\n        delete authorizedContracts[appContract];\n    } \n    /********************************************************************************************/\n    /*                                       UTILITY FUNCTIONS                                  */\n    /********************************************************************************************/\n\n    /**\n    * @dev Get operating status of contract\n    *\n    * @return A bool that is the current operating status\n    */      \n    function isOperational() \n                            public \n                            view \n                            requireCallerAuthorized\n                            returns(bool) \n\n    {\n        return operational;\n    }\n\n\n    /**\n    * @dev Sets contract operations on/off\n    *\n    * When operational mode is disabled, all write transactions except for this one will fail\n    */    \n    function setOperatingStatus\n                            (\n                                bool mode,\n                                address appUserAddress\n                            ) \n                            external\n                            requireCallerAuthorized                         \n    {\n\n        require(isVotingAirline(appUserAddress), \"Caller is not funded and registered airline\");\n        require(mode != operational, \"New mode must be different from existing mode\");\n        bool isDuplicate = false;\n        for(uint c=0; c<multiCalls.length; c++) {\n            if (multiCalls[c] == appUserAddress) {\n                isDuplicate = true;\n                break;\n            }\n        }\n        require(!isDuplicate, \"Caller has already called this function.\");\n\n        multiCalls.push(appUserAddress);\n        if (multiCalls.length >= M) {\n            operational = mode;      \n            multiCalls = new address[](0);      \n\n    }\n\n    }\n    function getFlightID(string memory _flightName) pure internal returns(bytes32) {\n        return keccak256(abi.encodePacked(_flightName));\n    }\n\n    function getBalance(address _passenger) external view returns (uint256) {\n        return(passengers[_passenger].credit);\n    }\n    /********************************************************************************************/\n    /*                                     SMART CONTRACT FUNCTIONS                             */\n    /********************************************************************************************/\n\n   /**\n    * @dev Add an airline to the registration queue\n    *      Can only be called from FlightSuretyApp contract\n    *\n    */   \n    function registerAirline\n                            (\n                                address appUserAddress,\n                                address airlineAddress,\n                                string calldata name\n                            )\n                            public\n                            requireCallerAuthorized\n\n    {   //First 3 airlines can be registered without vote, afterwards an airline can only be regietered if the voting for the previous airline is concluded\n        require(airlines[airlineAddress].ID==0, \"Airline is already registered.\");\n        require((airlineToVoteFor==0) ||\n                (airlineCount<=3)        , \"There is currently an unfinished registration process going on. Please finish that first\");\n        \n        airlineCount = airlineCount.add(1);\n        airlines[airlineAddress].ID = airlineCount;\n        airlines[airlineAddress].name = name;\n        airlines[airlineAddress].isFunded = false;\n        \n        //The first four airlines are registered/accepted without a vote\n        if (airlineCount<=4) {\n            \n            airlines[airlineAddress].isAccepted = true;\n        } else {\n            airlines[airlineAddress].isAccepted = false;\n\n            \n            // Opening  vote for this airline\n            airlineToVoteFor = airlineCount;\n        }\n        emit AirlineRegistered(appUserAddress, airlineAddress, name, airlineCount);\n    }\n    /**\n    * @dev Sets contract operations on/off\n    *\n    * When operational mode is disabled, all write transactions except for this one will fail\n    */    \n    function voteAirlineIn\n                            (\n                                address airlineCastedVoteFor,\n                                address appUserAddress\n                            ) \n                            external\n                            requireCallerAuthorized                         \n    {\n\n        require(isVotingAirline(appUserAddress), \"Caller is not funded and registered airline\");\n        require(airlines[airlineCastedVoteFor].ID == airlineToVoteFor, \"Vote casted for the wrong airline\");\n        bool isDuplicate = false;\n        for(uint c=0; c<multiCallsAirlineVote.length; c++) {\n            if (multiCallsAirlineVote[c] == appUserAddress) {\n                isDuplicate = true;\n                break;\n            }\n        }\n        require(!isDuplicate, \"Caller has already called this function.\");\n\n        multiCallsAirlineVote.push(appUserAddress);\n        uint256 hurdle = airlineCount.sub(1).div(2);\n        if (multiCallsAirlineVote.length >= hurdle) {\n            // Airline is accepted\n            airlines[airlineCastedVoteFor].isAccepted = true;\n\n\n            emit SuccessfulAirlineVoteCasted(multiCallsAirlineVote.length, hurdle, airlineCastedVoteFor);\n\n            //Airlinevote is reset\n            airlineToVoteFor = 0;      \n            multiCallsAirlineVote = new address[](0);      \n        } else {\n            emit AirlineVoteCasted(multiCallsAirlineVote.length, airlineCastedVoteFor);\n        }\n    }\n    /**\n    * @dev Sets contract operations on/off\n    *\n    * Contract owner can reset any ongoing vote with leaving the airline that is voted for unregistered\n    */    \n    function resetAirlineVote\n                            (\n                            ) \n                            external\n                            requireCallerAuthorized\n                            requireContractOwner\n\n\n    {\n            airlineToVoteFor = 0;\n            multiCallsAirlineVote = new address[](0);      \n    }\n\n   /**\n    * @dev Buy insurance for a flight\n    *\n    */   \n    function buyInsurance\n                            (         \n                                address passengerAddress,\n                                bytes32 flightID,\n                                uint256 addPayOutAmount\n\n                            )\n                            external\n                            payable\n                            requireCallerAuthorized\n                            requireIsOperational\n    {\n        //passengers[passengerAddress].insurances[flightID].paidIn = msg.value;\n        uint256 beginPayOutAmount = passengers[passengerAddress].payOutAmount[flightID];\n        passengers[passengerAddress].payOutAmount[flightID] = beginPayOutAmount.add(addPayOutAmount);\n        // if (insureesPerFlight[flightID].length=0) {\n        //     insureesPerFlight.push(flightID);\n        // }\n        insureesPerFlight[flightID].push(passengerAddress);  \n    }\n\n    /**\n     *  @dev Credits payouts to insurees\n    */\n    function creditInsurees\n                                (\n                                    bytes32 flightID\n                                )\n                                external\n                                requireCallerAuthorized\n                                requireIsOperational\n    {   // Debit before credit\n        address[] memory insurees = insureesPerFlight[flightID];\n        // delete insureesPerFlight[flightID];\n        \n        emit InsureesToFund(insurees);\n        \n        //Loop through index of insurees per flight\n        for (uint256 i = 0; i < insurees.length; i++) {\n            address insuree = insurees[i];\n            //Debit before Credit\n            uint256 _payOutAmount = passengers[insuree].payOutAmount[flightID];\n            passengers[insuree].payOutAmount[flightID] = 0;\n\n            \n            //Credit PayOutAmount to Balance/credit\n            passengers[insuree].credit = passengers[insuree].credit.add(_payOutAmount); \n            emit PayOutCredited(insuree,_payOutAmount);      \n        }\n\n        \n    }\n    \n\n    /**\n     *  @dev Transfers eligible payout funds to insuree\n     *\n    */\n    function withdraw       (\n                                address _passenger\n                            )\n                            public\n                            requireIsOperational\n                            requireCallerAuthorized\n    {\n        require(_passenger == tx.origin, \"Withdraw request must originate from passenger itself.\");\n        require(passengers[_passenger].credit > 0, \"No pay out amounts allocated to passenger.\");\n        //Debit before credit\n        uint256 credit = passengers[_passenger].credit;\n        passengers[_passenger].credit = 0;\n        \n        payable(_passenger).transfer(credit);\n\n        emit CreditPaidOut(_passenger, credit);\n\n    }\n\n   /**\n    * @dev Initial funding for the insurance. Unless there are too many delayed flights\n    *      resulting in insurance payouts, the contract should be self-sustaining\n    *\n    */   \n    function fundAirline\n                            (\n                                address airline\n                            )\n                            public\n                            payable\n                            requireCallerAuthorized\n                            requireIsOperational\n    {\n        // Airline must be registered first\n        require(airlines[airline].ID != 0, \"No data for this airline yet. Please register airline first.\");\n        // Avoid double funding\n        require(airlines[airline].isFunded=true,\"airline is already fully funded.\");\n        \n        airlines[airline].isFunded = true;\n        \n\n    }\n\n    function getFlightKey\n                        (\n                            address airline,\n                            string memory flight,\n                            uint256 timestamp\n                        )\n                        pure\n                        internal\n                        returns(bytes32) \n    {\n        return keccak256(abi.encodePacked(airline, flight, timestamp));\n    }\n\n    /**\n    * @dev Fallback function for funding smart contract.\n    *\n    */\n    fallback() external payable {\n\n    }\n\n    receive() external payable {\n\n    }\n\n\n}\n\n",
  "sourcePath": "/Users/andrelange/CodingProjects/blockchaindev/FS/contracts/FlightSuretyData.sol",
  "compiler": {
    "name": "solc",
    "version": "0.8.19+commit.7dd6d404.Emscripten.clang"
  },
  "schemaVersion": "3.4.12",
  "updatedAt": "2023-03-02T20:10:42.372Z",
  "networkType": "ethereum",
  "devdoc": {
    "kind": "dev",
    "methods": {
      "buyInsurance(address,bytes32,uint256)": {
        "details": "Buy insurance for a flight"
      },
      "constructor": {
        "details": "Constructor      The deploying account becomes contractOwner"
      },
      "creditInsurees(bytes32)": {
        "details": "Credits payouts to insurees"
      },
      "fundAirline(address)": {
        "details": "Initial funding for the insurance. Unless there are too many delayed flights      resulting in insurance payouts, the contract should be self-sustaining"
      },
      "isAirline(address)": {
        "details": "Modifier that requires caller to be airline      "
      },
      "isFundedAirline(address)": {
        "details": "Function to retrieve airlinedata       "
      },
      "isOperational()": {
        "details": "Get operating status of contract",
        "returns": {
          "_0": "A bool that is the current operating status"
        }
      },
      "isVotingAirline(address)": {
        "details": "Modifier that requires caller to be airline that can be      Voting requires funding and being accepted by other airlines"
      },
      "registerAirline(address,address,string)": {
        "details": "Add an airline to the registration queue      Can only be called from FlightSuretyApp contract"
      },
      "resetAirlineVote()": {
        "details": "Sets contract operations on/off Contract owner can reset any ongoing vote with leaving the airline that is voted for unregistered"
      },
      "setOperatingStatus(bool,address)": {
        "details": "Sets contract operations on/off When operational mode is disabled, all write transactions except for this one will fail"
      },
      "voteAirlineIn(address,address)": {
        "details": "Sets contract operations on/off When operational mode is disabled, all write transactions except for this one will fail"
      },
      "withdraw(address)": {
        "details": "Transfers eligible payout funds to insuree"
      }
    },
    "version": 1
  },
  "userdoc": {
    "kind": "user",
    "methods": {},
    "version": 1
  }
}