{
  "contractName": "FlightSuretyApp",
  "abi": [
    {
      "inputs": [
        {
          "internalType": "address",
          "name": "dataContract",
          "type": "address"
        }
      ],
      "stateMutability": "nonpayable",
      "type": "constructor"
    },
    {
      "anonymous": false,
      "inputs": [
        {
          "indexed": false,
          "internalType": "string",
          "name": "_flight",
          "type": "string"
        },
        {
          "indexed": false,
          "internalType": "uint8",
          "name": "statusCode",
          "type": "uint8"
        }
      ],
      "name": "FlightProcessed",
      "type": "event"
    },
    {
      "anonymous": false,
      "inputs": [
        {
          "indexed": false,
          "internalType": "address",
          "name": "airline",
          "type": "address"
        },
        {
          "indexed": false,
          "internalType": "string",
          "name": "flight",
          "type": "string"
        },
        {
          "indexed": false,
          "internalType": "uint256",
          "name": "timestamp",
          "type": "uint256"
        },
        {
          "indexed": false,
          "internalType": "uint8",
          "name": "status",
          "type": "uint8"
        }
      ],
      "name": "FlightStatusInfo",
      "type": "event"
    },
    {
      "anonymous": false,
      "inputs": [
        {
          "indexed": false,
          "internalType": "address",
          "name": "oracleAddress",
          "type": "address"
        }
      ],
      "name": "OracleRegistered",
      "type": "event"
    },
    {
      "anonymous": false,
      "inputs": [
        {
          "indexed": false,
          "internalType": "address",
          "name": "airline",
          "type": "address"
        },
        {
          "indexed": false,
          "internalType": "string",
          "name": "flight",
          "type": "string"
        },
        {
          "indexed": false,
          "internalType": "uint256",
          "name": "timestamp",
          "type": "uint256"
        },
        {
          "indexed": false,
          "internalType": "uint8",
          "name": "status",
          "type": "uint8"
        }
      ],
      "name": "OracleReport",
      "type": "event"
    },
    {
      "anonymous": false,
      "inputs": [
        {
          "indexed": false,
          "internalType": "uint8",
          "name": "index",
          "type": "uint8"
        },
        {
          "indexed": false,
          "internalType": "address",
          "name": "airline",
          "type": "address"
        },
        {
          "indexed": false,
          "internalType": "string",
          "name": "flight",
          "type": "string"
        },
        {
          "indexed": false,
          "internalType": "uint256",
          "name": "timestamp",
          "type": "uint256"
        }
      ],
      "name": "OracleRequest",
      "type": "event"
    },
    {
      "inputs": [],
      "name": "REGISTRATION_FEE",
      "outputs": [
        {
          "internalType": "uint256",
          "name": "",
          "type": "uint256"
        }
      ],
      "stateMutability": "view",
      "type": "function",
      "constant": true
    },
    {
      "inputs": [],
      "name": "isOperational",
      "outputs": [
        {
          "internalType": "bool",
          "name": "",
          "type": "bool"
        }
      ],
      "stateMutability": "pure",
      "type": "function",
      "constant": true
    },
    {
      "inputs": [
        {
          "internalType": "string",
          "name": "flightName",
          "type": "string"
        }
      ],
      "name": "registerFlight",
      "outputs": [],
      "stateMutability": "nonpayable",
      "type": "function"
    },
    {
      "inputs": [
        {
          "internalType": "string",
          "name": "flightName",
          "type": "string"
        }
      ],
      "name": "getFlightInfo",
      "outputs": [
        {
          "internalType": "bool",
          "name": "",
          "type": "bool"
        },
        {
          "internalType": "uint8",
          "name": "",
          "type": "uint8"
        },
        {
          "internalType": "uint256",
          "name": "",
          "type": "uint256"
        },
        {
          "internalType": "address",
          "name": "",
          "type": "address"
        }
      ],
      "stateMutability": "view",
      "type": "function",
      "constant": true
    },
    {
      "inputs": [
        {
          "internalType": "address",
          "name": "airline",
          "type": "address"
        },
        {
          "internalType": "string",
          "name": "flight",
          "type": "string"
        },
        {
          "internalType": "uint256",
          "name": "timestamp",
          "type": "uint256"
        }
      ],
      "name": "fetchFlightStatus",
      "outputs": [],
      "stateMutability": "nonpayable",
      "type": "function"
    },
    {
      "inputs": [
        {
          "internalType": "address",
          "name": "airlineAddress",
          "type": "address"
        },
        {
          "internalType": "string",
          "name": "name",
          "type": "string"
        }
      ],
      "name": "registerAirlineApp",
      "outputs": [],
      "stateMutability": "nonpayable",
      "type": "function"
    },
    {
      "inputs": [
        {
          "internalType": "bool",
          "name": "mode",
          "type": "bool"
        }
      ],
      "name": "setOperatingStatusApp",
      "outputs": [],
      "stateMutability": "nonpayable",
      "type": "function"
    },
    {
      "inputs": [],
      "name": "isOperationalApp",
      "outputs": [
        {
          "internalType": "bool",
          "name": "",
          "type": "bool"
        }
      ],
      "stateMutability": "view",
      "type": "function",
      "constant": true
    },
    {
      "inputs": [
        {
          "internalType": "address",
          "name": "airlineCastedVoteFor",
          "type": "address"
        }
      ],
      "name": "voteAirlineInApp",
      "outputs": [],
      "stateMutability": "nonpayable",
      "type": "function"
    },
    {
      "inputs": [
        {
          "internalType": "address",
          "name": "airline",
          "type": "address"
        }
      ],
      "name": "fundAirlineApp",
      "outputs": [],
      "stateMutability": "payable",
      "type": "function",
      "payable": true
    },
    {
      "inputs": [
        {
          "internalType": "string",
          "name": "flightName",
          "type": "string"
        }
      ],
      "name": "buyInsuranceApp",
      "outputs": [],
      "stateMutability": "payable",
      "type": "function",
      "payable": true
    },
    {
      "inputs": [],
      "name": "withdrawApp",
      "outputs": [],
      "stateMutability": "nonpayable",
      "type": "function"
    },
    {
      "inputs": [],
      "name": "registerOracle",
      "outputs": [],
      "stateMutability": "payable",
      "type": "function",
      "payable": true
    },
    {
      "inputs": [
        {
          "internalType": "address[]",
          "name": "oracleAddresses",
          "type": "address[]"
        }
      ],
      "name": "registerMultipleOracles",
      "outputs": [],
      "stateMutability": "payable",
      "type": "function",
      "payable": true
    },
    {
      "inputs": [],
      "name": "getMyIndexes",
      "outputs": [
        {
          "internalType": "uint8[3]",
          "name": "",
          "type": "uint8[3]"
        }
      ],
      "stateMutability": "view",
      "type": "function",
      "constant": true
    },
    {
      "inputs": [
        {
          "internalType": "uint8",
          "name": "index",
          "type": "uint8"
        },
        {
          "internalType": "address",
          "name": "airline",
          "type": "address"
        },
        {
          "internalType": "string",
          "name": "flight",
          "type": "string"
        },
        {
          "internalType": "uint256",
          "name": "timestamp",
          "type": "uint256"
        },
        {
          "internalType": "uint8",
          "name": "statusCode",
          "type": "uint8"
        }
      ],
      "name": "submitOracleResponse",
      "outputs": [],
      "stateMutability": "nonpayable",
      "type": "function"
    }
  ],
  "bytecode": "0x6080604052678ac7230489e8000060025560966003556200004960646200003a670de0b6b3a76400006003546200012360201b90919060201c565b6200013b60201b90919060201c565b6004556000600660006101000a81548160ff021916908360ff1602179055503480156200007557600080fd5b50604051620035843803806200358483398181016040528101906200009b9190620001bd565b336000806101000a81548173ffffffffffffffffffffffffffffffffffffffff021916908373ffffffffffffffffffffffffffffffffffffffff16021790555080600160006101000a81548173ffffffffffffffffffffffffffffffffffffffff021916908373ffffffffffffffffffffffffffffffffffffffff16021790555050620002da565b6000818362000133919062000228565b905092915050565b600081836200014b9190620002a2565b905092915050565b600080fd5b600073ffffffffffffffffffffffffffffffffffffffff82169050919050565b6000620001858262000158565b9050919050565b620001978162000178565b8114620001a357600080fd5b50565b600081519050620001b7816200018c565b92915050565b600060208284031215620001d657620001d562000153565b5b6000620001e684828501620001a6565b91505092915050565b6000819050919050565b7f4e487b7100000000000000000000000000000000000000000000000000000000600052601160045260246000fd5b60006200023582620001ef565b91506200024283620001ef565b92508282026200025281620001ef565b915082820484148315176200026c576200026b620001f9565b5b5092915050565b7f4e487b7100000000000000000000000000000000000000000000000000000000600052601260045260246000fd5b6000620002af82620001ef565b9150620002bc83620001ef565b925082620002cf57620002ce62000273565b5b828204905092915050565b61329a80620002ea6000396000f3fe6080604052600436106100f35760003560e01c80638f17520b1161008a578063cd905dff11610059578063cd905dff146102c8578063dd62c8a6146102f3578063e61ae44d1461030f578063f83f11c014610326576100f3565b80638f17520b1461021a5780639ea12e7114610243578063b22bccc01461025f578063c10f27001461029f576100f3565b8063595ffcae116100c6578063595ffcae146101725780635f1cc0e61461019b57806364b4f751146101c65780638c6da477146101f1576100f3565b80631347ebd6146100f8578063339d2590146101235780633f8dd5451461012d5780634d98da4914610156575b600080fd5b34801561010457600080fd5b5061010d61034f565b60405161011a9190611c59565b60405180910390f35b61012b6103e7565b005b34801561013957600080fd5b50610154600480360381019061014f9190611ced565b61050b565b005b610170600480360381019061016b9190611d98565b6107bb565b005b34801561017e57600080fd5b5061019960048036038101906101949190611df1565b610893565b005b3480156101a757600080fd5b506101b0610925565b6040516101bd9190611ed6565b60405180910390f35b3480156101d257600080fd5b506101db610a65565b6040516101e89190611f0a565b60405180910390f35b3480156101fd57600080fd5b5061021860048036038101906102139190611f25565b610a71565b005b34801561022657600080fd5b50610241600480360381019061023c9190611d98565b610b09565b005b61025d600480360381019061025891906120d4565b610b9b565b005b34801561026b57600080fd5b5061028660048036038101906102819190611ced565b610d47565b604051610296949392919061213b565b60405180910390f35b3480156102ab57600080fd5b506102c660048036038101906102c191906121d8565b610ea9565b005b3480156102d457600080fd5b506102dd611282565b6040516102ea9190611c59565b60405180910390f35b61030d60048036038101906103089190611ced565b61128b565b005b34801561031b57600080fd5b506103246114ff565b005b34801561033257600080fd5b5061034d60048036038101906103489190612272565b6115cf565b005b6000600160009054906101000a900473ffffffffffffffffffffffffffffffffffffffff1673ffffffffffffffffffffffffffffffffffffffff1663cd905dff6040518163ffffffff1660e01b8152600401602060405180830381865afa1580156103be573d6000803e3d6000fd5b505050506040513d601f19601f820116820180604052508101906103e291906122fb565b905090565b670de0b6b3a7640000341015610432576040517f08c379a000000000000000000000000000000000000000000000000000000000815260040161042990612385565b60405180910390fd5b600061043d336116ce565b9050604051806040016040528060011515815260200182815250600760003373ffffffffffffffffffffffffffffffffffffffff1673ffffffffffffffffffffffffffffffffffffffff16815260200190815260200160002060008201518160000160006101000a81548160ff0219169083151502179055506020820151816001019060036104cd929190611b65565b509050507fd9d9fdcc9f936c76b5aafe54fc3db5dcec0c6583c9ccc4abe91d17575c5145a53360405161050091906123a5565b60405180910390a150565b600161054c576040517f08c379a000000000000000000000000000000000000000000000000000000000815260040161054390612432565b60405180910390fd5b600160009054906101000a900473ffffffffffffffffffffffffffffffffffffffff1673ffffffffffffffffffffffffffffffffffffffff166348b219ea336040518263ffffffff1660e01b81526004016105a791906123a5565b602060405180830381865afa1580156105c4573d6000803e3d6000fd5b505050506040513d601f19601f820116820180604052508101906105e891906122fb565b610627576040517f08c379a000000000000000000000000000000000000000000000000000000000815260040161061e906124c4565b60405180910390fd5b600061067683838080601f016020809104026020016040519081016040528093929190818152602001838380828437600081840152601f19601f820116905080830192505050505050506118b4565b90506005600082815260200190815260200160002060010160009054906101000a900460ff16156106dc576040517f08c379a00000000000000000000000000000000000000000000000000000000081526004016106d390612530565b60405180910390fd5b60016005600083815260200190815260200160002060010160006101000a81548160ff0219169083151502179055508282600560008481526020019081526020016000206000019182610730929190612767565b5060006005600083815260200190815260200160002060010160016101000a81548160ff021916908360ff160217905550336005600083815260200190815260200160002060030160006101000a81548173ffffffffffffffffffffffffffffffffffffffff021916908373ffffffffffffffffffffffffffffffffffffffff160217905550505050565b600254341015610800576040517f08c379a00000000000000000000000000000000000000000000000000000000081526004016107f790612883565b60405180910390fd5b600160009054906101000a900473ffffffffffffffffffffffffffffffffffffffff1673ffffffffffffffffffffffffffffffffffffffff16636fbb8798600254836040518363ffffffff1660e01b815260040161085e91906123a5565b6000604051808303818588803b15801561087757600080fd5b505af115801561088b573d6000803e3d6000fd5b505050505050565b600160009054906101000a900473ffffffffffffffffffffffffffffffffffffffff1673ffffffffffffffffffffffffffffffffffffffff1663c590dda582336040518363ffffffff1660e01b81526004016108f09291906128a3565b600060405180830381600087803b15801561090a57600080fd5b505af115801561091e573d6000803e3d6000fd5b5050505050565b61092d611bff565b600760003373ffffffffffffffffffffffffffffffffffffffff1673ffffffffffffffffffffffffffffffffffffffff16815260200190815260200160002060000160009054906101000a900460ff166109bc576040517f08c379a00000000000000000000000000000000000000000000000000000000081526004016109b390612918565b60405180910390fd5b600760003373ffffffffffffffffffffffffffffffffffffffff1673ffffffffffffffffffffffffffffffffffffffff168152602001908152602001600020600101600380602002604051908101604052809291908260038015610a5b576020028201916000905b82829054906101000a900460ff1660ff1681526020019060010190602082600001049283019260010382029150808411610a245790505b5050505050905090565b670de0b6b3a764000081565b600160009054906101000a900473ffffffffffffffffffffffffffffffffffffffff1673ffffffffffffffffffffffffffffffffffffffff16633010f50f338585856040518563ffffffff1660e01b8152600401610ad29493929190612974565b600060405180830381600087803b158015610aec57600080fd5b505af1158015610b00573d6000803e3d6000fd5b50505050505050565b600160009054906101000a900473ffffffffffffffffffffffffffffffffffffffff1673ffffffffffffffffffffffffffffffffffffffff16633321a9c182336040518363ffffffff1660e01b8152600401610b669291906129b4565b600060405180830381600087803b158015610b8057600080fd5b505af1158015610b94573d6000803e3d6000fd5b5050505050565b6000610bb18251346118e490919063ffffffff16565b9050670de0b6b3a7640000811015610bfe576040517f08c379a0000000000000000000000000000000000000000000000000000000008152600401610bf590612a4f565b60405180910390fd5b60005b8251811015610d42576000610c2f848381518110610c2257610c21612a6f565b5b60200260200101516116ce565b905060405180604001604052806001151581526020018281525060076000868581518110610c6057610c5f612a6f565b5b602002602001015173ffffffffffffffffffffffffffffffffffffffff1673ffffffffffffffffffffffffffffffffffffffff16815260200190815260200160002060008201518160000160006101000a81548160ff021916908315150217905550602082015181600101906003610cd9929190611b65565b509050507fd9d9fdcc9f936c76b5aafe54fc3db5dcec0c6583c9ccc4abe91d17575c5145a5848381518110610d1157610d10612a6f565b5b6020026020010151604051610d2691906123a5565b60405180910390a1508080610d3a90612acd565b915050610c01565b505050565b6000806000806000610d9c87878080601f016020809104026020016040519081016040528093929190818152602001838380828437600081840152601f19601f820116905080830192505050505050506118b4565b90506005600082815260200190815260200160002060010160009054906101000a900460ff16610e01576040517f08c379a0000000000000000000000000000000000000000000000000000000008152600401610df890612b61565b60405180910390fd5b6005600082815260200190815260200160002060010160009054906101000a900460ff166005600083815260200190815260200160002060010160019054906101000a900460ff1660056000848152602001908152602001600020600201546005600085815260200190815260200160002060030160009054906101000a900473ffffffffffffffffffffffffffffffffffffffff1694509450945094505092959194509250565b8560ff16600760003373ffffffffffffffffffffffffffffffffffffffff1673ffffffffffffffffffffffffffffffffffffffff168152602001908152602001600020600101600060038110610f0257610f01612a6f565b5b602091828204019190069054906101000a900460ff1660ff161480610f9657508560ff16600760003373ffffffffffffffffffffffffffffffffffffffff1673ffffffffffffffffffffffffffffffffffffffff168152602001908152602001600020600101600160038110610f7b57610f7a612a6f565b5b602091828204019190069054906101000a900460ff1660ff16145b8061101057508560ff16600760003373ffffffffffffffffffffffffffffffffffffffff1673ffffffffffffffffffffffffffffffffffffffff168152602001908152602001600020600101600260038110610ff557610ff4612a6f565b5b602091828204019190069054906101000a900460ff1660ff16145b61104f576040517f08c379a000000000000000000000000000000000000000000000000000000000815260040161104690612bf3565b60405180910390fd5b6000868686868660405160200161106a959493929190612ce2565b6040516020818303038152906040528051906020012090506008600082815260200190815260200160002060000160149054906101000a900460ff166110e5576040517f08c379a00000000000000000000000000000000000000000000000000000000081526004016110dc90612da0565b60405180910390fd5b6008600082815260200190815260200160002060010160008360ff1660ff168152602001908152602001600020339080600181540180825580915050600190039060005260206000200160009091909190916101000a81548173ffffffffffffffffffffffffffffffffffffffff021916908373ffffffffffffffffffffffffffffffffffffffff1602179055507f43c853095c2752648493c88b4baac4d580d2594ffb00c6f1d4242d844514f78386868686866040516111aa959493929190612dc0565b60405180910390a160036008600083815260200190815260200160002060010160008460ff1660ff1681526020019081526020016000208054905010611279577fe23f5229de535c091e3b7bec2665f5d698192d3b31393066e8987b7a05076b6c8686868686604051611221959493929190612dc0565b60405180910390a161127885858080601f016020809104026020016040519081016040528093929190818152602001838380828437600081840152601f19601f8201169050808301925050505050505084846118fa565b5b50505050505050565b60006001905090565b60006112da83838080601f016020809104026020016040519081016040528093929190818152602001838380828437600081840152601f19601f820116905080830192505050505050506118b4565b90506005600082815260200190815260200160002060010160009054906101000a900460ff1661133f576040517f08c379a000000000000000000000000000000000000000000000000000000000815260040161133690612b61565b60405180910390fd5b6000600160009054906101000a900473ffffffffffffffffffffffffffffffffffffffff1673ffffffffffffffffffffffffffffffffffffffff166304016c283386866040518463ffffffff1660e01b81526004016113a093929190612e0e565b602060405180830381865afa1580156113bd573d6000803e3d6000fd5b505050506040513d601f19601f820116820180604052508101906113e19190612e55565b9050600061140d60646113ff60035434611a6d90919063ffffffff16565b6118e490919063ffffffff16565b90506004546114258284611a8390919063ffffffff16565b1115611466576040517f08c379a000000000000000000000000000000000000000000000000000000000815260040161145d90612ef4565b60405180910390fd5b600160009054906101000a900473ffffffffffffffffffffffffffffffffffffffff1673ffffffffffffffffffffffffffffffffffffffff16634f829e37343386856040518563ffffffff1660e01b81526004016114c693929190612f2d565b6000604051808303818588803b1580156114df57600080fd5b505af11580156114f3573d6000803e3d6000fd5b50505050505050505050565b6001611540576040517f08c379a000000000000000000000000000000000000000000000000000000000815260040161153790612432565b60405180910390fd5b600160009054906101000a900473ffffffffffffffffffffffffffffffffffffffff1673ffffffffffffffffffffffffffffffffffffffff166351cff8d9336040518263ffffffff1660e01b815260040161159b91906123a5565b600060405180830381600087803b1580156115b557600080fd5b505af11580156115c9573d6000803e3d6000fd5b50505050565b60006115da33611a99565b9050600081868686866040516020016115f7959493929190612ce2565b6040516020818303038152906040528051906020012090506000600860008381526020019081526020016000209050338160000160006101000a81548173ffffffffffffffffffffffffffffffffffffffff021916908373ffffffffffffffffffffffffffffffffffffffff16021790555060018160000160146101000a81548160ff0219169083151502179055507f3ed01f2c3fc24c6b329d931e35b03e390d23497d22b3f90e15b600343e93df1183888888886040516116bd959493929190612f64565b60405180910390a150505050505050565b6116d6611bff565b6116de611bff565b6116e783611a99565b816000600381106116fb576116fa612a6f565b5b602002019060ff16908160ff1681525050806000600381106117205761171f612a6f565b5b60200201518160016003811061173957611738612a6f565b5b602002019060ff16908160ff16815250505b8060006003811061175f5761175e612a6f565b5b602002015160ff168160016003811061177b5761177a612a6f565b5b602002015160ff16036117bb5761179183611a99565b816001600381106117a5576117a4612a6f565b5b602002019060ff16908160ff168152505061174b565b806001600381106117cf576117ce612a6f565b5b6020020151816002600381106117e8576117e7612a6f565b5b602002019060ff16908160ff16815250505b8060006003811061180e5761180d612a6f565b5b602002015160ff168160026003811061182a57611829612a6f565b5b602002015160ff16148061187357508060016003811061184d5761184c612a6f565b5b602002015160ff168160026003811061186957611868612a6f565b5b602002015160ff16145b156118ab5761188183611a99565b8160026003811061189557611894612a6f565b5b602002019060ff16908160ff16815250506117fa565b80915050919050565b6000816040516020016118c79190613018565b604051602081830303815290604052805190602001209050919050565b600081836118f2919061305e565b905092915050565b600161193b576040517f08c379a000000000000000000000000000000000000000000000000000000000815260040161193290612432565b60405180910390fd5b6000611946846118b4565b9050816005600083815260200190815260200160002060010160016101000a81548160ff021916908360ff160217905550826005600083815260200190815260200160002060020181905550601460ff168260ff1603611a2e57600160009054906101000a900473ffffffffffffffffffffffffffffffffffffffff1673ffffffffffffffffffffffffffffffffffffffff1663cc2f6eba826040518263ffffffff1660e01b81526004016119fb919061308f565b600060405180830381600087803b158015611a1557600080fd5b505af1158015611a29573d6000803e3d6000fd5b505050505b7ff568d0c0438d22fc7fa62f23a92b9a4dec491c9e02a4e1a84ec1e05191b892b68483604051611a5f9291906130e3565b60405180910390a150505050565b60008183611a7b9190613113565b905092915050565b60008183611a919190613155565b905092915050565b600080600a905060008160ff166006600081819054906101000a900460ff1680929190611ac590613189565b91906101000a81548160ff021916908360ff16021790555060ff1643611aeb91906131b2565b4085604051602001611afe929190613207565b6040516020818303038152906040528051906020012060001c611b219190613233565b905060fa600660009054906101000a900460ff1660ff161115611b5b576000600660006101000a81548160ff021916908360ff1602179055505b8092505050919050565b826003601f01602090048101928215611bee5791602002820160005b83821115611bbf57835183826101000a81548160ff021916908360ff1602179055509260200192600101602081600001049283019260010302611b81565b8015611bec5782816101000a81549060ff0219169055600101602081600001049283019260010302611bbf565b505b509050611bfb9190611c21565b5090565b6040518060600160405280600390602082028036833780820191505090505090565b5b80821115611c3a576000816000905550600101611c22565b5090565b60008115159050919050565b611c5381611c3e565b82525050565b6000602082019050611c6e6000830184611c4a565b92915050565b6000604051905090565b600080fd5b600080fd5b600080fd5b600080fd5b600080fd5b60008083601f840112611cad57611cac611c88565b5b8235905067ffffffffffffffff811115611cca57611cc9611c8d565b5b602083019150836001820283011115611ce657611ce5611c92565b5b9250929050565b60008060208385031215611d0457611d03611c7e565b5b600083013567ffffffffffffffff811115611d2257611d21611c83565b5b611d2e85828601611c97565b92509250509250929050565b600073ffffffffffffffffffffffffffffffffffffffff82169050919050565b6000611d6582611d3a565b9050919050565b611d7581611d5a565b8114611d8057600080fd5b50565b600081359050611d9281611d6c565b92915050565b600060208284031215611dae57611dad611c7e565b5b6000611dbc84828501611d83565b91505092915050565b611dce81611c3e565b8114611dd957600080fd5b50565b600081359050611deb81611dc5565b92915050565b600060208284031215611e0757611e06611c7e565b5b6000611e1584828501611ddc565b91505092915050565b600060039050919050565b600081905092915050565b6000819050919050565b600060ff82169050919050565b611e5481611e3e565b82525050565b6000611e668383611e4b565b60208301905092915050565b6000602082019050919050565b611e8881611e1e565b611e928184611e29565b9250611e9d82611e34565b8060005b83811015611ece578151611eb58782611e5a565b9650611ec083611e72565b925050600181019050611ea1565b505050505050565b6000606082019050611eeb6000830184611e7f565b92915050565b6000819050919050565b611f0481611ef1565b82525050565b6000602082019050611f1f6000830184611efb565b92915050565b600080600060408486031215611f3e57611f3d611c7e565b5b6000611f4c86828701611d83565b935050602084013567ffffffffffffffff811115611f6d57611f6c611c83565b5b611f7986828701611c97565b92509250509250925092565b6000601f19601f8301169050919050565b7f4e487b7100000000000000000000000000000000000000000000000000000000600052604160045260246000fd5b611fce82611f85565b810181811067ffffffffffffffff82111715611fed57611fec611f96565b5b80604052505050565b6000612000611c74565b905061200c8282611fc5565b919050565b600067ffffffffffffffff82111561202c5761202b611f96565b5b602082029050602081019050919050565b600061205061204b84612011565b611ff6565b9050808382526020820190506020840283018581111561207357612072611c92565b5b835b8181101561209c57806120888882611d83565b845260208401935050602081019050612075565b5050509392505050565b600082601f8301126120bb576120ba611c88565b5b81356120cb84826020860161203d565b91505092915050565b6000602082840312156120ea576120e9611c7e565b5b600082013567ffffffffffffffff81111561210857612107611c83565b5b612114848285016120a6565b91505092915050565b61212681611e3e565b82525050565b61213581611d5a565b82525050565b60006080820190506121506000830187611c4a565b61215d602083018661211d565b61216a6040830185611efb565b612177606083018461212c565b95945050505050565b61218981611e3e565b811461219457600080fd5b50565b6000813590506121a681612180565b92915050565b6121b581611ef1565b81146121c057600080fd5b50565b6000813590506121d2816121ac565b92915050565b60008060008060008060a087890312156121f5576121f4611c7e565b5b600061220389828a01612197565b965050602061221489828a01611d83565b955050604087013567ffffffffffffffff81111561223557612234611c83565b5b61224189828a01611c97565b9450945050606061225489828a016121c3565b925050608061226589828a01612197565b9150509295509295509295565b6000806000806060858703121561228c5761228b611c7e565b5b600061229a87828801611d83565b945050602085013567ffffffffffffffff8111156122bb576122ba611c83565b5b6122c787828801611c97565b935093505060406122da878288016121c3565b91505092959194509250565b6000815190506122f581611dc5565b92915050565b60006020828403121561231157612310611c7e565b5b600061231f848285016122e6565b91505092915050565b600082825260208201905092915050565b7f526567697374726174696f6e2066656520697320726571756972656400000000600082015250565b600061236f601c83612328565b915061237a82612339565b602082019050919050565b6000602082019050818103600083015261239e81612362565b9050919050565b60006020820190506123ba600083018461212c565b92915050565b7f436f6e74726163742069732063757272656e746c79206e6f74206f706572617460008201527f696f6e616c000000000000000000000000000000000000000000000000000000602082015250565b600061241c602583612328565b9150612427826123c0565b604082019050919050565b6000602082019050818103600083015261244b8161240f565b9050919050565b7f4169726c696e65206973206e6f74207965742066756c6c792066756e6465642060008201527f616e6420766f74656420696e2e00000000000000000000000000000000000000602082015250565b60006124ae602d83612328565b91506124b982612452565b604082019050919050565b600060208201905081810360008301526124dd816124a1565b9050919050565b7f466c6967687420616c7265616479207265676973746572656400000000000000600082015250565b600061251a601983612328565b9150612525826124e4565b602082019050919050565b600060208201905081810360008301526125498161250d565b9050919050565b600082905092915050565b7f4e487b7100000000000000000000000000000000000000000000000000000000600052602260045260246000fd5b600060028204905060018216806125a257607f821691505b6020821081036125b5576125b461255b565b5b50919050565b60008190508160005260206000209050919050565b60006020601f8301049050919050565b600082821b905092915050565b60006008830261261d7fffffffffffffffffffffffffffffffffffffffffffffffffffffffffffffffff826125e0565b61262786836125e0565b95508019841693508086168417925050509392505050565b6000819050919050565b600061266461265f61265a84611ef1565b61263f565b611ef1565b9050919050565b6000819050919050565b61267e83612649565b61269261268a8261266b565b8484546125ed565b825550505050565b600090565b6126a761269a565b6126b2818484612675565b505050565b5b818110156126d6576126cb60008261269f565b6001810190506126b8565b5050565b601f82111561271b576126ec816125bb565b6126f5846125d0565b81016020851015612704578190505b612718612710856125d0565b8301826126b7565b50505b505050565b600082821c905092915050565b600061273e60001984600802612720565b1980831691505092915050565b6000612757838361272d565b9150826002028217905092915050565b6127718383612550565b67ffffffffffffffff81111561278a57612789611f96565b5b612794825461258a565b61279f8282856126da565b6000601f8311600181146127ce57600084156127bc578287013590505b6127c6858261274b565b86555061282e565b601f1984166127dc866125bb565b60005b82811015612804578489013582556001820191506020850194506020810190506127df565b86831015612821578489013561281d601f89168261272d565b8355505b6001600288020188555050505b50505050505050565b7f4e6f742073756666696369656e742066756e64732073656e7400000000000000600082015250565b600061286d601983612328565b915061287882612837565b602082019050919050565b6000602082019050818103600083015261289c81612860565b9050919050565b60006040820190506128b86000830185611c4a565b6128c5602083018461212c565b9392505050565b7f4e6f74207265676973746572656420617320616e206f7261636c650000000000600082015250565b6000612902601b83612328565b915061290d826128cc565b602082019050919050565b60006020820190508181036000830152612931816128f5565b9050919050565b82818337600083830152505050565b60006129538385612328565b9350612960838584612938565b61296983611f85565b840190509392505050565b6000606082019050612989600083018761212c565b612996602083018661212c565b81810360408301526129a9818486612947565b905095945050505050565b60006040820190506129c9600083018561212c565b6129d6602083018461212c565b9392505050565b7f526567697374726174696f6e20666565206973206e6f7420737566666963696560008201527f6e74000000000000000000000000000000000000000000000000000000000000602082015250565b6000612a39602283612328565b9150612a44826129dd565b604082019050919050565b60006020820190508181036000830152612a6881612a2c565b9050919050565b7f4e487b7100000000000000000000000000000000000000000000000000000000600052603260045260246000fd5b7f4e487b7100000000000000000000000000000000000000000000000000000000600052601160045260246000fd5b6000612ad882611ef1565b91507fffffffffffffffffffffffffffffffffffffffffffffffffffffffffffffffff8203612b0a57612b09612a9e565b5b600182019050919050565b7f466c69676874206e6f7420796574207265676973746572656400000000000000600082015250565b6000612b4b601983612328565b9150612b5682612b15565b602082019050919050565b60006020820190508181036000830152612b7a81612b3e565b9050919050565b7f496e64657820646f6573206e6f74206d61746368206f7261636c65207265717560008201527f6573740000000000000000000000000000000000000000000000000000000000602082015250565b6000612bdd602383612328565b9150612be882612b81565b604082019050919050565b60006020820190508181036000830152612c0c81612bd0565b9050919050565b60008160f81b9050919050565b6000612c2b82612c13565b9050919050565b612c43612c3e82611e3e565b612c20565b82525050565b60008160601b9050919050565b6000612c6182612c49565b9050919050565b6000612c7382612c56565b9050919050565b612c8b612c8682611d5a565b612c68565b82525050565b600081905092915050565b6000612ca88385612c91565b9350612cb5838584612938565b82840190509392505050565b6000819050919050565b612cdc612cd782611ef1565b612cc1565b82525050565b6000612cee8288612c32565b600182019150612cfe8287612c7a565b601482019150612d0f828587612c9c565b9150612d1b8284612ccb565b6020820191508190509695505050505050565b7f466c69676874206f722074696d657374616d7020646f206e6f74206d6174636860008201527f206f7261636c6520726571756573740000000000000000000000000000000000602082015250565b6000612d8a602f83612328565b9150612d9582612d2e565b604082019050919050565b60006020820190508181036000830152612db981612d7d565b9050919050565b6000608082019050612dd5600083018861212c565b8181036020830152612de8818688612947565b9050612df76040830185611efb565b612e04606083018461211d565b9695505050505050565b6000604082019050612e23600083018661212c565b8181036020830152612e36818486612947565b9050949350505050565b600081519050612e4f816121ac565b92915050565b600060208284031215612e6b57612e6a611c7e565b5b6000612e7984828501612e40565b91505092915050565b7f4164646974696f6e616c20696e737572616e6365206c6561647320746f206f7660008201527f6572696e737572616e6365000000000000000000000000000000000000000000602082015250565b6000612ede602b83612328565b9150612ee982612e82565b604082019050919050565b60006020820190508181036000830152612f0d81612ed1565b9050919050565b6000819050919050565b612f2781612f14565b82525050565b6000606082019050612f42600083018661212c565b612f4f6020830185612f1e565b612f5c6040830184611efb565b949350505050565b6000608082019050612f79600083018861211d565b612f86602083018761212c565b8181036040830152612f99818587612947565b9050612fa86060830184611efb565b9695505050505050565b600081519050919050565b60005b83811015612fdb578082015181840152602081019050612fc0565b60008484015250505050565b6000612ff282612fb2565b612ffc8185612c91565b935061300c818560208601612fbd565b80840191505092915050565b60006130248284612fe7565b915081905092915050565b7f4e487b7100000000000000000000000000000000000000000000000000000000600052601260045260246000fd5b600061306982611ef1565b915061307483611ef1565b9250826130845761308361302f565b5b828204905092915050565b60006020820190506130a46000830184612f1e565b92915050565b60006130b582612fb2565b6130bf8185612328565b93506130cf818560208601612fbd565b6130d881611f85565b840191505092915050565b600060408201905081810360008301526130fd81856130aa565b905061310c602083018461211d565b9392505050565b600061311e82611ef1565b915061312983611ef1565b925082820261313781611ef1565b9150828204841483151761314e5761314d612a9e565b5b5092915050565b600061316082611ef1565b915061316b83611ef1565b925082820190508082111561318357613182612a9e565b5b92915050565b600061319482611e3e565b915060ff82036131a7576131a6612a9e565b5b600182019050919050565b60006131bd82611ef1565b91506131c883611ef1565b92508282039050818111156131e0576131df612a9e565b5b92915050565b6000819050919050565b6132016131fc82612f14565b6131e6565b82525050565b600061321382856131f0565b6020820191506132238284612c7a565b6014820191508190509392505050565b600061323e82611ef1565b915061324983611ef1565b9250826132595761325861302f565b5b82820690509291505056fea2646970667358221220d299c78dfe449f79ee14d4ea174105d30bf4f6518a774f1464f2cf6e50232ff964736f6c63430008130033",
  "immutableReferences": {},
  "source": "pragma solidity ^0.8.17; //>=0.8.25;\n\n//pragma experimental ABIEncoderV2;\n\n// It's important to avoid vulnerabilities due to numeric overflow bugs\n// OpenZeppelin's SafeMath library, when used correctly, protects agains such bugs\n// More info: https://www.nccgroup.trust/us/about-us/newsroom-and-events/blog/2018/november/smart-contract-insecurity-bad-arithmetic/\n\n// import \"../node_modules/openzeppelin-solidity/contracts/utils/math/SafeMath.sol\";\nimport \"@openzeppelin/contracts/utils/math/SafeMath.sol\";\nimport \"../contracts/FlightSuretyData.sol\";\n\n/************************************************** */\n/* FlightSurety Smart Contract                      */\n/************************************************** */\ncontract FlightSuretyApp {\n    using SafeMath for uint256; // Allow SafeMath functions to be called for all uint256 types (similar to \"prototype\" in Javascript)\n\n    /********************************************************************************************/\n    /*                                       DATA VARIABLES                                     */\n    /********************************************************************************************/\n\n    // Flight status codees\n    uint8 private constant STATUS_CODE_UNKNOWN = 0;\n    uint8 private constant STATUS_CODE_ON_TIME = 10;\n    uint8 private constant STATUS_CODE_LATE_AIRLINE = 20;\n    uint8 private constant STATUS_CODE_LATE_WEATHER = 30;\n    uint8 private constant STATUS_CODE_LATE_TECHNICAL = 40;\n    uint8 private constant STATUS_CODE_LATE_OTHER = 50;\n\n    address private contractOwner;          // Account used to deploy contract\n\n    //Reference to the data contract\n    FlightSuretyData private flightSuretyData;\n\n    //Funding requirement set in app contract and handed over into data contract\n    //Risk assessment: because airline needs to be voted in (set in data contract) risk of being manipulated on way to data contract with low relevance\n    uint256 airlineFundingRequirement = 10000000000000000000;\n\n    uint256 payOutMultiple = 150;  // amount to be paid out = paid in amount * payOutMultiple / 100\n    uint256 maxInsurancePayOut = payOutMultiple.mul(1000000000000000000).div(100); // Requirement that max 1 ether is insured per passenger per flight \n    \n    struct flightStructType {\n    //    bytes32 flightID;\n        string flightName;\n        bool isRegistered;\n        uint8 statusCode;\n        uint256 updatedTimestamp;        \n        address airline;\n    }\n    mapping(bytes32 => flightStructType) private flights;\n\n    event FlightProcessed(string _flight, uint8 statusCode);\n    event OracleRegistered(address oracleAddress);\n\n \n    /********************************************************************************************/\n    /*                                       FUNCTION MODIFIERS                                 */\n    /********************************************************************************************/\n\n    // Modifiers help avoid duplication of code. They are typically used to validate something\n    // before a function is allowed to be executed.\n\n    /**\n    * @dev Modifier that requires the \"operational\" boolean variable to be \"true\"\n    *      This is used on all state changing functions to pause the contract in \n    *      the event there is an issue that needs to be fixed\n    */\n    modifier requireIsOperational() \n    {\n         // Modify to call data contract's status\n        require(true, \"Contract is currently not operational\");  \n        _;  // All modifiers require an \"_\" which indicates where the function body will be added\n    }\n\n    /**\n    * @dev Modifier that requires the \"ContractOwner\" account to be the function caller\n    */\n    modifier requireContractOwner()\n    {\n        require(msg.sender == contractOwner, \"Caller is not contract owner\");\n        _;\n    }\n\n    \n\n    /********************************************************************************************/\n    /*                                       CONSTRUCTOR                                        */\n    /********************************************************************************************/\n\n    /**\n    * @dev Contract constructor\n    *\n    */\n    constructor(address dataContract) \n    {\n        contractOwner = msg.sender;\n        flightSuretyData = FlightSuretyData(payable(dataContract));\n    }\n\n    /********************************************************************************************/\n    /*                                       UTILITY FUNCTIONS                                  */\n    /********************************************************************************************/\n\n    function isOperational() \n                            public \n                            pure \n                            returns(bool) \n    {\n        return true;  // Modify to call data contract's status\n    }\n    function getFlightID(string memory _flightName) pure internal returns(bytes32) {\n        return keccak256(abi.encodePacked(_flightName));\n    }\n    /********************************************************************************************/\n    /*                                     SMART CONTRACT FUNCTIONS                             */\n    /********************************************************************************************/\n\n\n\n   /**\n    * @dev Register a future flight for insuring.\n    *\n    */  \n    function registerFlight\n                                (\n                                    string calldata flightName     \n                                )\n                                external\n                                requireIsOperational\n    {\n        require(flightSuretyData.isVotingAirline(msg.sender),\"Airline is not yet fully funded and voted in.\");\n        bytes32 _flightID = getFlightID(flightName);\n        require(!flights[_flightID].isRegistered,\"Flight already registered\");\n\n        // flights[_flightID].flightID = _flightID;\n         \n        flights[_flightID].isRegistered = true;\n        flights[_flightID].flightName = flightName;\n        flights[_flightID].statusCode = STATUS_CODE_UNKNOWN;\n        flights[_flightID].airline = msg.sender;\n    \n    }\n\n    function getFlightInfo\n                                (\n                                    string calldata flightName\n                                )\n                                external\n                                view\n                                returns (bool, uint8, uint256, address)\n    {\n        bytes32 _flightID = getFlightID(flightName);\n        require(flights[_flightID].isRegistered,\"Flight not yet registered\");\n        return(\n            flights[_flightID].isRegistered,\n            flights[_flightID].statusCode,\n            flights[_flightID].updatedTimestamp,\n            flights[_flightID].airline);\n            // flights[_flightID].flightID);\n\n            \n    \n    }\n\n\n    \n   /**\n    * @dev Called after oracle has updated flight status\n    *\n    */  \n    function processFlightStatus\n                                (\n                                    string memory flight,\n                                    uint256 timestamp,\n                                    uint8 statusCode\n                                )\n                                internal\n                                requireIsOperational\n    {\n        bytes32 flightID = getFlightID(flight);\n        flights[flightID].statusCode = statusCode;\n        flights[flightID].updatedTimestamp = timestamp;\n         \n        if (statusCode == STATUS_CODE_LATE_AIRLINE) {\n\n            flightSuretyData.creditInsurees(flightID);\n        }\n        emit FlightProcessed(flight, statusCode);\n    }\n\n\n    // Generate a request for oracles to fetch flight information\n    function fetchFlightStatus\n                        (\n                            address airline,\n                            string calldata flight,\n                            uint256 timestamp                            \n                        )\n                        external\n    {\n        uint8 index = getRandomIndex(msg.sender);\n\n        // Generate a unique key for storing the request\n        bytes32 key = keccak256(abi.encodePacked(index, airline, flight, timestamp));\n        // oracleResponses[key] = ResponseInfo({\n        //                                         requester: msg.sender,\n        //                                         isOpen: true\n        //                                     });\n        ResponseInfo storage responseInfo = oracleResponses[key];\n        responseInfo.requester = msg.sender;\n        responseInfo.isOpen = true;\n        emit OracleRequest(index, airline, flight, timestamp);\n    } \n    function registerAirlineApp(\n                                address airlineAddress,\n                                string calldata name\n                            )\n                            public\n    {\n        flightSuretyData.registerAirline(msg.sender, airlineAddress, name);\n    }\n\n    function setOperatingStatusApp\n                        (\n                            bool mode\n                            \n                        ) \n                        external   \n    {\n        flightSuretyData.setOperatingStatus(mode, msg.sender);\n    }    \n    function isOperationalApp() \n                            public \n                            view \n                            returns(bool) \n                            \n    {\n        return(flightSuretyData.isOperational());\n    }\n\n    function voteAirlineInApp\n                            (\n                                address airlineCastedVoteFor\n                            ) \n                            external       \n    {\n        flightSuretyData.voteAirlineIn(airlineCastedVoteFor, msg.sender);   \n    }\n\n    function fundAirlineApp\n                            (\n                                address airline\n                            )\n                            public\n                            payable\n    {\n        // Airline must be registered first\n        require(msg.value >= airlineFundingRequirement, \"Not sufficient funds sent\");\n\n        //uint256 overpaid = msg.value.sub(airlineFundingRequirement);\n        //address payable _sender = payable(msg.sender);\n        //_sender.transfer(overpaid);\n\n        flightSuretyData.fundAirline{value: airlineFundingRequirement}(airline);\n\n    }\n\n    function buyInsuranceApp\n                            (         \n                                string calldata flightName\n\n                            )\n                            external\n                            payable\n    {\n        bytes32 _flightID = getFlightID(flightName);\n        require(flights[_flightID].isRegistered,\"Flight not yet registered\");\n        uint256 alreadyPaidIn = flightSuretyData.getPayOutAmount(msg.sender, flightName);\n        uint256 addPayOut = msg.value.mul(payOutMultiple).div(100);\n        require(alreadyPaidIn.add(addPayOut) <= maxInsurancePayOut, \"Additional insurance leads to overinsurance\");\n        flightSuretyData.buyInsurance{value: msg.value}(msg.sender, _flightID, addPayOut);\n    }\n    \n    function withdrawApp       (\n                                )\n                                public\n                                requireIsOperational\n    {\n        flightSuretyData.withdraw(msg.sender);\n    }\n// region ORACLE MANAGEMENT\n\n    // Incremented to add pseudo-randomness at various points\n    uint8 private nonce = 0;    \n\n    // Fee to be paid when registering oracle\n    uint256 public constant REGISTRATION_FEE = 1 ether;\n\n    // Number of oracles that must respond for valid status\n    uint256 private constant MIN_RESPONSES = 3;\n\n\n    struct Oracle {\n        bool isRegistered;\n        uint8[3] indexes;        \n    }\n\n    // Track all registered oracles\n    mapping(address => Oracle) private oracles;\n\n    // Model for responses from oracles\n    struct ResponseInfo {\n        address requester;                              // Account that requested status\n        bool isOpen;                                    // If open, oracle responses are accepted\n        mapping(uint8 => address[]) responses;          // Mapping key is the status code reported\n                                                        // This lets us group responses and identify\n                                                        // the response that majority of the oracles\n    }\n\n    // Track all oracle responses\n    // Key = hash(index, flight, timestamp)\n    mapping(bytes32 => ResponseInfo) private oracleResponses;\n\n    // Event fired each time an oracle submits a response\n    event FlightStatusInfo(address airline, string flight, uint256 timestamp, uint8 status);\n\n    event OracleReport(address airline, string flight, uint256 timestamp, uint8 status);\n\n    // Event fired when flight status request is submitted\n    // Oracles track this and if they have a matching index\n    // they fetch data and submit a response\n    event OracleRequest(uint8 index, address airline, string flight, uint256 timestamp);\n\n\n    // Register an oracle with the contract\n    function registerOracle\n                            (\n                            )\n                            external\n                            payable\n    {\n        // Require registration fee\n        require(msg.value >= REGISTRATION_FEE, \"Registration fee is required\");\n\n        uint8[3] memory indexes = generateIndexes(msg.sender);\n\n        oracles[msg.sender] = Oracle({\n                                        isRegistered: true,\n                                        indexes: indexes\n                                    });\n        emit OracleRegistered(msg.sender);\n    }\n    function registerMultipleOracles\n                                    (\n                                        address[] memory oracleAddresses\n                                    )\n                                    external\n                                    payable\n    {\n        uint256 valuePerOracle = msg.value.div(oracleAddresses.length);\n        require(valuePerOracle>= REGISTRATION_FEE, \"Registration fee is not sufficient\");\n        for (uint i=0; i<oracleAddresses.length; i++) {\n            uint8[3] memory indexes = generateIndexes(oracleAddresses[i]);\n\n            oracles[oracleAddresses[i]] = Oracle({\n                                        isRegistered: true,\n                                        indexes: indexes\n                                    });\n            emit OracleRegistered(oracleAddresses[i]);\n        } \n    }\n    function getMyIndexes\n                            (\n                            )\n                            view\n                            external\n                            returns(uint8[3] memory)\n    {\n        require(oracles[msg.sender].isRegistered, \"Not registered as an oracle\");\n\n        return oracles[msg.sender].indexes;\n    }\n\n\n\n\n\n    // Called by oracle when a response is available to an outstanding request\n    // For the response to be accepted, there must be a pending request that is open\n    // and matches one of the three Indexes randomly assigned to the oracle at the\n    // time of registration (i.e. uninvited oracles are not welcome)\n    function submitOracleResponse\n                        (\n                            uint8 index,\n                            address airline,\n                            string calldata flight,\n                            uint256 timestamp,\n                            uint8 statusCode\n                        )\n                        external\n    {\n        require((oracles[msg.sender].indexes[0] == index) || (oracles[msg.sender].indexes[1] == index) || (oracles[msg.sender].indexes[2] == index), \"Index does not match oracle request\");\n\n\n        bytes32 key = keccak256(abi.encodePacked(index, airline, flight, timestamp)); \n        require(oracleResponses[key].isOpen, \"Flight or timestamp do not match oracle request\");\n\n        oracleResponses[key].responses[statusCode].push(msg.sender);\n\n        // Information isn't considered verified until at least MIN_RESPONSES\n        // oracles respond with the *** same *** information\n        emit OracleReport(airline, flight, timestamp, statusCode);\n        if (oracleResponses[key].responses[statusCode].length >= MIN_RESPONSES) {\n\n            emit FlightStatusInfo(airline, flight, timestamp, statusCode);\n\n            // Handle flight status as appropriate\n            processFlightStatus(flight, timestamp, statusCode);\n        }\n    }\n\n\n    function getFlightKey\n                        (\n                            address airline,\n                            string memory flight,\n                            uint256 timestamp\n                        )\n                        pure\n                        internal\n                        returns(bytes32) \n    {\n        return keccak256(abi.encodePacked(airline, flight, timestamp));\n    }\n\n    // Returns array of three non-duplicating integers from 0-9\n    function generateIndexes\n                            (                       \n                                address account         \n                            )\n                            internal\n                            returns(uint8[3] memory)\n    {\n        uint8[3] memory indexes;\n        indexes[0] = getRandomIndex(account);\n        \n        indexes[1] = indexes[0];\n        while(indexes[1] == indexes[0]) {\n            indexes[1] = getRandomIndex(account);\n        }\n\n        indexes[2] = indexes[1];\n        while((indexes[2] == indexes[0]) || (indexes[2] == indexes[1])) {\n            indexes[2] = getRandomIndex(account);\n        }\n\n        return indexes;\n    }\n\n    // Returns array of three non-duplicating integers from 0-9\n    function getRandomIndex\n                            (\n                                address account\n                            )\n                            internal\n                            returns (uint8)\n    {\n        uint8 maxValue = 10;\n\n        // Pseudo random number...the incrementing nonce adds variation\n        uint8 random = uint8(uint256(keccak256(abi.encodePacked(blockhash(block.number - nonce++), account))) % maxValue);\n\n        if (nonce > 250) {\n            nonce = 0;  // Can only fetch blockhashes for last 256 blocks so we adapt\n        }\n\n        return random;\n    }\n\n// endregion\n\n}   \n\n// abstract contract _FlightSuretyData {\n//     function withdraw       (\n//                                 address _passenger\n//                             )\n//                             public\n//     {\n\n//     }\n\n//     function getBalance     (\n//                                 address _passenger\n//                             ) \n//                             external \n//                             view \n//                             returns (uint256) \n//     {\n//     }\n\n//     function getPayOutAmount\n//                             (\n//                                 address passengerAddress, \n//                                 string memory flightName\n//                             ) \n//                             public \n//                             view \n//                             returns(uint256)\n//     {\n//     }\n//     function creditInsurees\n//                                 (\n//                                     bytes32 flighID\n//                                 )\n//                                 external\n//     {\n//     }\n//     function buyInsurance\n//                             (         \n//                                 address passengerAddress,\n//                                 bytes32 flightID,\n//                                 uint256 addPayOutAmount\n\n//                             )\n//                             external\n//                             payable\n//     {\n//     }\n    \n//     function fundAirline\n//                             (\n//                                 address airline\n//                             )\n//                             public\n//                             payable\n//     {\n//     }\n \n    \n//     function voteAirlineIn\n//                             (\n//                                 address airlineCastedVoteFor,\n//                                 address appUserAddress\n//                             ) \n//                             external  \n//     {\n\n//     }\n//     function isOperational() \n//                             public \n//                             view \n//                             returns(bool) \n                            \n//     {\n//     }\n    \n//     function setOperatingStatus\n//                         (\n//                             bool mode,\n//                             address appUserAddress\n//                         ) \n//                         external   \n//     {\n        \n//     }   \n    \n    \n//     function registerAirline\n//                             (\n//                                 address appUserAddress,\n//                                 address airlineAddress,\n//                                 string calldata name\n//                             )\n//                             public\n//     {\n//     }\n\n//     function isVotingAirline(address _address) public view returns(bool)\n//     {\n//     }\n\n    \n\n//     /**\n//      *  @dev Transfers eligible payout funds to insuree\n//      *\n//     */\n//     function pay\n//                             (\n//                             )\n//                             external\n//                             pure\n//     {\n//     }\n\n// }\n",
  "sourcePath": "/Users/andrelange/CodingProjects/blockchaindev/FS/contracts/FlightSuretyApp.sol",
  "compiler": {
    "name": "solc",
    "version": "0.8.19+commit.7dd6d404.Emscripten.clang"
  },
  "schemaVersion": "3.4.12",
  "updatedAt": "2023-03-05T20:17:19.778Z",
  "networkType": "ethereum",
  "devdoc": {
    "kind": "dev",
    "methods": {
      "constructor": {
        "details": "Contract constructor"
      },
      "registerFlight(string)": {
        "details": "Register a future flight for insuring."
      }
    },
    "version": 1
  },
  "userdoc": {
    "kind": "user",
    "methods": {},
    "version": 1
  }
}